:020000040000fa
:080000000002040000000000f2
:020000040000fa
:04000800c002000032
:020000040000fa
:04000c003a100000a6
:020000040000fa
:040010004c10000090
:020000040000fa
:040014004210000096
:020000040000fa
:040018005410000080
:020000040000fa
:04001c00c00200001e
:020000040000fa
:04002000c00200001a
:020000040000fa
:04002400c002000016
:020000040000fa
:04002800c002000012
:020000040000fa
:04002c00c00200000e
:020000040000fa
:04003000c00200000a
:020000040000fa
:040034005e0c00005e
:020000040000fa
:04003800c002000002
:020000040000fa
:04003c00c0020000fe
:020000040000fa
:04004000c0020000fa
:020000040000fa
:04004400b40a0000fa
:020000040000fa
:04004800ea070000c3
:020000040000fa
:04004c00c0020000ee
:020000040000fa
:04005000c0020000ea
:020000040000fa
:040054009403000011
:020000040000fa
:040058003e03000063
:020000040000fa
:04005c00c0020000de
:020000040000fa
:04006000c0020000da
:020000040000fa
:04006400c0020000d6
:020000040000fa
:04006800c0020000d2
:020000040000fa
:04006c00c0020000ce
:020000040000fa
:04007000c0020000ca
:020000040000fa
:04007400c0020000c6
:020000040000fa
:04007800c0020000c2
:020000040000fa
:04007c00c0020000be
:020000040000fa
:04008000c0020000ba
:020000040000fa
:04008400c0020000b6
:020000040000fa
:04008800c0020000b2
:020000040000fa
:04008c00c0020000ae
:020000040000fa
:04009000c0020000aa
:020000040000fa
:04009400d808000088
:020000040000fa
:04009800c609000095
:020000040000fa
:04009c00c00200009e
:020000040000fa
:0400a000c00200009a
:020000040000fa
:0400a400c002000096
:020000040000fa
:0400a800c002000092
:020000040000fa
:0400ac00c00200008e
:020000040000fa
:0400b000c00200008a
:020000040000fa
:0400b400c002000086
:020000040000fa
:0400b800c002000082
:020000040000fa
:0400bc00c00200007e
:020000040000fa
:0400c000c00200007a
:020000040000fa
:0400c400c002000076
:020000040000fa
:0400c800c002000072
:020000040000fa
:0400cc00c00200006e
:020000040000fa
:0400d000c00200006a
:020000040000fa
:0400d400c002000066
:020000040000fa
:0400d800c002000062
:020000040000fa
:0400dc00c00200005e
:020000040000fa
:0400e000c00200005a
:020000040000fa
:0400e400c002000056
:020000040000fa
:0400e800c002000052
:020000040000fa
:0400ec00c00200004e
:020000040000fa
:0400f000c00200004a
:020000040000fa
:0400f400c002000046
:020000040000fa
:0400f800c002000042
:020000040000fa
:0400fc00c00200003e
:020000040000fa
:04010000c002000039
:020000040000fa
:04010400c002000035
:020000040000fa
:04010800c002000031
:020000040000fa
:04010c00c00200002d
:020000040000fa
:04011000c002000029
:020000040000fa
:04011400c002000025
:020000040000fa
:04011800c002000021
:020000040000fa
:04011c00c00200001d
:020000040000fa
:04012000c002000019
:020000040000fa
:04012400c002000015
:020000040000fa
:04012800c002000011
:020000040000fa
:04012c00da030000f2
:020000040000fa
:04013000c002000009
:020000040000fa
:04013400c002000005
:020000040000fa
:04013800c002000001
:020000040000fa
:04013c00c0020000fd
:020000040000fa
:04014000c0020000f9
:020000040000fa
:04014400c0020000f5
:020000040000fa
:04014800c0020000f1
:020000040000fa
:04014c00c0020000ed
:020000040000fa
:04015000c0020000e9
:020000040000fa
:04015400c0020000e5
:020000040000fa
:04015800c0020000e1
:020000040000fa
:04015c00c0020000dd
:020000040000fa
:04016000c0020000d9
:020000040000fa
:04016400c0020000d5
:020000040000fa
:04016800c0020000d1
:020000040000fa
:04016c00c0020000cd
:020000040000fa
:04017000c0020000c9
:020000040000fa
:04017400c0020000c5
:020000040000fa
:04017800c0020000c1
:020000040000fa
:04017c00c0020000bd
:020000040000fa
:04018000c0020000b9
:020000040000fa
:04018400c0020000b5
:020000040000fa
:04018800c0020000b1
:020000040000fa
:04018c00c0020000ad
:020000040000fa
:04019000c0020000a9
:020000040000fa
:04019400c0020000a5
:020000040000fa
:04019800c0020000a1
:020000040000fa
:04019c00c00200009d
:020000040000fa
:04020800c002000030
:020000040000fa
:04020c00a802000044
:020000040000fa
:04021000ae0200003a
:020000040000fa
:04021400b402000030
:020000040000fa
:04021800ba02000026
:020000040000fa
:04021c00c00200001c
:020000040000fa
:04022000c002000018
:020000040000fa
:04022400c002000014
:020000040000fa
:04022800c002000010
:020000040000fa
:04022c00c00200000c
:020000040000fa
:04023000c002000008
:020000040000fa
:04023400c002000004
:020000040000fa
:04023800c002000000
:020000040000fa
:04023c00c0020000fc
:020000040000fa
:04024000c0020000f8
:020000040000fa
:04024400c0020000f4
:020000040000fa
:04024800c0020000f0
:020000040000fa
:04024c00c0020000ec
:020000040000fa
:04025000c0020000e8
:020000040000fa
:04025400c0020000e4
:020000040000fa
:04025800c0020000e0
:020000040000fa
:04025c00c0020000dc
:020000040000fa
:04026000c0020000d8
:020000040000fa
:04026400c0020000d4
:020000040000fa
:04026800c0020000d0
:020000040000fa
:04026c00c0020000cc
:020000040000fa
:04027000c0020000c8
:020000040000fa
:04027400c0020000c4
:020000040000fa
:04027800c0020000c0
:020000040000fa
:04027c00c0020000bc
:020000040000fa
:04028000c0020000b8
:020000040000fa
:04028400c0020000b4
:020000040000fa
:04028800c0020000b0
:020000040000fa
:04028c00c0020000ac
:020000040000fa
:04029000c0020000a8
:020000040000fa
:04029400c0020000a4
:020000040000fa
:04029800c0020000a0
:020000040000fa
:04029c00c00200009c
:020000040000fa
:0402a000c002000098
:020000040000fa
:0402a400c002000094
:020000040000fa
:0402a800c002000090
:020000040000fa
:0402ac00c00200008c
:020000040000fa
:0402b000c002000088
:020000040000fa
:0402b400c002000084
:020000040000fa
:0402b800c002000080
:020000040000fa
:0402bc00c00200007c
:020000040000fa
:0402c000c002000078
:020000040000fa
:0402c400c002000074
:020000040000fa
:0402c800c002000070
:020000040000fa
:0402cc00c00200006c
:020000040000fa
:0402d000c002000068
:020000040000fa
:0402d400c002000064
:020000040000fa
:0402d800c002000060
:020000040000fa
:0402dc00c00200005c
:020000040000fa
:0402e000c002000058
:020000040000fa
:0402e400c002000054
:020000040000fa
:0402e800c002000050
:020000040000fa
:0402ec00c00200004c
:020000040000fa
:0402f000c002000048
:020000040000fa
:0402f400c002000044
:020000040000fa
:0402f800c002000040
:020000040000fa
:0402fc00c00200003c
:020000040000fa
:04030000c002000037
:020000040000fa
:04030400c002000033
:020000040000fa
:04030800c00200002f
:020000040000fa
:04030c00c00200002b
:020000040000fa
:04031000c002000027
:020000040000fa
:04031400c002000023
:020000040000fa
:04031800c00200001f
:020000040000fa
:04031c00c00200001b
:020000040000fa
:04032000c002000017
:020000040000fa
:04032400c002000013
:020000040000fa
:04032800c00200000f
:020000040000fa
:04032c00c00200000b
:020000040000fa
:04033000c002000007
:020000040000fa
:04033400c002000003
:020000040000fa
:04033800c0020000ff
:020000040000fa
:04033c00c0020000fb
:020000040000fa
:04034000c0020000f7
:020000040000fa
:04034400c0020000f3
:020000040000fa
:04034800c0020000ef
:020000040000fa
:04034c00c0020000eb
:020000040000fa
:04035000c0020000e7
:020000040000fa
:04035400c0020000e3
:020000040000fa
:04035800c0020000df
:020000040000fa
:04035c00c0020000db
:020000040000fa
:04036000c0020000d7
:020000040000fa
:04036400c0020000d3
:020000040000fa
:04036800c0020000cf
:020000040000fa
:04036c00c0020000cb
:020000040000fa
:04037000c0020000c7
:020000040000fa
:04037400c0020000c3
:020000040000fa
:04037800c0020000bf
:020000040000fa
:04037c00c0020000bb
:020000040000fa
:04038000c0020000b7
:020000040000fa
:04038400c0020000b3
:020000040000fa
:04038800c0020000af
:020000040000fa
:04038c00c0020000ab
:020000040000fa
:04039000c0020000a7
:020000040000fa
:04039400c0020000a3
:020000040000fa
:04039800c00200009f
:020000040000fa
:04039c00c00200009b
:020000040000fa
:100400000f8820000e7f24000e01880000000000ed
:10041000000020000000e000020032000001200087
:10042000200288000c00070020e1200001002000cd
:1004300011000700000020000000e0000200320070
:100440000000020000000000681002000000000030
:100450000040da000000fe004440a9000002200035
:100460000000e0000300320000002000a00188002e
:100470004440a80000000600910188008000780038
:100480000000eb0015003700e280400032a0b4000d
:100490009101ba00e280400032a0b4009102ba009b
:1004a000e280400032a0b4000002eb00472bde00e7
:1004b000f507b200602ce10004003a000059eb009f
:1004c0008301e900fdff3e00040037006128e100e0
:1004d000010032000082eb000b00070011c3ba00dc
:1004e0001101ba000604e00003003a000200e00037
:1004f000e5ff3a0000000600f607b200960188000a
:1005000082007800f5ff37003159ba008301e90015
:100510000c0032002159ba008301e90008003200c2
:100520000400e00003003a00e280400032a0b40082
:10053000f5ff370011d9ba008301e900faff3a004c
:100540008100e800e180400032a0b4000000060015
:100550000000fa008020a900ffff37000000fa0029
:100560008060a900ffff37000000fa008040a9006a
:10057000ffff37000000fa008080a900ffff37006e
:100580000000fa00ffff3700000178001001e200d0
:10059000050035001061a8008108800000002800d7
:1005a0000100700080088800300880004108800049
:1005b0000200e000010032000089be0000000600d9
:020000040000fa
:1005c0001000000011000000020000000300000005
:1005d0000400000005000000060000000700000005
:1005e00008000000090000000a0000000b000000e5
:1005f0000c0000000d0000000e0000000f000000c5
:020000040000fa
:100600000000fa0080002000001188002222ef0084
:10061000001a2000401188009560a80021e2a8007f
:100620002342a800e084200050428800e08420009b
:1006300040428800608520003042880060852000ac
:1006400020428800604280000010a00060428800c4
:10065000604280000090a0006042880060428000fc
:100660000080a10060428800604280000000a1007c
:10067000604288000080fa0000000600809fbe00f3
:100680000000fa006142800000202000008060002d
:100690000000e000020032009580a9001f00370032
:1006a0008580a90018003700504280001040780073
:1006b0000080fb0020118800504280000000e8000c
:1006c000504288005142800060852000808f500099
:1006d00002003a00e084200050428800604280001e
:1006e0000080a100604288005142800040428000aa
:1006f000808f500004003a00604280000090a0000b
:1007000060428800050037001111800000202000a1
:10071000008060000000e000e3ff32000080fa008b
:100720004f00be0000400600809fbe000000fa009f
:10073000180037002042800031118000814078008d
:1007400001487800204280000000e8002042880034
:1007500021428000e0852000808f500002003a0096
:100760006085200020428800604280000010a100c7
:10077000604288002142800030428000808f50001b
:1007800004003a00604280000000a000604288003f
:100790000400370010118000610060000000e000dc
:1007a000e4ff3a008560a9000080fa004f00be0017
:1007b00000400600801f78000000fa001011800041
:1007c000620060000000e000010032002222a90067
:1007d0008c20a9000080fa004f007800004006003d
:1007e0000200fa000040eb00004f78003042800029
:1007f000104f7800304280000000e800304288004e
:1008000031428000e0852000808f500002003a00d5
:100810006085200030428800314280002042800004
:10082000808f500003003a00604280000010a0005a
:1008300060428800604280000000a10060428800a1
:100840001e4078000080fa00000006000600fa0052
:10085000881f780010079800210798000000eb001f
:10086000000f7800090037006042800062006000dd
:100870000000e0000a003a001e0090001e04400044
:10088000d7ff0700004c78001e0fe8002e009000f4
:100890009e007800808f5000f3ff39000100370080
:1008a000000000001e0078004f0478000080fa006d
:1008b000000006000200fa00004f78009580a900b1
:1008c000404280001e487800404280000000e8005e
:1008d000404288004142800060852000808f5000a7
:1008e00002003a00e084200040428800604280001c
:1008f0000090a10060428800514280004042800088
:10090000808f500003003a00604280000080a00009
:10091000604288009580a8000080fa000000060070
:100920000600fa0010079800210798000000eb006d
:10093000000f78000a00370061428000001020009c
:10094000008060000000e0000a003a001e009000f5
:100950001e004000104078001e0fe800d5ff070081
:100960002e0090009e007800808f5000f2ff39002a
:1009700001003700000000001e0078000080fa002f
:10098000000006000200fa000000eb00000f7800f3
:100990006142800000102000008060000000e00044
:1009a000010032001e30a0006142800000202000c3
:1009b000008060000000e000010032001e40a00046
:1009c00060428000610060000000e0000100320031
:1009d0001e00a00060428000620060000000e00095
:1009e000020032001e20a000010037001e10a000ef
:1009f0001e0078000080fa00000006000200fa00e5
:100a0000000f7800304280009e004000e08520000a
:100a1000808f500008003600304280009e00400069
:100a2000e08520000000ea00008040006185200091
:100a30006140780003003700304280001e00400013
:100a4000104078000080fa00000006000000fa0064
:100a500060428000610060000000e0000f003a008a
:100a60003142800020428000808f50000500360017
:100a700030428000800078002042800000805000da
:100a8000070037003042800080007800204280005c
:100a90000080500068004000010037000000eb00bb
:100aa0000080fa00000006000000fa0061428000a9
:100ab00000102000008060000000e0000f003a00fd
:100ac0005142800040428000808f50000500360077
:100ad000504280008000780040428000008050003a
:100ae00007003700504280008000780040428000bc
:100af0000080500068004000010037000000eb005b
:100b00000080fa00000006000000fa006042800049
:100b10000000d100614060000080fb0000f0a700f1
:100b20000000ea000000ea004f00de00004078000c
:100b30000080fa00000006000000fa006042800019
:100b40004800de00614060000080fb0000f0a7006c
:100b50000000ea000000ea004f00de0000407800dc
:100b60000080fa00000006000000fa00101180006a
:100b70000080fa00000006000000fa0008010700eb
:100b80007e010700f4010700bb02070056010700c1
:100b9000d40107004a0207000080fa0000000600a6
:100ba0000a00fa00881f7800300798004107980073
:100bb00080002000100798000000eb00000f780074
:100bc0000f0037001e0090001e0040002007980014
:100bd0001e00780000004000be009000008440002d
:100be0002e009000f2030700410020000101780070
:100bf000110009000200d800000c78001e0fe80068
:100c00004e0090009e007800808f5000edff350070
:100c10004f0478000080fa00000006000400fa008b
:100c2000000f7800110798000080fa00000006000d
:100c30000400fa00000f7800110798000080fa0005
:100c4000000006000400fa00000f78001107980069
:100c50000080fa00000006000400fa00000f78008f
:100c6000110798000080fa00000006000e00fa004c
:100c70001007980021079800320798004307980052
:100c800054079800650798000000eb00000f7800fb
:100c9000010037001e0fe8002e0090009e00780033
:100ca000808f5000fbff35000080fa000000060036
:100cb0000600fa0010079800210798000000eb00da
:100cc000000f7800160037001e007800000040007a
:100cd0009e009000008040001000780000407800e6
:100ce000f4fe07001e007800000040009e00900007
:100cf000008040001000780000407800a004070049
:100d00001e007800000040009e009000008040001f
:100d10001000780000407800470407001e0fe8002c
:100d20002e0090009e007800808f5000e6ff350076
:100d30000080fa00000006000000fa000ec8bf00a4
:100d40000004e000160032000e68ef0060408000f2
:100d5000e10f500009003200e10f5000030039009c
:100d6000e20f5000090032000b003700e6000700d8
:100d700054010700100020000a0037005901070045
:100d8000c70107002000200006003700cc01070043
:100d90003000200003003700300020000100370041
:100da000604080000080fa00000006000000fa00a9
:100db00060408000e10f500009003200e10f500058
:100dc00005003900e20f500007003200e30f500029
:100dd0000700320008003700f042800007003700ab
:100de0002043800005003700504380000300370097
:100df0008043800001003700100020000080fa00ce
:100e0000000006000600fa0010079800210798006d
:100e10000000eb00000f7800070037001e0078008c
:100e2000000040009e009000008040008000eb0029
:100e3000010878001e0fe8002e0090009e00780048
:100e4000808f5000f5ff35000080fa00000006009a
:100e50000400fa00008fbe000040800011408000b6
:100e60001e01be00800f5100818f59000900320021
:100e7000604080000000e00009003a00004080006f
:100e8000114080001e01be00800f5100818f59006b
:100e90000300360010c0b3000ee8b700230037008f
:100ea00020408000314080001e01be00800f5100b4
:100eb000818f59000900320060408000e10f50002e
:100ec00009003a0020408000314080001e01be0031
:100ed000800f5100818f59000300360010c0b3000d
:100ee0000ee8b700110037004040800051408000fc
:100ef0001e01be00800f5100818f59000900320091
:100f000060408000e20f500008003a00404080003e
:100f1000514080001e01be00800f5100818f59009a
:100f20000200360010c0b3000ee8b7000080fa00df
:100f3000000006001200fa0080002000000f780078
:100f40000e80e8009e007800aeff07000e80e800eb
:100f50009e00780012ff07000e80e8009e007800d7
:100f600053ff070091ff07006101b8008040800037
:100f7000914080000200400083804800804088004b
:100f8000914088008040800091408000b0ff0700c1
:100f900069ff0700604088000080fa00000006003a
:100fa0000000fa000a21ef0040422f00700888007c
:100fb00000032800900888008500a9009500a8007b
:100fc000808720008040eb00014878000080fa0014
:100fd000000006003600f800809fbe00829fbe0021
:100fe000849fbe00869fbe000000fa00b0408000d3
:100ff0000000e800b0408800b0408000e90f5000d9
:10100000020036002b0007001628ef009087200012
:10101000104078008040e800908720000148780068
:101020008087200011c0b300014878008500a90026
:101030000080fa004f03be004f02be004f01be0009
:101040004f00be003600f900004006000200fa0022
:10105000000f78009e0078007108880080872000cb
:101060008040eb00014878000080fa000000060094
:101070000000fa00700880000080fa0000000600fe
:101080000200fa00000f78009e00780051088800e6
:10109000808720008040eb00014878000080fa0043
:1010a000000006000000fa00500880000080fa00ee
:1010b000000006000000fa009eff070014c8bf00f1
:1010c0000004e00003003200ec22a9001468ef00e5
:1010d00003003700ec22a80010c0b30014e8b700ea
:1010e0000080fa00000006000000fa00808720005f
:1010f0008040eb00014878009500a80013e1a800ab
:101100000080fa00000006000000fa0013e1a900c8
:101110009500a9000080fa00000006000200fa0015
:1011200080872000104f78001e4078000004e00007
:1011300003003200808720008040eb0001487800e7
:101140001e4078000080fa00000006000000fa004f
:1011500090872000104078000080fb000080fa009b
:10116000000006000000fa00908720008040eb009d
:10117000014878000080fa00000006000000fa0034
:101180001421ef0040422f00d008880000032800ff
:10119000f00888008760a9009760a800a087200059
:1011a0008040eb00014878000080fa000000060053
:1011b0003600f800809fbe00829fbe00849fbe0064
:1011c000869fbe000000fa00d04080000000e800ca
:1011d000d0408800d0408000e90f50000200360067
:1011e0002b0007001a28ef00b0872000104078007d
:1011f0008040e800b087200001487800a0872000e8
:1012000011c0b300014878008760a9000080fa008f
:101210004f03be004f02be004f01be004f00be0094
:101220003600f900004006000200fa00000f7800c6
:101230009e007800d1088800a08720008040eb0045
:10124000014878000080fa00000006000000fa0063
:10125000d00880000080fa00000006000200fa00ba
:10126000000f78009e007800a1088800a087200069
:101270008040eb00014878000080fa000000060082
:101280000000fa00a00880000080fa0000000600bc
:101290000000fa0027ff070018c8bf000004e000a4
:1012a00003003200ec22a9001868ef0003003700a9
:1012b000ec22a80010c0b30018e8b7000080fa00c4
:1012c000000006000000fa00a08720008040eb002c
:1012d000014878009760a8001fe1a8000080fa008c
:1012e000000006000000fa001fe1a9009760a900b5
:1012f0000080fa00000006000200fa00a08720002b
:10130000104f78001e4078000004e0000300320017
:10131000a08720008040eb00014878001e40780044
:101320000080fa00000006000000fa00b0872000ec
:10133000104078000080fb000080fa0000000600ea
:101340000000fa00b08720008040eb0001487800e0
:101350000080fa00000006000000fa001821ef00eb
:1013600040422f00e00888000003280000098800a0
:101370008780a9009780a800c08720008040eb00ec
:10138000014878000080fa00000006003600f800ee
:10139000809fbe00829fbe00849fbe00869fbe00cd
:1013a0000000fa00f04080000000e800f0408800f3
:1013b000f0408000e90f5000020036002b000700cb
:1013c0001e28ef00d0872000104078008040e80001
:1013d000d087200001487800c087200011c0b300ea
:1013e000014878008780a9000080fa004f03be0002
:1013f0004f02be004f01be004f00be003600f90094
:10140000004006000200fa00000f78009e007800fd
:10141000e1088800c08720008040eb000148780088
:101420000080fa00000006000000fa00e0088000da
:101430000080fa00000006000200fa00000f7800a9
:101440009e007800c1088800c08720008040eb0023
:10145000014878000080fa00000006000000fa0051
:10146000c00880000080fa00000006000000fa00ba
:10147000b0fe07001cc8bf000004e00003003200fb
:10148000ec22a9001c68ef0003003700ec22a80042
:1014900010c0b3001ce8b7000080fa00000006008e
:1014a0000000fa00c08720008040eb00014878006f
:1014b0009780a80021e1a8000080fa000000060043
:1014c0000000fa0021e1a9009780a9000080fa003d
:1014d000000006000200fa00c0872000104f7800cc
:1014e0001e4078000004e00003003200c0872000a6
:1014f0008040eb00014878001e4078000080fa0030
:10150000000006000000fa00d0872000104078009c
:101510000080fb000080fa00000006000000fa00d6
:10152000d08720008040eb00014878000080fa005e
:10153000000006000000fa000621ef0040422f00e4
:1015400060088800000328008008880084e0a90063
:1015500094e0a800608720008040eb0001487800fc
:101560000080fa00000006003600f800809fbe00f0
:10157000829fbe00849fbe00869fbe000000fa00ce
:10158000004180000000e800004188000041800028
:101590000000e000020032002b0007002028ef00ce
:1015a00070872000104078008040e800708720009d
:1015b000014878006087200011c0b300014878001e
:1015c00084e0a9000080fa004f03be004f02be0075
:1015d0004f01be004f00be003600f900004006007b
:1015e0000200fa00000f78009e0078006108880071
:1015f000608720008040eb00014878000080fa00fe
:10160000000006000000fa00600880000080fa0078
:10161000000006000200fa00000f78009e0078002b
:1016200031088800608720008040eb000148780086
:101630000080fa00000006000000fa003008800078
:101640000080fa00000006000000fa004afd0700d2
:101650000080fa00000006000000fa006087200009
:101660008040eb000148780094e0a80011e1a80058
:101670000080fa00000006000000fa0011e1a90055
:1016800094e0a9000080fa00000006000200fa00c1
:1016900060872000104f78001e4078000004e000b2
:1016a00003003200608720008040eb000148780092
:1016b0001e4078000080fa00000006000000fa00da
:1016c00070872000104078000080fb000080fa0046
:1016d000000006000000fa00708720008040eb0048
:1016e000014878000080fa00000006000000fa00bf
:1016f000cc22ef00d422ef00dc22ef00e422ef0046
:10170000ec22ef00f422ef000080eb00401688008e
:1017100000002f0080168800f07e2000c016880090
:10172000000e200000178800800720004017880066
:10173000c01c2000801788005420ef005620ef00c6
:101740005820ef005a20ef005c20ef005e20ef00f1
:101750006c20ef006e20ef007020ef007220ef0091
:101760007420ef007620ef00ce22ef00d622ef00ab
:10177000de22ef00e622ef00ee22ef00f622ef007d
:101780002a23ef003000200060198800113a800001
:10179000f00b200000816000600420007105200033
:1017a00023742000804978008149780082497800bc
:1017b000b135800000fc2f00008060006001b300a4
:1017c000b0358800c1368000f00f2c0080806000aa
:1017d00000e0210001007000c03688002135800043
:1017e00000fc2f00008060003001b300203588002d
:1017f000d1368000f00f2c00808060000030200087
:1018000001007000d03688006136800000fc2f0097
:1018100000806000c001b300603688001135800090
:10182000f00f2c008080600000302000010070006c
:1018300010358800f136800000fc2f000080600029
:101840005000b300f03688003135800000fc2f00d6
:10185000008060000040a00030358800113a800010
:1018600000042000010170006004200071052000c8
:1018700023742000804978008149780082497800eb
:101880000080fa00000006000000fa000021ef00ce
:1018900020a12700100888000002280020088800e6
:1018a0008460a8009460a800e08720008040eb00de
:1018b000014878000080fa00000006003600f800b9
:1018c000809fbe00829fbe00849fbe00869fbe0098
:1018d0000000fa002a000700f0872000104078007e
:1018e0008040e800f087200001487800e087200071
:1018f00011c0b300014878008460a9000080fa009c
:101900004f03be004f02be004f01be004f00be009d
:101910003600f900004006000200fa00000f7800cf
:101920009e00780011088800e08720008040eb00ce
:10193000014878000080fa00000006000000fa006c
:10194000100880000080fa00000006000200fa0083
:10195000000f78009e00780001088800e0872000d2
:101960008040eb00014878000080fa00000006008b
:101970000000fa00000880000080fa000000060065
:101980000000fa000080fa00000006000000fa00e3
:10199000e08720008040eb00014878009460a800b8
:1019a00005e1a8000080fa00000006000000fa002f
:1019b00005e1a9009460a9000080fa00000006007b
:1019c0000200fa00e0872000104f78001e407800e7
:1019d0000004e00003003200e08720008040eb00bc
:1019e000014878001e4078000080fa0000000600e0
:1019f0000000fa00f0872000104078000080fb0013
:101a00000080fa00000006000000fa00f0872000c5
:101a10008040eb00014878000080fa0000000600da
:101a20000000fa000080fa00000006001000fa0032
:101a300060079800710798000000eb00d2fa0700d9
:101a4000008fbe006e009000fe0090003e0140003e
:101a5000ae8148000200be002007980031079800c0
:101a6000070037000000eb00c7fa070040079800a6
:101a700051079800a0002000010020000a00070084
:101a80000000eb00c0fa07000001be002e0090002d
:101a9000be009000800f5100818f5900f1ff35008a
:101aa0000080fa00000006000a00fa0030079800e3
:101ab00041079800ce009000803e20000088b900c9
:101ac000000178003e0090006000b900000078003e
:101ad00000014100be009000803e20000008b800d8
:101ae000010141008200780010079800210798004a
:101af00010079800210798000000eb00000f780005
:101b0000010037001e0fe8001e0078006101b900d7
:101b10001e009000ae009000800f5100818f590090
:101b2000f8ff39000080fa00000006000000fa000b
:101b30002023ef00000f2000101988002000200053
:101b400020198800f00f2000601988003023ef0072
:101b50000080fa00000006000400fa00881f7800e8
:101b60001007980080002000000f7800090037005f
:101b70001e00780068005000000040009e009000a9
:101b8000008440001e00780009000700000c780067
:101b90001e0fe8001e007800ef0f5000f4ff340025
:101ba0001e0078004f0478000080fa000000060054
:101bb0000400fa00100798001e009000800040000a
:101bc000002e280000804000100078004019880096
:101bd00021e3a800401f20000100200009000700a9
:101be0004006200001002000afff07000018800021
:101bf000000f780021e3a9001e0078000080fa00a1
:101c0000000006000400fa00008fbe002023a80098
:101c10001e00be00a4ff07002023a9000080fa00d8
:041c200000000600ba
:020000040000fa
:101c24007608000002000000000000002008000008
:101c34000200000000000000240800002000000052
:101c44000000000022080000020000000200000062
:101c5400ffff000078080000020000000000000000
:101c64001408000004000000000000007a080000ce
:101c7400020000000000000018080000040000003a
:101c8400000000007c0800000200000000000000ca
:101c94001c080000040000000000000044080000cc
:101ca4001a000000000000007e080000020000008e
:101cb400000000005e0800001200000002000000a6
:101cc4000a009000012c01000a002c0001c8000049
:101cd4000a00c800000000007008000006000000b0
:101ce400000000000c0800000800000000000000d4
:101cf400000800000c0000000200000008070000bb
:101d040000100e00000030002a000000781080004f
:020000040000fa
:101d14000000fa00500580000040a0000050a1001f
:101d24000060a10050058800200680000040a0004b
:101d34000050a1000060a10020068800500580002a
:101d44000000a0000010a1000020a10050058800a0
:101d54004005800000c0a00000d0a10000e0a10068
:101d640040058800900580000000a0000010a1003c
:101d74000020a100900588008005800000c0a0001c
:101d840000d0a10000e0a10080058800400580008b
:101d94000000a0000010a1000020a1004005880060
:101da4003005800000c0a00000d0a10000e0a10028
:101db400300588002005800000c0a00000d0a100ec
:101dc40000e0a100200588000080fa000000060061
:101dd4000000fa0080002000801288005222ef00e8
:101de400001a2000c012880051e2a8005342a80043
:101df4000080fa00000006000000fa000000000065
:101e040090128000610060000000e000fcff3200de
:101e140090128000620060000000e00001003200c7
:101e24005222a900b0128000004078000080fa001d
:101e3400000006000200fa00004f780000000000d5
:101e44009112800000202000008060000000e0006b
:101e5400fbff3a001e80fb00a01288000080fa00fd
:101e6400000006000000fa00901280000080fa00d2
:101e7400000006000000fa008000200080158800a1
:101e8400b222ef00001a2000c0158800b1e2a800b9
:101e9400b342a8000080fa00000006000000fa0027
:101ea4000000000090158000610060000000e00068
:101eb400fcff320090158000620060000000e0002a
:101ec40001003200b222a900b01580000040780061
:101ed4000080fa00000006000200fa00004f7800bb
:101ee40000000000911580000020200000806000a8
:101ef4000000e000fbff3a001e80fb00a0158800f4
:101f04000080fa00000006000000fa00901580002e
:101f14000080fa00000006000000fa0080002000a3
:101f2400801188003222ef00001a2000c0118800be
:101f340031e2a8003342a8000080fa000000060045
:101f44000000fa00000000009011800061006000b1
:101f54000000e000fcff320090118000620060008d
:101f64000000e000010032003222a900b01180001c
:101f7400004078000080fa00000006000200fa0029
:101f8400004f780000000000911180000020200024
:101f9400008060000000e000fbff3a001e80fb00b0
:101fa400a01188000080fa00000006000000fa007a
:101fb400901180000080fa00000006000000fa0082
:101fc400c9fd07000700070051ff07008bf9070050
:101fd4007fff0700d0ff0700a6ff07000080fa007c
:101fe400000006000000fa000001eb00600420007d
:101ff400710520002374200080497800814978000d
:10200400824978004427ef004827ef004027ef007b
:10201400203a80000080a1000090a10000a0a1004f
:10202400203a8800203a800000c0a10000d0a1001e
:1020340000e0a100203a88004567a9000080fa006a
:1020440000000600000f78009e007800114188000f
:10205400ffff37000000fa0040822000800778006c
:10206400c0832000000188000080fa000000060000
:102074003600f8008020a9000000eb00f1ff070003
:102084003600f800f3ff07008040a900100020008c
:10209400ecff07003600f8008060a9002000200053
:1020a400e8ff07003600f8008080a9003000200017
:1020b400e4ff07000000fa001dfd070065fd0700ae
:1020c400ec22a9000080fa00000006000000fa00db
:1020d400baff070002000700f6ff0700ffff370002
:0c20e4000000fa000080fa000000060076
:020000040000fa
:0420f00000000000ec
:020000040000fa
:020000040005f5
:0457f400ffff0000b3
:020000040000fa
:020000040005f5
:0457f800bff10000fd
:020000040000fa
:020000040005f5
:0457fc007f3f0000eb
:00000001FF
