:020000040000fa
:080000000002040000000000f2
:020000040000fa
:04000800e002000012
:020000040000fa
:04000c00e60f0000fb
:020000040000fa
:04001000f80f0000e5
:020000040000fa
:04001400ee0f0000eb
:020000040000fa
:0400180000100000d4
:020000040000fa
:04001c00e0020000fe
:020000040000fa
:04002000e0020000fa
:020000040000fa
:04002400e0020000f6
:020000040000fa
:04002800e0020000f2
:020000040000fa
:04002c00e0020000ee
:020000040000fa
:04003000e0020000ea
:020000040000fa
:040034006c0a000052
:020000040000fa
:04003800e0020000e2
:020000040000fa
:04003c00e0020000de
:020000040000fa
:04004000e0020000da
:020000040000fa
:04004400100c00009c
:020000040000fa
:04004800d6070000d7
:020000040000fa
:04004c00e0020000ce
:020000040000fa
:04005000e0020000ca
:020000040000fa
:040054009a0300000b
:020000040000fa
:04005800440300005d
:020000040000fa
:04005c00e0020000be
:020000040000fa
:04006000e0020000ba
:020000040000fa
:04006400e0020000b6
:020000040000fa
:04006800e0020000b2
:020000040000fa
:04006c00e0020000ae
:020000040000fa
:04007000e0020000aa
:020000040000fa
:04007400e0020000a6
:020000040000fa
:04007800e0020000a2
:020000040000fa
:04007c00e00200009e
:020000040000fa
:04008000e00200009a
:020000040000fa
:04008400e002000096
:020000040000fa
:04008800e002000092
:020000040000fa
:04008c00e00200008e
:020000040000fa
:04009000e00200008a
:020000040000fa
:04009400b4080000ac
:020000040000fa
:0400980090090000cb
:020000040000fa
:04009c00e00200007e
:020000040000fa
:0400a000e00200007a
:020000040000fa
:0400a400e002000076
:020000040000fa
:0400a800e002000072
:020000040000fa
:0400ac00e00200006e
:020000040000fa
:0400b000e00200006a
:020000040000fa
:0400b400e002000066
:020000040000fa
:0400b800e002000062
:020000040000fa
:0400bc00e00200005e
:020000040000fa
:0400c000e00200005a
:020000040000fa
:0400c400e002000056
:020000040000fa
:0400c800e002000052
:020000040000fa
:0400cc00e00200004e
:020000040000fa
:0400d000e00200004a
:020000040000fa
:0400d400e002000046
:020000040000fa
:0400d800e002000042
:020000040000fa
:0400dc00e00200003e
:020000040000fa
:0400e000e00200003a
:020000040000fa
:0400e400e002000036
:020000040000fa
:0400e800e002000032
:020000040000fa
:0400ec00e00200002e
:020000040000fa
:0400f000e00200002a
:020000040000fa
:0400f400e002000026
:020000040000fa
:0400f800e002000022
:020000040000fa
:0400fc00e00200001e
:020000040000fa
:04010000e002000019
:020000040000fa
:04010400e002000015
:020000040000fa
:04010800e002000011
:020000040000fa
:04010c00e00200000d
:020000040000fa
:04011000e002000009
:020000040000fa
:04011400e002000005
:020000040000fa
:04011800e002000001
:020000040000fa
:04011c00e0020000fd
:020000040000fa
:04012000e0020000f9
:020000040000fa
:04012400e0020000f5
:020000040000fa
:04012800e0020000f1
:020000040000fa
:04012c00e0030000ec
:020000040000fa
:04013000e0020000e9
:020000040000fa
:04013400e0020000e5
:020000040000fa
:04013800e0020000e1
:020000040000fa
:04013c00e0020000dd
:020000040000fa
:04014000e0020000d9
:020000040000fa
:04014400e0020000d5
:020000040000fa
:04014800e0020000d1
:020000040000fa
:04014c00e0020000cd
:020000040000fa
:04015000e0020000c9
:020000040000fa
:04015400e0020000c5
:020000040000fa
:04015800e0020000c1
:020000040000fa
:04015c00e0020000bd
:020000040000fa
:04016000e0020000b9
:020000040000fa
:04016400e0020000b5
:020000040000fa
:04016800e0020000b1
:020000040000fa
:04016c00e0020000ad
:020000040000fa
:04017000e0020000a9
:020000040000fa
:04017400e0020000a5
:020000040000fa
:04017800e0020000a1
:020000040000fa
:04017c00e00200009d
:020000040000fa
:04018000e002000099
:020000040000fa
:04018400e002000095
:020000040000fa
:04018800e002000091
:020000040000fa
:04018c00e00200008d
:020000040000fa
:04019000e002000089
:020000040000fa
:04019400e002000085
:020000040000fa
:04019800e002000081
:020000040000fa
:04019c00e00200007d
:020000040000fa
:04020800e002000010
:020000040000fa
:04020c00c802000024
:020000040000fa
:04021000ce0200001a
:020000040000fa
:04021400d402000010
:020000040000fa
:04021800da02000006
:020000040000fa
:04021c00e0020000fc
:020000040000fa
:04022000e0020000f8
:020000040000fa
:04022400e0020000f4
:020000040000fa
:04022800e0020000f0
:020000040000fa
:04022c00e0020000ec
:020000040000fa
:04023000e0020000e8
:020000040000fa
:04023400e0020000e4
:020000040000fa
:04023800e0020000e0
:020000040000fa
:04023c00e0020000dc
:020000040000fa
:04024000e0020000d8
:020000040000fa
:04024400e0020000d4
:020000040000fa
:04024800e0020000d0
:020000040000fa
:04024c00e0020000cc
:020000040000fa
:04025000e0020000c8
:020000040000fa
:04025400e0020000c4
:020000040000fa
:04025800e0020000c0
:020000040000fa
:04025c00e0020000bc
:020000040000fa
:04026000e0020000b8
:020000040000fa
:04026400e0020000b4
:020000040000fa
:04026800e0020000b0
:020000040000fa
:04026c00e0020000ac
:020000040000fa
:04027000e0020000a8
:020000040000fa
:04027400e0020000a4
:020000040000fa
:04027800e0020000a0
:020000040000fa
:04027c00e00200009c
:020000040000fa
:04028000e002000098
:020000040000fa
:04028400e002000094
:020000040000fa
:04028800e002000090
:020000040000fa
:04028c00e00200008c
:020000040000fa
:04029000e002000088
:020000040000fa
:04029400e002000084
:020000040000fa
:04029800e002000080
:020000040000fa
:04029c00e00200007c
:020000040000fa
:0402a000e002000078
:020000040000fa
:0402a400e002000074
:020000040000fa
:0402a800e002000070
:020000040000fa
:0402ac00e00200006c
:020000040000fa
:0402b000e002000068
:020000040000fa
:0402b400e002000064
:020000040000fa
:0402b800e002000060
:020000040000fa
:0402bc00e00200005c
:020000040000fa
:0402c000e002000058
:020000040000fa
:0402c400e002000054
:020000040000fa
:0402c800e002000050
:020000040000fa
:0402cc00e00200004c
:020000040000fa
:0402d000e002000048
:020000040000fa
:0402d400e002000044
:020000040000fa
:0402d800e002000040
:020000040000fa
:0402dc00e00200003c
:020000040000fa
:0402e000e002000038
:020000040000fa
:0402e400e002000034
:020000040000fa
:0402e800e002000030
:020000040000fa
:0402ec00e00200002c
:020000040000fa
:0402f000e002000028
:020000040000fa
:0402f400e002000024
:020000040000fa
:0402f800e002000020
:020000040000fa
:0402fc00e00200001c
:020000040000fa
:04030000e002000017
:020000040000fa
:04030400e002000013
:020000040000fa
:04030800e00200000f
:020000040000fa
:04030c00e00200000b
:020000040000fa
:04031000e002000007
:020000040000fa
:04031400e002000003
:020000040000fa
:04031800e0020000ff
:020000040000fa
:04031c00e0020000fb
:020000040000fa
:04032000e0020000f7
:020000040000fa
:04032400e0020000f3
:020000040000fa
:04032800e0020000ef
:020000040000fa
:04032c00e0020000eb
:020000040000fa
:04033000e0020000e7
:020000040000fa
:04033400e0020000e3
:020000040000fa
:04033800e0020000df
:020000040000fa
:04033c00e0020000db
:020000040000fa
:04034000e0020000d7
:020000040000fa
:04034400e0020000d3
:020000040000fa
:04034800e0020000cf
:020000040000fa
:04034c00e0020000cb
:020000040000fa
:04035000e0020000c7
:020000040000fa
:04035400e0020000c3
:020000040000fa
:04035800e0020000bf
:020000040000fa
:04035c00e0020000bb
:020000040000fa
:04036000e0020000b7
:020000040000fa
:04036400e0020000b3
:020000040000fa
:04036800e0020000af
:020000040000fa
:04036c00e0020000ab
:020000040000fa
:04037000e0020000a7
:020000040000fa
:04037400e0020000a3
:020000040000fa
:04037800e00200009f
:020000040000fa
:04037c00e00200009b
:020000040000fa
:04038000e002000097
:020000040000fa
:04038400e002000093
:020000040000fa
:04038800e00200008f
:020000040000fa
:04038c00e00200008b
:020000040000fa
:04039000e002000087
:020000040000fa
:04039400e002000083
:020000040000fa
:04039800e00200007f
:020000040000fa
:04039c00e00200007b
:020000040000fa
:10040000cf8820000e7f24000e018800000000002d
:10041000000020000000e000020032000001200087
:100420002002880014000700670007000000e000b9
:1004300003003a0040d420000100200002003700f1
:100440000000200001002000810f70000100320038
:1004500014000700000020000000e000020032004d
:100460000000020000000000081002000000000070
:100470000040da000000fe004440a9000002200015
:100480000000e0000300320000002000a00188000e
:100490004440a800000006008a1f78008b1f7800e7
:1004a0000000060091018800800478000000eb0045
:1004b0001a003700e284440032a0b4009905ba0063
:1004c000e284440032a0b4009906ba00e2844400f9
:1004d00032a0b4000006eb00476fde00fd07b2005b
:1004e000636ce10003003a00ebff07000000eb0043
:1004f0000a003700606ce10004003a00005deb0088
:100500008b05e900fdff3e00040037006168e10053
:10051000010032000086eb000b00070019c7ba008b
:100520001905ba000e04e00003003a000a00e000da
:10053000e0ff3a0000000600fe07b2009e018800be
:100540008a047800f5ff3700395dba008b05e900b1
:100550000c003200295dba008b05e900080032006a
:100560000c00e00003003a00e284440032a0b40032
:10057000f5ff370019ddba008b05e900faff3a00f4
:100580008904e800e184440032a0b40000000600c1
:100590000000fa008020a900ffff37000000fa00e9
:1005a0008060a900ffff37000000fa008040a9002a
:1005b000ffff37000000fa008080a900ffff37002e
:0c05c0000000fa00ffff370000000500fb
:020000040000fa
:1005cc0010000000110000000200000003000000f9
:1005dc0004000000050000000600000007000000f9
:1005ec0008000000090000000a0000000b000000d9
:1005fc000c0000000d0000000e0000000f000000b9
:020000040000fa
:10060c000000fa0080002000001188002222ef0078
:10061c00001a2000401188009560a80021e2a80073
:10062c002342a800a0852000b0428800a0852000ad
:10063c00a04288002086200090428800208620005e
:10064c0080428800c04280000010a000c042880098
:10065c00c04280000090a000c0428800c0428000d0
:10066c000080a100c0428800c04280000000a100b0
:10067c00c04288000080fa0000000600809fbe0087
:10068c000000fa00c14280000020200000806000c1
:10069c000000e000020032009580a9001f00370026
:1006ac008580a90018003700b04280001040780007
:1006bc000080fb0020118800b04280000000e800a0
:1006cc00b0428800b142800020862000808f50000c
:1006dc0002003a00a0852000b0428800c042800091
:1006ec000080a100c0428800b1428000a04280007e
:1006fc00808f500004003a00c04280000090a0009f
:10070c00c042880005003700111180000020200035
:10071c00008060000000e000e3ff32000080fa007f
:10072c004f00be0000400600809fbe000000fa0093
:10073c001800370080428000311180008140780021
:10074c0001487800804280000000e8008042880068
:10075c0081428000a0862000808f500002003a0069
:10076c002086200080428800c04280000010a1003a
:10077c00c04288008142800090428000808f5000ef
:10078c0004003a00c04280000000a000c042880073
:10079c000400370010118000610060000000e000d0
:1007ac00e4ff3a008560a9000080fa004f00be000b
:1007bc0000400600801f78000000fa001011800035
:1007cc00620060000000e000010032002222a9005b
:1007dc008c20a9000080fa004f0078000040060031
:1007ec000200fa000040eb00004f780090428000bd
:1007fc00104f7800904280000000e8009042880082
:10080c0091428000a0862000808f500002003a00a8
:10081c002086200090428800914280008042800017
:10082c00808f500003003a00c04280000010a000ee
:10083c00c0428800c04280000000a100c042880075
:10084c001e4078000080fa00000006000600fa0046
:10085c00881f780010079800210798000000eb0013
:10086c00000f780009003700c04280006200600071
:10087c000000e0000a003a001e0090001e04400038
:10088c00d7ff0700004c78001e0fe8002e009000e8
:10089c009e007800808f5000f3ff39000100370074
:1008ac00000000001e0078004f0478000080fa0061
:1008bc00000006000200fa00004f78009580a900a5
:1008cc00a04280001e487800a04280000000e80092
:1008dc00a0428800a142800020862000808f50001a
:1008ec0002003a00a0852000a0428800c04280008f
:1008fc000090a100c0428800b1428000a04280005c
:10090c00808f500003003a00c04280000080a0009d
:10091c00c04288009580a8000080fa000000060004
:10092c000600fa0010079800210798000000eb0061
:10093c00000f78000a003700c14280000010200030
:10094c00008060000000e0000a003a001e009000e9
:10095c001e004000104078001e0fe800d5ff070075
:10096c002e0090009e007800808f5000f2ff39001e
:10097c0001003700000000001e0078000080fa0023
:10098c00000006000200fa000000eb00000f7800e7
:10099c00c142800000102000008060000000e000d8
:1009ac00010032001e30a000c14280000020200057
:1009bc00008060000000e000010032001e40a0003a
:1009cc00c0428000610060000000e00001003200c5
:1009dc001e00a000c0428000620060000000e00029
:1009ec00020032001e20a000010037001e10a000e3
:1009fc001e0078000080fa00000006000200fa00d9
:100a0c00000f7800904280009e004000a0862000dd
:100a1c00808f500008003600904280009e004000fd
:100a2c00a08620000000ea00008040002186200003
:100a3c006140780003003700904280001e004000a7
:100a4c00104078000080fa00000006000000fa0058
:100a5c00c0428000610060000000e0000f003a001e
:100a6c009142800080428000808f5000050036004b
:100a7c00904280008000780080428000008050000e
:100a8c000700370090428000800078008042800090
:100a9c000080500068004000010037000000eb00af
:100aac000080fa00000006000000fa00c14280003d
:100abc0000102000008060000000e0000f003a00f1
:100acc00b1428000a0428000808f500005003600ab
:100adc00b042800080007800a0428000008050006e
:100aec0007003700b042800080007800a0428000f0
:100afc000080500068004000010037000000eb004f
:100b0c000080fa00000006000000fa00c0428000dd
:100b1c000000d100614060000080fb0000f0a700e5
:100b2c000000ea000000ea004f00de000040780000
:100b3c000080fa00000006000000fa00c0428000ad
:100b4c004800de00614060000080fb0000f0a70060
:100b5c000000ea000000ea004f00de0000407800d0
:100b6c000080fa00000006000000fa00101180005e
:100b7c000080fa00000006000000fa0045010700a2
:100b8c000080fa00000006000a00fa00881f7800b6
:100b9c00300798004107980080002000100798004b
:100bac000000eb00000f7800120037001e009000d0
:100bbc001e004000200798001e0078000000400036
:100bcc00be009000008440002e0090008b030700b4
:100bdc004100200001017800110009000200d8003a
:100bec00000c78005000200001002000fa030700e0
:100bfc001e0fe8004e0090009e007800808f500081
:100c0c00eaff35004f0478000080fa00000006006f
:100c1c000400fa00000f7800110798000080fa0019
:100c2c00000006000400fa00000f7800110798007d
:100c3c000080fa00000006000400fa00000f7800a3
:100c4c00110798000080fa00000006000400fa006a
:100c5c00000f7800110798000080fa0000000600d1
:100c6c000e00fa0010079800210798003207980030
:100c7c004307980054079800650798000000eb00a4
:100c8c00000f7800010037001e0fe8002e009000c6
:100c9c009e007800808f5000fbff35000080fa002a
:100cac00000006000600fa001007980021079800c3
:100cbc000000eb00000f7800080037001e007800e1
:100ccc00000040009e009000008040001000780062
:100cdc0000407800f7fe07001e0fe8002e00900081
:100cec009e007800808f5000f4ff35000080fa00e1
:100cfc00000006000000fa000ec8bf000004e0006f
:100d0c00160032000e68ef0060408000e10f5000ca
:100d1c0009003200e10f500003003900e20f5000cf
:100d2c00090032000b003700e20007004701070002
:100d3c00100020000a0037004c010700b101070029
:100d4c002000200006003700b6010700300020000c
:100d5c0003003700300020000100370060408000a5
:100d6c000080fa00000006000000fa0060408000dd
:100d7c00e10f500009003200e10f5000050039006e
:100d8c00e20f500007003200e30f50000700320062
:100d9c000800370050438000070037008043800074
:100dac0005003700b043800003003700e0438000ab
:100dbc0001003700100020000080fa00000006003f
:100dcc000600fa0010079800210798000000eb00bd
:100ddc00000f7800070037001e007800000040006c
:100dec009e009000008040008000eb00010878001d
:100dfc001e0fe8002e0090009e007800808f50009f
:100e0c00f5ff35000080fa00000006000400fa002f
:100e1c00008fbe0080702000010020001e01be006b
:100e2c00800f5100818f5900090032006040800012
:100e3c000000e00009003a00807020000100200052
:100e4c001e01be00800f5100818f59000300360037
:100e5c0010c0b3000ee8b70023003700c089210092
:100e6c00010020001e01be00800f5100818f59002f
:100e7c000900320060408000e10f500009003a0088
:100e8c00c0892100010020001e01be00800f51000e
:100e9c00818f59000300360010c0b3000ee8b70074
:100eac0011003700c06a2200010020001e01be00a4
:100ebc00800f5100818f5900090032006040800082
:100ecc00e20f500008003a00c06a22000100200026
:100edc001e01be00800f5100818f590002003600a8
:100eec0010c0b3000ee8b7000080fa000000060046
:100efc001200fa0080002000000f78001600370066
:100f0c000e80e8009e007800adff07000e80e80020
:100f1c009e0078001cff07000e80e8009e00780001
:100f2c0060ff070090ff07006101b800804080005f
:100f3c00914080000200400083804800804088007f
:100f4c00914088008040800091408000afff0700f6
:100f5c0068ff07006040880060408000e30f50008d
:100f6c00e7ff3a000080fa00000006000000fa00db
:100f7c000a21ef0040422f0070088800000328006f
:100f8c00900888008500a9009500a80040882000e2
:100f9c008040eb00014878000080fa000000060059
:100fac003600f800809fbe00829fbe00849fbe006a
:100fbc00869fbe000000fa00c04080000000e800e0
:100fcc00c0408800c1408000b0032000808f5000da
:100fdc00020036002b0007001828ef005088200074
:100fec00104078008040e8005088200001487800cc
:100ffc004088200011c0b300014878008500a9008a
:10100c000080fa004f03be004f02be004f01be002d
:10101c004f00be003600f900004006000200fa0046
:10102c00000f78009e00780071088800408820002e
:10103c008040eb00014878000080fa0000000600b8
:10104c000000fa00700880000080fa000000060022
:10105c000200fa00000f78009e007800510888000a
:10106c00408820008040eb00014878000080fa00a6
:10107c00000006000000fa00500880000080fa0012
:10108c00000006000000fa0099ff07000080fa003b
:10109c00000006000000fa00408820008040eb00b1
:1010ac00014878009500a80013e1a8000080fa0020
:1010bc00000006000000fa0013e1a9009500a90049
:1010cc000080fa00000006000200fa0040882000b0
:1010dc00104f78001e4078000004e000030032003e
:1010ec00408820008040eb00014878001e407800ca
:1010fc000080fa00000006000000fa005088200072
:10110c00104078000080fb000080fa000000060010
:10111c000000fa00508820008040eb000148780065
:10112c000080fa00000006000000fa001421ef0015
:10113c0040422f00d008880000032800f0088800e7
:10114c008760a9009760a800608820008040eb00b1
:10115c00014878000080fa00000006003600f80014
:10116c00809fbe00829fbe00849fbe00869fbe00f3
:10117c000000fa00f04080000000e800f040880019
:10118c00f0408000fd0f5000020036002b000700dd
:10119c001e28ef0070882000104078008040e80086
:1011ac0070882000014878006088200011c0b300ce
:1011bc00014878008760a9000080fa004f03be0048
:1011cc004f02be004f01be004f00be003600f900ba
:1011dc00004006000200fa00000f78009e00780024
:1011ec00d1088800608820008040eb00014878001e
:1011fc000080fa00000006000000fa00d008800011
:10120c000080fa00000006000200fa00000f7800cf
:10121c009e007800a1088800608820008040eb00c8
:10122c00014878000080fa00000006000000fa0077
:10123c00a00880000080fa00000006000000fa0000
:10124c002bff07000080fa00000006000000fa00e7
:10125c00608820008040eb00014878009760a8006f
:10126c001fe1a8000080fa00000006000000fa0050
:10127c001fe1a9009760a9000080fa000000060099
:10128c000200fa0060882000104f78001e407800a1
:10129c000004e00003003200608820008040eb0076
:1012ac00014878001e4078000080fa00000006001b
:1012bc000000fa0070882000104078000080fb00cd
:1012cc000080fa00000006000000fa007088200080
:1012dc008040eb00014878000080fa000000060016
:1012ec000000fa001821ef0040422f00e0088800af
:1012fc0000032800000988008780a9009780a800b7
:10130c00808820008040eb00014878000080fa00c3
:10131c00000006003600f800809fbe00829fbe00d1
:10132c00849fbe00869fbe000000fa002041800012
:10133c000000e8002041880020418000ee0f5000a2
:10134c00020036002b0007002428ef0090882000b4
:10135c00104078008040e800908820000148780018
:10136c008088200011c0b300014878008780a90054
:10137c000080fa004f03be004f02be004f01be00ba
:10138c004f00be003600f900004006000200fa00d3
:10139c00000f78009e007800e1088800808820000b
:1013ac008040eb00014878000080fa000000060045
:1013bc000000fa00e00880000080fa00000006003f
:1013cc000200fa00000f78009e007800c108880027
:1013dc00808820008040eb00014878000080fa00f3
:1013ec00000006000000fa00c00880000080fa002f
:1013fc00000006000000fa00bdfe07000080fa00a5
:10140c00000006000000fa00808820008040eb00fd
:10141c00014878009780a80021e1a8000080fa001c
:10142c00000006000000fa0021e1a9009780a90045
:10143c000080fa00000006000200fa0080882000fc
:10144c00104f78001e4078000004e00003003200ca
:10145c00808820008040eb00014878001e40780016
:10146c000080fa00000006000000fa0090882000be
:10147c00104078000080fb000080fa00000006009d
:10148c000000fa00908820008040eb0001487800b2
:10149c000080fa00000006000000fa000021ef00b6
:1014ac0020a12700100888000002280020088800ce
:1014bc008460a8009460a800a08820008040eb0005
:1014cc00014878000080fa00000006003600f800a1
:1014dc00809fbe00829fbe00849fbe00869fbe0080
:1014ec000000fa002a000700b088200010407800a5
:1014fc008040e800b088200001487800a0882000d7
:10150c0011c0b300014878008460a9000080fa0083
:10151c004f03be004f02be004f01be004f00be0085
:10152c003600f900004006000200fa00000f7800b7
:10153c009e00780011088800a08820008040eb00f5
:10154c00014878000080fa00000006000000fa0054
:10155c00100880000080fa00000006000200fa006b
:10156c00000f78009e00780001088800a0882000f9
:10157c008040eb00014878000080fa000000060073
:10158c000000fa00000880000080fa00000006004d
:10159c000000fa00ec22a80010002000010020003e
:1015ac008d010700ec22a9000080fa000000060063
:1015bc000000fa00a08820008040eb000148780071
:1015cc009460a80005e1a8000080fa000000060065
:1015dc000000fa0005e1a9009460a9000080fa005f
:1015ec00000006000200fa00a0882000104f7800ce
:1015fc001e4078000004e00003003200a0882000a8
:10160c008040eb00014878001e4078000080fa0012
:10161c00000006000000fa00b0882000104078009e
:10162c000080fb000080fa00000006000000fa00b9
:10163c00b08820008040eb00014878000080fa0060
:10164c00000006000000fa00cc22ef00d422ef00cc
:10165c00dc22ef00e422ef00ec22ef00f422ef009a
:10166c000080eb004016880000002f0080168800d8
:10167c00f07e2000c0168800000e200000178800a5
:10168c008007200040178800c01c200080178800ad
:10169c005420ef005620ef005820ef005a20ef00a6
:1016ac005c20ef005e20ef006c20ef006e20ef005e
:1016bc007020ef007220ef007420ef007620ef0016
:1016cc00ce22ef00d622ef00de22ef00e622ef0062
:1016dc00ee22ef00f622ef002a23ef00300020006c
:1016ec0060198800113a8000f00b20000081600026
:1016fc0060042000710520002374200080497800cc
:10170c008149780082497800b135800000fc2f00b7
:10171c00008060006001b300b0358800c1368000e5
:10172c00f00f2c008080600000e0210001007000b0
:10173c00c03688002135800000fc2f00008060003e
:10174c003001b30020358800d1368000f00f2c001a
:10175c00808060000030200001007000d0368800ce
:10176c006136800000fc2f0000806000c001b300d7
:10177c006036880011358000f00f2c0080806000ee
:10178c00003020000100700010358800f136800018
:10179c0000fc2f00008060005000b300f036880081
:1017ac003135800000fc2f00008060000040a0005c
:1017bc0030358800103a8000000178000260a000eb
:1017cc0060042000710520002374200080497800fb
:1017dc0081497800824978000080fa0000000600f8
:1017ec000000fa000621ef0040422f00600888003c
:1017fc00000328008008880084e0a90094e0a80079
:10180c00208820008040eb00014878000080fa001e
:10181c00000006003600f800809fbe00829fbe00cc
:10182c00849fbe00869fbe000000fa002a000700bd
:10183c0030882000104078008040e800308820007c
:10184c00014878002088200011c0b30001487800be
:10185c0084e0a9000080fa004f03be004f02be00d6
:10186c004f01be004f00be003600f90000400600dc
:10187c000200fa00000f78009e00780061088800d2
:10188c00208820008040eb00014878000080fa009e
:10189c00000006000000fa00600880000080fa00da
:1018ac00000006000200fa00000f78009e0078008d
:1018bc0031088800208820008040eb000148780027
:1018cc000080fa00000006000000fa0030088000da
:1018dc000080fa00000006000000fa000080fa0008
:1018ec00000006000000fa00208820008040eb0079
:1018fc000148780094e0a80011e1a8000080fa00eb
:10190c00000006000000fa0011e1a90094e0a90013
:10191c000080fa00000006000200fa002088200077
:10192c00104f78001e4078000004e00003003200e5
:10193c00208820008040eb00014878001e40780091
:10194c000080fa00000006000000fa003088200039
:10195c00104078000080fb000080fa0000000600b8
:10196c000000fa00308820008040eb00014878002d
:10197c000080fa00000006000000fa002023ef00af
:10198c00000f20001019880020002000201988006a
:10199c00f00f2000601988003023ef000080fa005f
:1019ac00000006000400fa00881f78001007980059
:1019bc0080002000000f7800090037001e0078001e
:1019cc0068005000000040009e0090000084400021
:1019dc001e00780009000700000c78001e0fe800bc
:1019ec001e007800ef0f5000f4ff34001e0078004a
:1019fc004f0478000080fa00000006000400fa0092
:101a0c00100798001e00900080004000602e2800f7
:101a1c0000804000100078004019880021e3a800e5
:101a2c0020032000010020006b0007002003200091
:101a3c000100200009000700a00020000100200088
:101a4c006500070000188000000f780021e3a90052
:101a5c001e0078000080fa00000006000400fa0066
:101a6c00008fbe002023a8001e00be005a000700f5
:0c1a7c002023a9000080fa0000000600f2
:020000040000fa
:101a8800820800000200000000000000300800008a
:101a980020000000000000002e08000002000000e6
:101aa80002000000ffff00008408000002000000a0
:101ab80000000000140800000600000000000000fc
:101ac8008608000002000000000000001a0800005c
:101ad8000600000000000000880800000200000066
:101ae80000000000200800000600000000000000c0
:101af800500800001a000000000000008a080000da
:101b08000200000000000000260800000400000099
:101b1800000000002a080000040000000000000087
:101b28006a08000012000000020000003c0090005b
:101b3800012c01001e002c0001c800000f00c80085
:101b4800000000007c080000060000000000000003
:101b58000c08000008000000000000000008000059
:101b68000c0000000200000008070000009c18009c
:0c1b78000000ac0026000000000000008f
:020000040000fa
:101b84000000fa000080fa00000006000800fa00d5
:101b940020079800310798006000b800008fbe004d
:101ba40007003700803e2000010020000c000700e1
:101bb40012002000030020001e0f41005e97490020
:101bc4002e009000be0090001e01be00800f510048
:101bd400818f5900f3ff39000080fa0000000600ed
:101be4000800fa0020079800310798006000b80048
:101bf400008fbe00be009000c05d20000088b900c8
:101c0400000178002e0090006000b9000000780008
:101c140000014100ae009000c05d20000008b80043
:101c24000101410082007800008fbe00008fbe00d9
:101c3400040037000081eb008081eb001e0f41009f
:101c44005e9749001e00be00e00f5000e08f580070
:101c5400f8ff3a000080fa00000006000000fa00d5
:101c640051058000f0f82f00008060000040a000c3
:101c74005005880021068000f0f82f0000806000e5
:101c84000040a000200688005105800080ff2f003e
:101c9400008060000000a00050058800410580001d
:101ca400f0ff28000080600000c0a000400588000c
:101cb4009105800080ff2f00008060000000a000dc
:101cc4009005880081058000f0ff280000806000f6
:101cd40000c0a000800588004105800080ff2f001f
:101ce400008060000000a0004005880031058000ed
:101cf400f0ff28000080600000c0a00030058800cc
:101d040021058000f0ff28000080600000c0a000d2
:101d1400200588000080fa00000006000000fa0098
:101d240080002000801288005222ef00001a200058
:101d3400c012880051e2a8005342a8000080fa00b3
:101d4400000006000000fa0000000000901280006d
:101d5400610060000000e000fcff3200901280008f
:101d6400620060000000e000010032005222a9007d
:101d7400b0128000004078000080fa0000000600e5
:101d84000200fa00004f7800000000009112800069
:101d940000202000008060000000e000fbff3a000b
:101da4001e80fb00a01288000080fa0000000600dc
:101db4000000fa00901280000080fa000000060083
:101dc4000000fa008000200080158800b222ef0095
:101dd400001a2000c0158800b1e2a800b342a80090
:101de4000080fa00000006000000fa000000000075
:101df40090158000610060000000e000fcff3200ec
:101e040090158000620060000000e00001003200d4
:101e1400b222a900b0158000004078000080fa00ca
:101e2400000006000200fa00004f780000000000e5
:101e34009115800000202000008060000000e00078
:101e4400fbff3a001e80fb00a01588000080fa000a
:101e5400000006000000fa00901580000080fa00df
:101e6400000006000000fa008000200080118800b5
:101e74003222ef00001a2000c011880031e2a800cd
:101e84003342a8000080fa00000006000000fa00b7
:101e94000000000090118000610060000000e0007c
:101ea400fcff320090118000620060000000e0003e
:101eb400010032003222a900b011800000407800f5
:101ec4000080fa00000006000200fa00004f7800cb
:101ed40000000000911180000020200000806000bc
:101ee4000000e000fbff3a001e80fb00a011880008
:101ef4000080fa00000006000000fa009011800043
:101f04000080fa00000006000000fa00cffd070080
:101f14000c00070051ff0700bbf907007fff070013
:101f2400d0ff0700a6ff07005dfd07002efe070097
:101f340010fc07007efc0700ebfc07000080fa00a1
:101f4400000006000000fa000001eb00600420001d
:101f540071052000237420008049780081497800ad
:101f6400824978004427ef004827ef004027ef001c
:101f7400213a8000f08f2f0000806000203a880012
:101f8400213a8000f0ff280000806000203a880099
:101f94004567a9000080fa0000000600000f7800e1
:101fa4009e00780071418800ffff37000000fa00ae
:101fb40000832000800778008084200000018800ce
:101fc4000080fa00000006003600f8008020a90016
:101fd4000000eb00f1ff07003600f800f3ff0700f4
:101fe4008040a90010002000ecff07003600f80034
:101ff4008060a90020002000e8ff07003600f800f8
:102004008080a90030002000e4ff07000000fa00ef
:10201400bdff070003000700d9fa07000080fa009b
:10202400000006000000fa000080fa00000006002c
:020000040000fa
:020000040005f5
:0457f400ffff0000b3
:020000040000fa
:020000040005f5
:0457f800bff10000fd
:020000040000fa
:020000040005f5
:0457fc007f3f0000eb
:00000001FF
