:020000040000fa
:080000000002040000000000f2
:020000040000fa
:040008000e050000e1
:020000040000fa
:04000c00f6020000f8
:020000040000fa
:0400100008030000e1
:020000040000fa
:04001400fe020000e8
:020000040000fa
:0400180010030000d1
:020000040000fa
:04001c000e050000cd
:020000040000fa
:040020000e050000c9
:020000040000fa
:040024000e050000c5
:020000040000fa
:040028000e050000c1
:020000040000fa
:04002c000e050000bd
:020000040000fa
:040030000e050000b9
:020000040000fa
:04003400b80400000c
:020000040000fa
:040038000e050000b1
:020000040000fa
:04003c000e050000ad
:020000040000fa
:040040000e050000a9
:020000040000fa
:04004400c8020000ee
:020000040000fa
:040048001803000099
:020000040000fa
:04004c000e0500009d
:020000040000fa
:040050000e05000099
:020000040000fa
:040054003a0400006a
:020000040000fa
:04005800e4030000bd
:020000040000fa
:04005c000e0500008d
:020000040000fa
:040060000e05000089
:020000040000fa
:040064000e05000085
:020000040000fa
:040068000e05000081
:020000040000fa
:04006c000e0500007d
:020000040000fa
:040070000e05000079
:020000040000fa
:040074000e05000075
:020000040000fa
:040078000e05000071
:020000040000fa
:04007c000e0500006d
:020000040000fa
:040080000e05000069
:020000040000fa
:040084000e05000065
:020000040000fa
:040088000e05000061
:020000040000fa
:04008c000e0500005d
:020000040000fa
:040090000e05000059
:020000040000fa
:040094006003000005
:020000040000fa
:040098009c030000c5
:020000040000fa
:04009c000e0500004d
:020000040000fa
:0400a0000e05000049
:020000040000fa
:0400a4000e05000045
:020000040000fa
:0400a8000e05000041
:020000040000fa
:0400ac000e0500003d
:020000040000fa
:0400b0000e05000039
:020000040000fa
:0400b4000e05000035
:020000040000fa
:0400b8000e05000031
:020000040000fa
:0400bc000e0500002d
:020000040000fa
:0400c0000e05000029
:020000040000fa
:0400c4000e05000025
:020000040000fa
:0400c8000e05000021
:020000040000fa
:0400cc000e0500001d
:020000040000fa
:0400d0000e05000019
:020000040000fa
:0400d4000e05000015
:020000040000fa
:0400d8000e05000011
:020000040000fa
:0400dc000e0500000d
:020000040000fa
:0400e0000e05000009
:020000040000fa
:0400e4000e05000005
:020000040000fa
:0400e8000e05000001
:020000040000fa
:0400ec000e050000fd
:020000040000fa
:0400f0000e050000f9
:020000040000fa
:0400f4000e050000f5
:020000040000fa
:0400f8000e050000f1
:020000040000fa
:0400fc000e050000ed
:020000040000fa
:040100000e050000e8
:020000040000fa
:040104000e050000e4
:020000040000fa
:040108000e050000e0
:020000040000fa
:04010c000e050000dc
:020000040000fa
:040110000e050000d8
:020000040000fa
:040114000e050000d4
:020000040000fa
:040118000e050000d0
:020000040000fa
:04011c000e050000cc
:020000040000fa
:040120000e050000c8
:020000040000fa
:040124000e050000c4
:020000040000fa
:040128000e050000c0
:020000040000fa
:04012c00a204000029
:020000040000fa
:040130000e050000b8
:020000040000fa
:040134000e050000b4
:020000040000fa
:040138000e050000b0
:020000040000fa
:04013c000e050000ac
:020000040000fa
:040140000e050000a8
:020000040000fa
:040144000e050000a4
:020000040000fa
:040148000e050000a0
:020000040000fa
:04014c000e0500009c
:020000040000fa
:040150000e05000098
:020000040000fa
:040154000e05000094
:020000040000fa
:040158000e05000090
:020000040000fa
:04015c000e0500008c
:020000040000fa
:040160000e05000088
:020000040000fa
:040164000e05000084
:020000040000fa
:040168000e05000080
:020000040000fa
:04016c000e0500007c
:020000040000fa
:040170000e05000078
:020000040000fa
:040174000e05000074
:020000040000fa
:040178000e05000070
:020000040000fa
:04017c000e0500006c
:020000040000fa
:040180000e05000068
:020000040000fa
:040184000e05000064
:020000040000fa
:040188000e05000060
:020000040000fa
:04018c000e0500005c
:020000040000fa
:040190000e05000058
:020000040000fa
:040194000e05000054
:020000040000fa
:040198000e05000050
:020000040000fa
:04019c000e0500004c
:020000040000fa
:040208000e050000df
:020000040000fa
:04020c00f6040000f4
:020000040000fa
:04021000fc040000ea
:020000040000fa
:0402140002050000df
:020000040000fa
:0402180008050000d5
:020000040000fa
:04021c000e050000cb
:020000040000fa
:040220000e050000c7
:020000040000fa
:040224000e050000c3
:020000040000fa
:040228000e050000bf
:020000040000fa
:04022c000e050000bb
:020000040000fa
:040230000e050000b7
:020000040000fa
:040234000e050000b3
:020000040000fa
:040238000e050000af
:020000040000fa
:04023c000e050000ab
:020000040000fa
:040240000e050000a7
:020000040000fa
:040244000e050000a3
:020000040000fa
:040248000e0500009f
:020000040000fa
:04024c000e0500009b
:020000040000fa
:040250000e05000097
:020000040000fa
:040254000e05000093
:020000040000fa
:040258000e0500008f
:020000040000fa
:04025c000e0500008b
:020000040000fa
:040260000e05000087
:020000040000fa
:040264000e05000083
:020000040000fa
:040268000e0500007f
:020000040000fa
:04026c000e0500007b
:020000040000fa
:040270000e05000077
:020000040000fa
:040274000e05000073
:020000040000fa
:040278000e0500006f
:020000040000fa
:04027c000e0500006b
:020000040000fa
:040280000e05000067
:020000040000fa
:040284000e05000063
:020000040000fa
:040288000e0500005f
:020000040000fa
:04028c000e0500005b
:020000040000fa
:040290000e05000057
:020000040000fa
:040294000e05000053
:020000040000fa
:040298000e0500004f
:020000040000fa
:04029c000e0500004b
:020000040000fa
:0402a0000e05000047
:020000040000fa
:0402a4000e05000043
:020000040000fa
:0402a8000e0500003f
:020000040000fa
:0402ac000e0500003b
:020000040000fa
:0402b0000e05000037
:020000040000fa
:0402b4000e05000033
:020000040000fa
:0402b8000e0500002f
:020000040000fa
:0402bc000e0500002b
:020000040000fa
:0402c0000e05000027
:020000040000fa
:0402c4000e05000023
:020000040000fa
:0402c8000e0500001f
:020000040000fa
:0402cc000e0500001b
:020000040000fa
:0402d0000e05000017
:020000040000fa
:0402d4000e05000013
:020000040000fa
:0402d8000e0500000f
:020000040000fa
:0402dc000e0500000b
:020000040000fa
:0402e0000e05000007
:020000040000fa
:0402e4000e05000003
:020000040000fa
:0402e8000e050000ff
:020000040000fa
:0402ec000e050000fb
:020000040000fa
:0402f0000e050000f7
:020000040000fa
:0402f4000e050000f3
:020000040000fa
:0402f8000e050000ef
:020000040000fa
:0402fc000e050000eb
:020000040000fa
:040300000e050000e6
:020000040000fa
:040304000e050000e2
:020000040000fa
:040308000e050000de
:020000040000fa
:04030c000e050000da
:020000040000fa
:040310000e050000d6
:020000040000fa
:040314000e050000d2
:020000040000fa
:040318000e050000ce
:020000040000fa
:04031c000e050000ca
:020000040000fa
:040320000e050000c6
:020000040000fa
:040324000e050000c2
:020000040000fa
:040328000e050000be
:020000040000fa
:04032c000e050000ba
:020000040000fa
:040330000e050000b6
:020000040000fa
:040334000e050000b2
:020000040000fa
:040338000e050000ae
:020000040000fa
:04033c000e050000aa
:020000040000fa
:040340000e050000a6
:020000040000fa
:040344000e050000a2
:020000040000fa
:040348000e0500009e
:020000040000fa
:04034c000e0500009a
:020000040000fa
:040350000e05000096
:020000040000fa
:040354000e05000092
:020000040000fa
:040358000e0500008e
:020000040000fa
:04035c000e0500008a
:020000040000fa
:040360000e05000086
:020000040000fa
:040364000e05000082
:020000040000fa
:040368000e0500007e
:020000040000fa
:04036c000e0500007a
:020000040000fa
:040370000e05000076
:020000040000fa
:040374000e05000072
:020000040000fa
:040378000e0500006e
:020000040000fa
:04037c000e0500006a
:020000040000fa
:040380000e05000066
:020000040000fa
:040384000e05000062
:020000040000fa
:040388000e0500005e
:020000040000fa
:04038c000e0500005a
:020000040000fa
:040390000e05000056
:020000040000fa
:040394000e05000052
:020000040000fa
:040398000e0500004e
:020000040000fa
:04039c000e0500004a
:020000040000fa
:100400004f5f21000e7f24000e01880000000000d5
:10041000000020000000e000020032000001200087
:100420002002880014000700d80107000000e00047
:1004300003003a00c04524000100200002003700fc
:100440000000200001002000810f70000100320038
:1004500014000700000020000000e000020032004d
:1004600000000200000000008657020000000000ab
:100470000040da000000fe004440a900402f2000a8
:100480000000e0000300320000002000a00188000e
:100490004440a800000006008a1f78008b1f7800e7
:1004a0000000060091018800800478000000eb0045
:1004b0001a003700e284440032a0b4009905ba0063
:1004c000e284440032a0b4009906ba00e2844400f9
:1004d00032a0b4000006eb00476fde00fd07b2005b
:1004e000636ce10003003a00ebff07000000eb0043
:1004f0000a003700606ce10004003a00005deb0088
:100500008b05e900fdff3e00040037006168e10053
:10051000010032000086eb000b00070019c7ba008b
:100520001905ba000e04e00003003a000a00e000da
:10053000e0ff3a0000000600fe07b2009e018800be
:100540008a047800f5ff3700395dba008b05e900b1
:100550000c003200295dba008b05e900080032006a
:100560000c00e00003003a00e284440032a0b40032
:10057000f5ff370019ddba008b05e900faff3a00f4
:100580008904e800e184440032a0b40000000600c1
:100590003600f800809fbe00829fbe00849fbe0090
:1005a000869fbe000000fa00e7270700705e21006a
:1005b000104078008040e800705e2100014878001b
:1005c000605e210011c0b3000148780084e0a900fa
:1005d0000080fa004f03be004f02be004f01be0074
:1005e0004f00be003600f900004006003600f8005b
:1005f0008020a9000000eb00392a07003600f8002f
:100600003b2a07008040a90010002000342a070080
:100610003600f8008060a90020002000302a070082
:100620003600f8008080a900300020002c2a070046
:100630003600f800809fbe00829fbe00849fbe00ef
:10064000869fbe00889fbe000000fa0050418000d7
:100650000000e80050418800504180006104b9006a
:10066000c043210085250700800f5400818f5c0066
:1006700002003900a72807002a28ef00905e210019
:10068000104078008040e800905e2100014878002a
:10069000805e210011c0b300014878008500a900e8
:1006a0000080fa004f04be004f03be004f02be00a0
:1006b0004f01be004f00be003600f90000400600aa
:1006c0003600f800809fbe00829fbe00849fbe005f
:1006d000869fbe000000fa00404880000000e8004d
:1006e00040488800404880000000e00002003200de
:1006f000e62707000829ef00b05e210010407800cf
:100700008040e800b05e210001487800a05e210032
:1007100011c0b300014878008760a9000080fa008a
:100720004f03be004f02be004f01be004f00be008f
:100730003600f900004006003600f800809fbe0039
:10074000829fbe00849fbe00869fbe000000fa000c
:1007500020178000620060000000e00001003a0005
:10076000e422a800204880000000e800204888001b
:100770002148800050488000808f500002003900de
:10078000132807000429ef00d05e210010407800f4
:100790008040e800d05e210001487800c05e210062
:1007a00011c0b300014878008780a9000080fa00da
:1007b0004f03be004f02be004f01be004f00be00ff
:1007c0003600f90000400600809fbe000000fa00dd
:1007d000d1ad800000202000008060000000e0001b
:1007e000020032009580a9001f0037008580a90013
:1007f00018003700c0ad8000104078000080fb007a
:1008000020118800c0ad80000000e800c0ad880065
:10081000c1ad8000405c2100808f500002003a0092
:10082000c05b2100c0ad8800d0ad80000080a10079
:10083000d0ad8800c1ad8000b0ad8000808f500089
:1008400004003a00d0ad80000090a000d0ad880038
:10085000050037001111800000202000008060009a
:100860000000e000e3ff32000080fa004f00be000d
:10087000004006003600f800809fbe00829fbe0048
:10088000849fbe00869fbe000000fa00180037005b
:1008900090ad8000311180008140780001487800df
:1008a00090ad80000000e80090ad880091ad800020
:1008b000c05c2100808f500002003a00405c2100a3
:1008c00090ad8800d0ad80000010a100d0ad8800b0
:1008d00091ad8000a0ad8000808f500004003a00f0
:1008e000d0ad80000000a000d0ad8800040037002b
:1008f00010118000610060000000e000e4ff3a0099
:1009000010118000620060000000e0000200320070
:100910002222a90003003700604880001716070054
:10092000604888008560a9000080fa004f03be007f
:100930004f02be004f01be004f00be003600f9005e
:1009400000400600801f78000000fa0010118000af
:10095000620060000000e000010032002222a900d5
:100960008c20a9000080fa004f00780000400600ab
:100970003600f800809fbe00829fbe00849fbe00ac
:10098000869fbe000000fa00804880000000e8005a
:10099000804888008148800070488000808f500027
:1009a00002003900932607001029ef00f05e2100b5
:1009b000104078008040e800f05e21000148780097
:1009c000e05e210011c0b300014878008460a900f6
:1009d0000080fa004f03be004f02be004f01be0070
:1009e0004f00be003600f900004006000000fa008b
:1009f0008020a900ffff37000000fa008060a900f6
:100a0000ffff37000000fa008040a900ffff370019
:100a10000000fa008080a900ffff37000000fa0004
:100a2000ffff3700000178001001e20003003500ed
:100a30001061a800000028001021b70030088000d5
:100a4000410880000200e000010032000089be0081
:100a5000000006000a00fa00e20f50001f003e00ee
:100a600080af8000e10f500006003200802320009c
:100a70004523200023232000042320000000e00061
:100a800004003a008022200045222000232220007a
:100a900004222000060028009403630002003a00ac
:100aa00007087800140a730013a8a30001003a0095
:100ab00013a0a00002007800050037001388a300ef
:100ac000feff32003102fb00840a78000000e900da
:100ad0000000e000f9ff3a00080037003300200072
:100ae000b3bf9f00c0bf9f00d1bf9f00e2bf9f0068
:100af0006a805700420807006fb99700020078002b
:100b00000080fa0000000600889fbe008004780084
:100b100090af80000000e00004003a000e000700e3
:100b20000084eb000000e0000800350098af800072
:100b30000900e0000500320009004400060007003b
:100b40000000e00001003d000084eb000800780098
:100b50004f04be0000000600800078000100e000a5
:100b600003003a000000200090af8800000005005c
:100b70000080eb0002002000828f500002003e0047
:100b800091af88000000eb000000060000000500a7
:100b900003f0a200889fbe008a9fbe008c1f7800d1
:100ba00000010700070133006450e1004f003200ec
:100bb0006420e1005200320003826c0007003b0019
:100bc0000905d0000306d000820f54000c065d001a
:100bd0000200390002003200890178000306780023
:100be0008582550004003d000003fd008103fd00e7
:100bf0008502ea008b854200840f720002003b00f0
:100c000060001000e08018006011b8000005eb00e3
:100c10007a28e1000a00390006007800c75ddd008f
:100c2000f707b200878075002d00370082817100c0
:100c30000a017800610560008180d1000080d30046
:100c40008502e900f9ff3b00060440008784480064
:100c500002003b0060041400e0841c000988a3002b
:100c6000070032008a817100828171006101640095
:100c70008904d1000884d3008b05e80017003700f1
:100c80000978a30013003a000b00e00013003400c1
:100c90008b05e9000804440089844c000a44740070
:100ca0000978a3000d003a000b00e00007003400b3
:100cb0008b05e9000804440089844c0001003a00d7
:100cc0000b0020000978a300f7ff32000001eb00c1
:100cd00002003700828171000a0178007600070067
:100ce0000cf0a70001f0a000bf0037006420e10075
:100cf00002003a00838f6c00bf0033000801be0081
:100d00000200be00b8003700889fbe008a9fbe0068
:100d10008c1f7800a3000700aa00330003866c0034
:100d20006450e1002e0032006420e1003300320004
:100d30006150e1002f0032006120e10031003200fb
:100d400085855500eb07b00009002000080420004d
:100d5000050037000804440089844c000a00310073
:100d60000603430087834b000001530081815b0031
:100d7000f8ff33000203be000800a000080444008e
:100d800089844c00f6ff3900c639dd008301730009
:100d900001003200130020008904d1000884d30030
:100da0000998a300050032000800a7000300a00076
:100db0008904d1000884d3008b05e8008904d100a0
:100dc0000884d3000001eb000281d2003a00070042
:100dd00001f0a1000cf0a70001f0a0008200370094
:100de0006420e100840032000801be000200be0061
:100df000f7ff37006120e1007f0032006000b8009b
:100e0000f3ff37000000200001f82700f0ff370053
:100e1000140020003b023700f4ff2f003902370096
:100e20000001be004a0007000470a70003f0a10003
:100e30006509b100160032000d0035006828e10098
:100e400006003500f0ff2f00f1ff27000300e0004f
:100e500013003b00010028000000050000004000d6
:100e6000818048008502e900fcff3a000800370055
:100e7000f88f420002003c008000eb0000000500fb
:100e80008100d1000080d3008502e800fcff3a0019
:100e90000300e00002003b0060001000e08018004a
:100ea000000006004f89de00820178003002370022
:100eb0006011b8003e0237008100200061805500bb
:100ec0000b003d000b00200061fe2f000100e1003f
:100ed0001d00340082817100610164008904d10029
:100ee0000884d3000000e800faff3a0071002000f7
:100ef000610064000300700002006000090032001d
:100f000061044400e0844c000988a500050032001b
:100f10008b05e8006808e10002003a008904d1006e
:100f20000884d300f20f20000258e10005003d00c4
:100f3000c75ddd00f907b200898075000800780000
:100f4000000006000bf827008b0078000000050069
:100f5000c70ade00f107b200f50fb2000800320048
:100f6000e1cf4200020032000170a0002400050021
:100f7000810f7000010032000408050044000500e4
:100f8000810f700002003a00140005008502e9009c
:100f90000000400081c04800fcff3b000170a00041
:100fa000240005000004be00e9ff07000003be00a6
:100fb0000405be000200be00e5ff0700844f750077
:100fc000000006000200be006450e100050036008b
:100fd0006420e100020036000968a30001003a0025
:100fe0000800be000160a0004f0678004f05be005b
:100ff0004f04be0000000600f0ff2f00f1ff2700a5
:10100000f9ff3700889fbe008a9fbe008c1f7800c2
:10101000e4ff0700ebff330003866c006450e1003f
:10102000240032006420e100270032006150e1001a
:10103000220032006120e100210032008b85420055
:10104000eb07b1000134b800003ab80008044200d0
:1010500089844a00013ab8000030b8008880400016
:1010600009014a000400330000004000818048006c
:10107000020149008b05e900c909dd008301700008
:101080000100320013002000c814de004814dd0007
:101090004709de001200b200c808de0008847000b4
:1010a00085ff070001f0a1000cf0a70001f0a000ef
:1010b000cdff37006120e100cfff32000801be0004
:1010c0000200be00f7ff37006150e100fcff3a006c
:1010d000c9ff37000c00fa00889fbe008a9fbe003f
:1010e0008c9fbe00afff07000206be00840578009b
:1010f0000200be00020020005b01070005003a006c
:101100008b02b300120020005701070001003a00d3
:10111000f8856d000c01be00c60007000800be0087
:101120009b0032000b08a3009e003a000df0a700c0
:101130000be0a00009f0a7000bf0a00009f0a1004f
:101140000801be00bb0007000bf0a60095003200ae
:1011500001003c000bd0a0008acf7500b200330024
:101160006000b8006250e10099003900a1003e0023
:101170000b28a300a2003a000bf8a30006003200df
:101180000b58a300a70032000801be00a900070009
:101190000800be00940032000800be00c300070033
:1011a0000004be00050578000bf0a7000b30a60078
:1011b0000bf0a1005b079800324f200053f323008f
:1011c00013ff070005003d000800be0012002000cc
:1011d000a60107000004be000a05e9004a079800be
:1011e0006150b9002fff0700008fbe000c01be0048
:1011f00084ff07000aff0700300798000100e000a5
:1012000002003d0060001000e0801800f2ff27009f
:10121000820f5000e08f580064003e000c00be00ba
:10122000fffe070020079800f2072000820f500001
:10123000e08f580005003c0012f82f00f3ff2f004c
:10124000820f5000838f580009003d000a00e00023
:101250000300320001003c000201ea0002057800b0
:101260006000b800200798003a079800190037007e
:101270003e0090006100b9000aff0700809fbe0099
:101280000c00be004109dd004811de007208b1000b
:10129000f50007000005be001e01be0059ff070053
:1012a0004f01be003afe0700809fbe000c00be004a
:1012b0000a01be0036fe07001e01be0051ff0700f6
:1012c0004f01be0033fe07008221270013f32300e5
:1012d0004cff07000005be002e0090006100b90021
:1012e000f0fe070001f0a2000c01be0029fe07007d
:1012f0000006be000800be007e0107000c01be0013
:1013000040ff07000a01be0022fe0700809fbe00ca
:101310004a0007002e0590000af0a7000a05ea001f
:10132000050037000800be000801be0035ff0700b9
:101330000004be000c00be000801be000a00a700a9
:1013400030ff07000006be000a05d100f5ff3a0095
:101350005e01900002e0a600030037000001be001d
:101360003600070068fe07000004be004f00be0004
:101370005b0007000801be0022ff07003e0190004d
:101380003a010700de0590000bf0a70001f0a20073
:101390004f06be004f05be004f04be000080fa009d
:1013a0000000060025000700f9ff370027000700ae
:1013b0006000b8000bd0a7000bc0a0000be0a70096
:1013c0000bc0a2000bc0a70001f82700f0ff3700f8
:1013d0000df8a300020032001e00070019000700ec
:1013e0000bf8a300eaff32000b30a70001f0a200c7
:1013f000e7ff37000df8a300f9ff3a00f7ff3700c9
:101400000801be000b000700e6ff320001003c00af
:101410000df0a2006000b8000df0a7000900070061
:10142000dbff37000b000700f1ff2700f0ff2f0064
:10143000d7ff37000100070075fe370001f82300d1
:101440000000050001f82700000005002002200030
:1014500001003700100220009048880000000600bc
:101460006022b800060220000000d0008180d20077
:101470000482d2008582d2000000a0000202520045
:1014800083825a00030031000202420083824a0034
:101490000000a1000603e900f3ff3a000000060087
:1014a000efff07000400be00000006000003be00be
:1014b000a7fe07006220e100020032000600be0025
:1014c00005000500e507b100f107b20004f02300b4
:1014d0008480700007f0a70001f0a0002400050040
:1014e000889fbe008a9fbe008c9fbe000004be0085
:1014f00097fe07000800be006420e10048003e009f
:101500005500320072212700132b240042fe0700f1
:1015100047003c000800be00c2ec2800e32c2c0071
:101520003bfe0700470035000800be0001f0a100a7
:10153000020020000338230035fe07004300350079
:101540000800be00b2a32a0083fb2300adfe070003
:101550000200200003f0230001f0a70003f0a00028
:101560008cfd07002efe07000005be004dfe0700a3
:1015700001f0a2000006be000200280013f32300c1
:10158000a0fe07000801be0082fd0700809fbe008c
:101590000c00be0032082800e3952b0099fe0700de
:1015a0004f01be007bfd07000006be000001be002b
:1015b00094fe0700809fbe004241250083b82300af
:1015c00090fe07000200200003e8230071fd0700e1
:1015d0000c01be008bfe07000006be004f00be00df
:1015e000f2f92b00c3d4230086fe0700020020007e
:1015f00003f0230067fd07000c01be0064fd070037
:101600000001be000c00be00bffd0700020020006c
:1016100003f023005ffd0700610145009300070010
:101620004f06be004f05be004f04be00000006007e
:1016300001f82700000020002202200092488800c4
:10164000f7ff37006000b800fbff370001f8230008
:1016500000002000f2ff370009f8a300f0ff32007d
:101660006000b800eeff3700889fbe008a9fbe0072
:101670000003be0036fe0700850578008281520017
:10168000020020006220e10004003a00f307b100ec
:10169000040035007718e100040035000600be00a4
:1016a000140037006000b8000f003700f50f20006d
:1016b000faff2f008502d1000a85d3008301e900db
:1016c000fcff3b008184620000046500890f740008
:1016d000f2ff32008582ea000a85ea008184620016
:1016e00000046500f4fd070007f0a70001f0a0006a
:1016f0000081eb000200e0004f05be004f04be0079
:1017000000000600889fbe008a9fbe00841f7800ec
:1017100024fe07004f00780011003300f0ff2f0077
:10172000838f6c0006003b00040565000a00a700db
:101730000800370009f0a60010002000080037005c
:10174000820f5400838f5c000300390010002000da
:1017500001003e000000200009f0a7000000ea00a0
:101760004f05be004f04be000000e0000000060070
:10177000881f7800030478000300e00007003d00a4
:1017800060001000e080180060011900e08119007d
:1017900002003b0001f02d000300370004000700a9
:1017a00008f0a70001f0a0004f0478000000060038
:1017b000889fbe008a9fbe000082700004027100f4
:1017c00004827100260032000004be000200be0048
:1017d0006011b8006b092000950220000182cf0043
:1017e0000a0039000541b1000082cf00070039002e
:1017f0000541b1000982cf00040039000541b10064
:101800000882cf00010039000541b10005425200b5
:10181000120032000a003b00828171006101640005
:101820008100d1000080d3008984d3000884d300d4
:101830008b05e8000442e800f7ff3a000700370094
:101840000804440089844c0000004800818048005e
:101850008b05e9000442e900f9ff3a0096fd070014
:101860004f05be004f04be00000006000003be008e
:10187000b7fd07006220e100020032000600be0052
:101880000000060085024100e30f20000328e1006c
:1018900005003c00a3fe2f000328e10007003d00e7
:1018a0000500200001003700f50f20002002200075
:1018b000904888006000b80008003700130020003e
:1018c0008381520005003d008100d1000080d300db
:1018d0008301e800fcff3a0005002000c72add0074
:1018e000f107b2008580700007f0a70001f0a000aa
:1018f00000000600889fbe008a9fbe008c9fbe002d
:10190000eafe0700850478000005be006420e100bf
:1019100049003e006220e10003003200090035006a
:101920000bf8a300440032000bf8a30008003200bb
:101930001002200090488800f0ff2f00f1ff2700e0
:101940003d00370001f82f00000020003a0037006a
:101950003d0007008efc07000006be000a00be0026
:10196000324f200053f323002bfd07000600340004
:101970000c00be003400070085fc07000006be0016
:101980000a00be00020037008904e9000c00be0016
:101990002d0007009bfd07002b0007007dfc0700c2
:1019a0000001be000c00be00d7fc07000005be0011
:1019b0000001be0093fd07000006be00a2f3230055
:1019c000430d2c0073fc0700809fbe000c00be007e
:1019d000d2e32700d3f02b008afd07004f01be00a1
:1019e000c9fc07000006be000a01be0085fd070015
:1019f0000a01be0067fc07000006be006148b9008e
:101a000028fd07000005be0032082800e3952b00e2
:101a10007cfd07000c01be005efc07000006be0056
:101a20000a00be000200280013f3230075fd070022
:101a30000c01be0057fc07004f06be004f05be005c
:101a40004f04be000000060003f023000200050062
:101a5000889fbe008a9fbe008c9fbe00c15c210093
:101a600062ae80000200e0000b003a00648140009a
:101a700062ae8800b2ae8800a1009800a1ae8800d6
:101a8000214190000204a000a24098006141900012
:101a90000204a000e2409800670440004244de00d7
:101aa0004244dd00a4ae80000100200009002000b7
:101ab000818454002d002000110009008d04d800fd
:101ac000800678000886e8000c0646008001eb00de
:101ad00002003700130020000b027800a4409000a1
:101ae0000108a300020032000a003700120a780041
:101af00014017800a24090000108a300fbff32000f
:101b000088004200810f5100020039000800e00007
:101b100042003d00940578000b00a100848f550021
:101b2000edff3e00e18f5100eaff3a008d0f5400b7
:101b300002003600890f5400140039006141b800da
:101b40006148b900b4ff2f000500200000005200da
:101b500081805a00800f5100818f590002003500aa
:101b6000640544000a003700000020003a0020000d
:101b70000005550008054500110009000985d80039
:101b80000980b90000057800010037000c057800d5
:101b90000a007800dcfb0700e10f400005003a0076
:101ba000640544000a007800d7fb0700e10f4000fd
:101bb0002b003200b1ae800080087800b1ae80000a
:101bc000e481400021419000830f50000200320068
:101bd0000204a000010037000204a100a240980006
:101be000640555000a0540000a087800baae88006e
:101bf000c15c2100010d7800b2ae8000a2409000cf
:101c00000104a00021419800a04090000104a1001f
:101c1000214098008001eb00afff3700a1ae8800a3
:101c2000810f5100070036001101be00c2ae8800ce
:101c3000d3ae8800940878000041eb00a1ae80008c
:101c4000a2409800a3ae8000030a7800a440900050
:101c50000104a00021429800640042000100370006
:101c60000000eb004f06be004f05be004f04be0053
:101c7000000006000000e000080032006400500090
:101c8000a1ae8000810f500001003100a0ae88009d
:101c9000a04090000104a10021409800000006002f
:101ca000889fbe008a9fbe000004be000900e000bd
:101cb00007003a000000eb000800e00036003200a8
:101cc00008007800ebff07000000eb00320037004f
:101cd0000800e00003003a00090078005cff0700fc
:101ce0002d003700640054009005780068f89700d4
:101cf0000008a3000200320008007800ddff0700a2
:101d00000900780052ff0700800478000000eb0013
:101d10000900e00020003200888f54001b003200d0
:101d200069bd97000905550042d5de00888555003c
:101d3000c2ddde000a0178008b0f5500010036007d
:101d40000b0178004211dd0088007800090078005e
:101d500014000700888f54000e0031004255dd004a
:101d60000a854400880f55000a0036000804550013
:101d700042c4de004244dd0008844400c0ae80005e
:101d8000d1ae8000008cbe00020037000800780051
:101d900001003700090078004f05be004f04be0067
:101da000000006008001780002003700b159780079
:101db0000201e9000200e000fcff3a00000006001a
:101dc0008001780002003700815978000201e900a3
:101dd0000200e000fcff3a0000000600000178006d
:101de00082017800030178003204e000fcff3a0031
:101df00031417800825978000204e000fcff3a008b
:101e000000000600800078003104e000feff3a0088
:101e10000080ea000080400000000600889fbe00ad
:101e20000004be000b00370009007800f5ff070032
:101e3000000178000800be00230307000000e00056
:101e4000090032000800e8009900fb0009000700c3
:101e5000000478000800e000030032001804e000ed
:101e6000f1ff3a000004eb00080078004f04be00c8
:101e7000000006000001eb006103b8006112b80029
:101e80008601420066427a00814f5200040032000f
:101e90000201e8000404e000f7ff3a008001eb00d3
:101ea00003007800000006000c00fa00889fbe00c6
:101eb00000047800f0ff2700d0bf9f008004eb00f3
:101ec00099bf9f0088bf9f00a8bf9f00200c2000e3
:101ed000b0bf9f0078815700cfb097007080570047
:101ee000100007000fb89700094878008fb89700d6
:101ef000088050004f04be000080fa000000060079
:101f0000d0019000028151004240a900030034003a
:101f100010017800014978000208e800010078000b
:101f200000000600f6874700889fbe008a9fbe001b
:101f30008c9fbe008e1f780000057800a1b79f001f
:101f4000020778008004eb0090023700afb09700e2
:101f50008100e800a1b79f0051c2b300814f50003b
:101f600003003a00afb097000004eb001100370007
:101f7000ba0090000000fb000168a30007003200d7
:101f800009017800800078000a007800dcff070073
:101f90000000e00005003a007c0237008a0078006b
:101fa00086020700e10f4000780232008904e80051
:101fb000760237000100780031417800d3c2b300c7
:101fc000834f51000c00320007003c00edc151006e
:101fd000834f51000a003200ebc14100834f510092
:101fe0000d003a000800370003c3b300834f5100cf
:101ff00009003a00060037000830a000edff370066
:102000000800a000ebff37000810a000e9ff370030
:102010000820a000e7ff37000818a30001003200e5
:102020000800a1000838a300010032000820a10028
:102030008200fb000103b100e98f50000c003e005c
:10204000000178008000eb006a08b900b201fb00d3
:102050000303b10080804100020078009201fb0080
:102060000303b100e98f5100f7ff36000600370087
:102070008000eb00a3c2b300834f510002003a007e
:10208000ce0078000000e8008005eb00e2c2b3005b
:10209000904f110009003a0008e0a000644151008f
:1020a000d04f1100030032000001780001027800d7
:1020b00006003700ce0578000000e8000001780037
:1020c000090037006a58b900808541000200780095
:1020d000b201fb000303b100e98f5100f9ff3600a4
:1020e00084007800f5ff370032407800a2b79f00e7
:1020f000c3c6b300834f5000250032000f003c00e0
:1021000032c6b300824f50008800320004003c0009
:102110000004e000220232006b4151000f00370042
:1021200042c6b300824f50001700320065414100a3
:10213000824f500094003a001300370032c7b300ba
:10214000824f50001b00320007003c0064415100e8
:10215000824f5000100032000241e800824f5000d0
:1021600089003a000f00370052c7b300824f500079
:102170008a00320063414100824f500082003a00e1
:10218000e0df9f0009003700e0df9f008500370097
:102190000840a000d4ff3700e0df9f000860a000e7
:1021a00080003700e0df9f000850a0000870a0000a
:1021b0007c003700e0df9f004e00780000067800ca
:1021c0000000e00001003a00ec4e21000c01780014
:1021d0000000eb00010037000000e800e241780059
:1021e0000304e000fcff3a00800678000b00e000ea
:1021f000030032008d8f5500010031008b067800fe
:102200008005eb008d8f5000010036008d85500059
:10221000680464002a003a00110037003a00900078
:102220000068a300070032000901780001022000c5
:102230000a00780032ff07000000e00006003a00c4
:10224000060037008a00780000022000db0107004a
:10225000e10f4000010032008904e8008b05e9002d
:102260000b00e000edff3a008085eb001400370022
:102270003a0090000068a300090032000c007800ca
:10228000b000fb0000067800090178000a00780021
:102290001bff07000000e00008003a0008003700bc
:1022a0008c0078003100fb00010678008a0078007d
:1022b000c2010700e10f4000010032008904e8007c
:1022c0000d0078008006e9000000e000e8ff3a0019
:1022d0000800e000ad013200110037003a00900024
:1022e0000068a30007003200090178000102200005
:1022f0000a00780002ff07000000e00006003a0034
:10230000060037008a00780000022000ab010700b9
:10231000e10f4000010032008904e8008b05e9006c
:102320000b00e000edff3a00980137004e01780005
:10233000cf91de00c81ade004818dd004812de002a
:1023400004027000e4df9f000848a3000800320088
:102350000404e00006003200e14f420004003200b5
:10236000f4df9f0082e79f002d002000020037006d
:10237000f2df9f001d002000e2fd2f000f01410051
:102380000206e80099ff3700e0df9f00ecfd2f0018
:102390000f0646001d00200094ff3700e0df9f007d
:1023a000080cb30008017800020cb2007000640051
:1023b0000200e0000d003a000000e00002003200e0
:1023c0004e06be00020037004e067800cfe6de0063
:1023d000e00f5600e08f5e000a003d003800b300b9
:1023e00060061600e0861e00060037000000e000d0
:1023f000020032004e06be00020037004e06780092
:102400008006eb000b00e00005003a008c857600aa
:102410000bf0a7008b05ea008b05e900cf5dde001d
:1024200088017800030cb200e3b79f00000420008d
:10243000808f51002300320003003c000300e000c5
:10244000080032002d003700000820006fb297000e
:10245000800f52000d003200000c2000800f52004f
:1024600026003a00624f210010c0b3006401410011
:10247000b20f5600a28f5e001f0039000040e80036
:10248000ea4f5000f9ff3a001b00370010c0b300bc
:102490000201200003002000820f5600838f5e009f
:1024a00015003900441add00cc11de0083017200f2
:1024b0004411dd000040e800e84f5000f6ff3a000c
:1024c0000d00370010c0b300820020000300200080
:1024d000820f5600838f5e0007003900431add002b
:1024e000cd11de00830172004311dd000040e800e1
:1024f000eb4f5000f6ff3a00e0df9f006fd99700e6
:102500000200fb008b0f500002003d00ebdf9f003c
:1025100003003700808f550001003d0080057800e2
:102520000100e0000300320063006400010032009b
:102530008100e90008e8a300050032008b8f5000fd
:10254000020034008b805000010037008000eb0057
:10255000efd997000300fb000002eb00d4b79f0007
:10256000808f50000200340000805000d0b79f00e0
:102570000828a30040003200610164000818a3008d
:102580000f0032003a0090000068a30006003200fd
:10259000b10220000200e000010032008180e8006a
:1025a000090178000d003700b00220000200e000b1
:1025b000010032000080e8008a0078000e00370039
:1025c0000200e000100032003a0090000068a30012
:1025d0000700320009017800010220000a0078009b
:1025e00047fe07000000e00006003a000600370042
:1025f0008a00780000022000f0000700e10f400090
:10260000010032008904e8005fb097000000e0009c
:102610005a003200bcb79f00cdb79f0080067800fb
:102620003a0090000068a30007003200090178001a
:10263000010320000a00780031fe07000000e000de
:1026400006003a00060037008a00780000032000e8
:10265000da000700e10f4000010032008904e800c1
:102660008d06e900eeff3a00ddb79f003fb6970008
:10267000cfb6970041003700dfb197000300e000bc
:102680001a0032000838a30018003a00bcb79f00b7
:10269000cdb79f00830678003a0090000068a30041
:1026a0000700320009017800010220000a007800ca
:1026b00013fe07000000e00006003a0006003700a5
:1026c0008a00780000022000bc000700e10f4000f3
:1026d000010032008904e8008d06e900eeff3a00af
:1026e000ddb79f003fb69700cfb697006101640049
:1026f0000818a3000f0032003a0090000068a30001
:1027000006003200b10220000200e00001003200a9
:102710008180e800090178000d003700b002200038
:102720000200e000010032000080e8008a0078002a
:102730000e0037000200e000100032003a00900066
:102740000068a300070032000901780001022000a0
:102750000a007800eafd07000000e00006003a00e9
:10276000060037008a00780000022000930007006e
:10277000e10f4000010032008904e8000b03e9008a
:102780006330b90000017800b2b79f004233dd002a
:10279000604f2100000343008e01780093b79f0033
:1027a00008077800060478005c0037008b05e90014
:1027b000000420006fb29700800f520038003200f2
:1027c00003003c000400e000080032003e00370037
:1027d00000082000efb09700808f500020003200ea
:1027e000000c2000808f500037003a000e48a300f4
:1027f000100032001802be000401be000c00be0032
:10280000f4b79f0085bf9f0015fb0700e0df9f0026
:102810000000fb00cf80de007fb297008fba9700e8
:102820000401be00f80007000006560081865e0025
:102830000700370018017800110009000286d8004f
:10284000a2002000110009000280d800e1df9f00f3
:102850006fd997000243b000e2df9f001a003700f3
:10286000d04d21000e58a30001003200c04c2100c1
:10287000614f2100810054000c01be008100e9007d
:10288000030033008301d1000281d300fbff370036
:10289000ef006100e0c07800e1df9f000a00370030
:1028a0000c00be00bfb197008301e90003003300b4
:1028b0008100d1000080d300fbff3700674060003b
:1028c0000043b000e0df9f00ba0090006fda97008d
:1028d0000400fb000168a300070032000901780032
:1028e000800078000a00780085fd07000000e00005
:1028f00005003a00050037008a0078002f00070025
:10290000e10f4000010032008904e8003fb0970069
:1029100063005000b0b79f00640454000b00e00057
:10292000a2ff3a000e0478001fb797000838a300f2
:1029300016003200dfb097000100e0001300340001
:10294000010478003a0090000068a30007003200fc
:1029500009017800010220000a00780068fd0700e4
:102960000000e00006003a00060037008a00780008
:102970000002200011000700e10f400001003200ba
:102980008904e8000804e900eeff3a002fb197003f
:1029900012407800e0df9f000004e0006bfd3a0089
:1029a000090078004f0778004f06be004f05be00b3
:1029b0004f04be006f01b10000000600889fbe00fa
:1029c00001047800b80090008084eb000118a30097
:1029d0003a003200180190000198a30002003a006a
:1029e0000200e00035003a000190a0003104980098
:1029f00080047800f90fb2000200e00002003a0003
:102a000028009000000c7800ea8f540005003a007e
:102a10000178a30003003a0088007800d00020006d
:102a2000e6ff070018009000d8009000810f5000ca
:102a30000b0032000000e800100498001800780035
:102a400009487800000ce80011c0b300c05d210007
:102a500001487800ea8f540018003a00050037005a
:102a6000880078000940780026000700800478007c
:102a700012003700380090000088a3000f003200d9
:102a800018019000a800900048009000f1f707009e
:102a900098009000810f5000040032003800900030
:102aa0000003b300300498008084eb000000eb00ca
:102ab0001004980028009000000c780009007800ad
:102ac0004f04be00000006000a003700b041780045
:102ad0000304e000030032000201e900b1cf51001d
:102ae000040032008381fb001480fb000080510051
:102af00000000600010278000200e000f3ff3a0047
:102b0000000005000200fa00889fbe00a0ff9f00a1
:102b100001047800380090000068a30033003a00f8
:102b2000e200600005003a000003b30030049800a2
:102b3000110498000080eb002e003700d8049000ac
:102b40000900e00006003a0012002000e68057006d
:102b500048009000bff707001904980023003700d1
:102b6000a80090000100e00008003a00f15d21009b
:102b700021049800010c78002100200051049800e5
:102b8000110498000030a000300498001801900053
:102b9000a800900048009000aef7070028009000c1
:102ba0008080eb0011049800aff89700014878008e
:102bb000000ce8002ff89700ea4f50000b003a0095
:102bc000380090000088a30008003200180190002f
:102bd000a8009000480090009ef707000000eb005e
:102be00010049800a8009000010c7800aff897003e
:102bf0000100fb004f04be000080fa000000060048
:102c000000c0da0000000600020ab900001bb9008b
:102c10000200b8008100420081004300000006006d
:020000040000fa
:102c20002575000000430000757200007265000009
:102c30006e740000204d00006f640000653a0000d3
:102c40002073000074610000727400007570000051
:102c50000043000075720000726500006e74000091
:102c6000204d00006f640000653a000020690000fc
:102c70006e74000065720000696d00000043000082
:102c800075720000726500006e740000204d000037
:102c90006f640000653a0000207300006369000063
:102ca000656e00006365000000430000757200005f
:102cb000726500006e740000204d00006f6400001b
:102cc000653a000020720000656500006e74000027
:102cd00072790000004100006c740000697400000b
:102ce00075640000653a0000202500007520000092
:102cf0006b6d0000005400006f740000616c0000f8
:102d000020720000756e0000746900006d6500009f
:102d10003a200000257500002068000020250000f2
:102d2000642000006d6900006e0a00005469000014
:102d30006d650000206f00006620000064610000e7
:102d4000793a000020250000643a00002564000064
:102d50002055000054430000004200006174000050
:102d600074650000727900002031000020430000eb
:102d70006861000072670000653a000020250000cd
:102d8000752000000a4200006174000074650000b4
:102d900072790000203200002043000068610000ca
:102da00072670000653a00002025000075200000d1
:102db0000a4200006174000074650000727900002e
:102dc00020310000205600006f6c0000746100008c
:102dd000676500003a20000025750000200a000009
:102de00042610000747400006572000079200000e8
:102df00032200000566f00006c7400006167000014
:102e0000653a000020250000752000000a420000fd
:102e100061740000746500007279000020310000c8
:102e20002043000075720000726500006e7400009f
:102e30003a20000025750000200a000042610000d1
:102e400074740000657200007920000032200000d8
:102e50004375000072720000656e0000743a000055
:102e600020250000752000000a4200007573000054
:102e7000732b0000205600006f6c0000746100008e
:102e8000676500003a20000025750000200a000058
:102e9000536f00006c610000722000005061000060
:102ea0006e6500006c20000031200000566f0000ad
:102eb0006c74000061670000653a00002025000086
:102ec000752000000a5300006f6c00006172000062
:102ed00020500000616e0000656c00002032000090
:102ee000205600006f6c00007461000067650000f0
:102ef0003a20000025750000200a0000536f0000f2
:102f00006c61000072200000506100006e650000de
:102f10006c20000033200000566f00006c7400002d
:102f200061670000653a0000202500007520000060
:102f30000a5300006f6c0000617200002050000016
:102f4000616e0000656c0000203400002056000017
:102f50006f6c000074610000676500003a2000009b
:102f600025750000200a0000536900006d70000004
:102f70006c65000078200000546500006d70000052
:102f80003a20000025750000200a0000447500006a
:102f9000706c00006578000020540000656d000032
:102fa000703a000020250000752000000a4500004e
:102fb0005053000020540000656d0000703a00007e
:102fc00020250000752000000a0a00004c50000077
:102fd00020540000656d0000703a000020250000bc
:102fe000752000000a4c00005020000043610000e2
:102ff0006c3a000020250000752c00002025000000
:10300000752c000020250000752c000020250000f4
:10301000752000000a4d0000616700006e65000029
:10302000746f00006d650000746500007220000080
:10303000783a000020250000752c0000207900005f
:103040003a200000257500002c2000007a3a00008c
:1030500020250000752000000a540000656d000066
:1030600070650000726100007475000072650000f8
:103070003a200000257500002c2000002575000076
:103080002c200000257500002c2000002575000074
:103090002c200000257500002c2000002575000064
:1030a0002c200000257500002c2000002575000054
:1030b000004500004f4600000a0000000500000027
:1030c000d007000004000000030000000200000020
:1030d000475500000400000050520000313100004c
:1030e0003100000052520000313100003100000078
:1030f0000652000031310000315000005033000012
:10310000333300000052000050330000333300001e
:103110000050000043340000303100000050000037
:1031200043340000303300000000000007000000be
:1031300003000000050000000b0000002700000055
:1031400025730000256900002e64000061740000f2
:103150000044000061740000613000003030000065
:10316000302e000064610000740000002573000030
:10317000253000003369000025300000366900006a
:1031800025730000003000002d34000035330000ae
:103190003232000031000000534d000053000000a7
:1031a00010000000110000000200000003000000f9
:1031b00004000000050000000600000007000000f9
:1031c00008000000090000000a0000000b000000d9
:1031d0000c0000000d0000000e0000000f000000b9
:1031e0001000000066e600009919000033f30000ab
:1031f000cd0c00002447000050470000474100006c
:083200000000000004000000c2
:020000040000fa
:103208000000fa00418f20009140780000c0eb00d8
:1032180000c068000080fb000000e9004f00de00ed
:10322800004078000080fa00000006000000fa0064
:10323800418f20009140780000c0eb0000c068007a
:103248000080fb000000e9004f00de00004078002d
:103258000080fa00000006000000fa00318f20000c
:103268009140780000c0eb0000c068000080fb00bf
:103278000000e9004f00de00004078000080fa00fe
:10328800000006000000fa00518f200091407800ed
:1032980000c0eb0000c068000080fb000000e900ef
:1032a8004f00de00004078000080fa0000000600b1
:1032b8000000fa00418520009140780000c0eb0032
:1032c80000c068000080fb000000e9004f00de003d
:1032d800004078000080fa00000006000600fa00ae
:1032e800100798002107980048c8bf000004e000b4
:1032f800fdff3a000000eb00000f780011003700d6
:103308005142800060428000008040001e00400062
:103318008000780000c384000001780011000900d3
:103328008280d8008000fd009e0078001e01900079
:10333800810041001141780041912000827078009d
:103348001e0fe8009e0078002e009000808f50002d
:10335800ebff390060428000800078002e0090006a
:1033680000804000604288001e0090003ffa07007d
:103378000080fa00000006001000fa00889fbe00d6
:103388004007980051079800620798007307980053
:103398000f0478000f00780080047800f0c28400e1
:1033a800800078007e0090000080400010079800a0
:1033b8001e0090008000e900210798000000e80046
:1033c8000000e8000000d100800040000f007800f5
:1033d800818747000000e8000000d100000040009d
:1033e800300798004e009000601a0700be00900059
:1033f800804878005e0090004800de008040780039
:103408003e009000114098005e00900080407800d7
:103418003e009000214098007e0090004800de00a9
:10342800804078003e009000314098007e00900077
:10343800804078003e009000414098000000eb007a
:10344800000f780009003700f0c284001e00400019
:103458009e0078006e0190008100410011417800c3
:10346800be009000827078001e0fe8009e00780071
:103478007e009000808f5000f3ff3900f0c2840076
:10348800800078007e009000808040003e00900020
:1034980092ff07001e0078008907780088077800e7
:1034a8004f04be000080fa00000006000400fa0085
:1034b80048c8bf000004a2000004e0002b0032004e
:1034c800604280000000e000280034005f1a070016
:1034d800000f78009e030700100798001e00780070
:1034e8000000e0001b00320081428000c0c484005c
:1034f800808f500017003d006dff07000004e000ba
:1035080014003200d0c48400800078001e009000af
:10351800808f50000f00360053c8bf000004a2007f
:103528000004e00004003200804280000000e8004f
:10353800804288000d003700604280001e0178003c
:103548008000780040912000b30007005028ef0069
:1035580006003700604280000001eb008000780020
:1035680040912000ac0007005028ef000080fa00ce
:10357800000006000400fa00004f780011079800c8
:103588001e009000e10f500008003200e10f5000cb
:1035980003003900e40f500007003200090037002b
:1035a8001e407800791d0700060037001e4078008d
:1035b800b11d0700030037001e407800361e0700c3
:1035c800000000000080fa00000006000400fa0075
:1035d800100798001e009000e10f50001200320002
:1035e800e10f500005003900e30f500019003200c8
:1035f800e40f5000190032001a0037004e68ef003f
:103608003b1d0700004f78004ec8bf000004a20011
:103618000004e000020032001e407800120037006b
:103628000040eb00100037005268ef00711d0700e2
:103638001047980052c8bf000004a2000004e00030
:10364800020032001e409000070037000040eb00e7
:1036580005003700bc15070003003700ff1d0700f1
:103668000100370000c0eb000080fa0000000600ef
:103678000400fa00100798000000eb00000f780023
:103688000a0037001e0078009e009000008040006d
:10369800104078008000eb00b6ff0700a000200073
:1036a800010020008b1807001e0fe80010c38400db
:1036b8009e007800808f5000f2ff35000080fa00ed
:1036c800000006000a00fa00300798004107980039
:1036d800e1c4840030c384000080500010079800c3
:1036e8009e0090004e009000008040004800de00e0
:1036f800404798001e009000804078004e009000df
:103708000040780000c04000504798000000eb00df
:10371800000f78003a0037001e007800e20f5000d2
:103728001a003200e20f500005003c000000e000e3
:103738000a003200e10f50000e003200230037006b
:10374800e40f500019003200e40f50001300350058
:10375800e50f5000190032001c0037008086290050
:103768001e004000104078001100200081ff070073
:1037780022003700808629001e0040001040780093
:10378800110020007bff07001c00370011002000fb
:103798000040eb0077ff07001800370011002000f9
:1037a8000040eb0073ff07001400370011002000f1
:1037b8004e4090006fff07001000370011002000f6
:1037c8005e4090006bff07000c0037009e007800f9
:1037d8006000200000017800110009008200d80074
:1037e8008000fd00be00900000804000104078007e
:1037f800110020005fff0700000000001e0fe80016
:10380800e0c484009e007800808f5000c2ff35001d
:103818000080fa00000006001200fa005007980025
:1038280061079800720798000040eb00004f78008d
:1038380010c0b30048e8b7008c0037005042800041
:10384800de009000008040009040780041479800da
:10385800504280000000e8008000780000c3840027
:1038680000017800110009008280d8008000fd0066
:10387800de00900000804000904178005347980097
:10388800504280000080e8008000780000c3840077
:1038980000017800110009008280d8008000fd0036
:1038a800de00900000804000904178006347980057
:1038b80050428000630040008000780000c384000c
:1038c80000017800110009008280d8008000fd0006
:1038d800de00900000804000104078000080fb006f
:1038e8004800dd00000f980050428000640040004e
:1038f8000001780000c384008001780011000900ed
:103908000381d8008000fd005e01900000004100a6
:10391800104078000080fb008e08900001007000c5
:103928001007980000c384009e009000808f50000c
:103938000d00360010c0b300004f780000c38400ab
:103948000001eb0080007800409120002418070057
:103958004a28ef004c28ef000000eb0060079800b1
:103968000000eb0010079800ce4090005e409000e9
:1039780000c04000704798006e419000024f9800c8
:103988001e4078000004a2000004e0003700320066
:10399800ec0107000004a2000004e000330032003c
:1039a8007e009000e10f50000b003200e10f500044
:1039b80003003900e20f50000d0032001b003700f1
:1039c8009e0190000e499000fe4090005e0090001d
:1039d8002c000700150037009e0190000e4990004a
:1039e800fe4090005e009000a50007000f00370021
:1039f8009e0190000e499000fe4090005e009000ed
:103a08009f0007000004a2000004e0000600320046
:103a18009e0190000e499000fe4090005e009000cc
:103a2800180007000100370000000000f0c2840001
:103a3800ee00900000805000800078001e0090008a
:103a4800808f500007003200f0c28400ee00900022
:103a580000805000800078001e0090000080500018
:103a6800010037000000eb00600798006e0090002e
:103a78000000e00071ff3c004868ef000080fa0099
:103a8800000006000c00fa0030079800014f98006b
:103a9800124f98005307980051428000f0c28400ea
:103aa800010178008000780040912000cc170700c1
:103ab80051428000f0c284000080400080007800fd
:103ac80000c3840000017800110009008280d8003a
:103ad8008000fd005042880061428000f0c28400ee
:103ae800008050000000e00001003d000000eb00f5
:103af800604288000000eb00000f78005a00370091
:103b0800000000008f0107000004e000fdff3a00fc
:103b1800e0512100d6fe07008000eb000e4890001f
:103b280094fe07008000eb001e48900091fe0700fd
:103b38000000eb00bb1807000080fb000080e900d4
:103b4800200798000000eb00100798001b003700c2
:103b58009e0090001e0078005e0190000000510059
:103b6800808f5000040039008000eb000040eb001b
:103b780080fe07000e003700514280001e009000b2
:103b8800008040008000780000c3840000017800b5
:103b9800110009008280d8008000fd00be0090005e
:103ba80000804000104078008000eb0071fe0700a4
:103bb8001e0090000000e800100798009e0090008a
:103bc8002e009000808f5000e1ff39000000eb00cc
:103bd800000107000004e000230032005242800088
:103be8001e007800de00900000805000ae009000bb
:103bf800810f500001003600010078008000780035
:103c080040912000761707001e007800de00900023
:103c1800008050009e009000810f50000100360087
:103c280001007800514280008100400000c38400f8
:103c380000017800110009008280d8008000fd0092
:103c480050428800614280001e00900000805000b1
:103c58000000e00001003d000000eb006042880029
:103c68001e0090001e0f40009e0078005e0090002d
:103c7800808f5000a2ff39000080fa000000060083
:103c88002a04fa004442200004024700000a78008f
:103c98006042200000004700014878007042200080
:103ca80000004700024878008042200000004700da
:103cb8000308780000000000220107000004e0006b
:103cc800fdff3a008000eb00d08729007dfe070049
:103cd80010002000bf0007000004e000ba00320016
:103ce8008e007800c103b000f30109008018eb00d2
:103cf8006a014700180009000019eb008042200003
:103d08000000470090007800658040003007980068
:103d18003e019000604220008000470000cfb300c1
:103d2800914060006a00470011010700be00900042
:103d3800010040006b004000100798001e00900032
:103d480061006000004078000004e00003003200d9
:103d58001e0090000000e800100798000000eb002b
:103d680020079800c10320008e8040002e0090009c
:103d7800008040008040eb00014878002e00900051
:103d88000000e80020079800c10320008e80400052
:103d98002e009000008040008040eb000148780031
:103da8002e0090000000e800200798001e009000f8
:103db8004800de0080407800c20320000e01410068
:103dc8002e00900000004100014878002e0090006d
:103dd8000000e800200798001e009000804078004e
:103de800c20320000e0141002e0090000000410097
:103df800014878002e0090000000e8002007980095
:103e080030882900c10320008e8040005400200023
:103e1800ae0190000001eb0057170700ae009000bc
:103e280000804000200798006a004700f3f7070069
:103e3800000178006a004700c10320008e8040001e
:103e480002027800ae0190000001eb004a1707005b
:103e5800ae0090000080400020079800514280008a
:103e6800c00320000e0040004242200082024700aa
:103e78003e029000ae0190000101780080007800b9
:103e8800150078003c170700ae0090000080400045
:103e9800200798002e009000610060000040780024
:103ea8000004e00009003200c10320008e804000b9
:103eb8002e009000008040008040eb000148780010
:103ec8002e0090000000e80020079800c0032000a2
:103ed8000e0040000001eb00ae009000bc1a070085
:103ee80040079800808629001040780011002000c3
:103ef800a0fd0700908629001040780011002000de
:103f08009cfd07000000eb00000f78000700370059
:103f1800c00320000e0040001e0040001040780042
:103f28001100200093fd07001e0fe8002e009000ee
:103f38009e007800808f5000f5ff35004e009000fd
:103f48004800de00004078001100200089fd0700cd
:103f58004e009000004078001100200085fd070009
:103f6800100020001b0007000004e00016003200cb
:103f78005042800000017800be009000409120006f
:103f880097160700514280003e00900000804000d4
:103f98008000780000c38400000178001100090047
:103fa8008280d8008000fd00504288006142800075
:103fb8003e009000008050000000e00001003d003d
:103fc8000000eb006042880010c0b3000080fa00d7
:103fd800000006000600fa002007980010c0b30091
:103fe800204798002e0090000000e00008003200f2
:103ff800e10f5000220032004f0037004ec8bf00ca
:104008000004e0000300320010c0b3004b0037008a
:10401800000000002e0090006cfd0700a1cab3004c
:10402800814f5000f5ff3a00050037004ec8bf0029
:104038000004e0000200320010c0b3003f00370067
:104048002e00900061fd0700e54f5000f7ff3a0091
:104058002e0090005dfd07000080fb000000e900d5
:104068004f00de00204798003300370052c8bf00d9
:104078000004e000030032000040eb002f0037008e
:10408800000000002e00900050fd070071c4b3002e
:10409800814f5000f5ff3a000500370052c8bf00b5
:1040a8000004e000020032000040eb00230037006b
:1040b8002e00900045fd070051c5b300814f500008
:1040c800f6ff3a000000eb00000f78000f00370001
:1040d8001e007800e40f500008003a002e009000ff
:1040e8003afd070060c0b2000080fb000000e90054
:1040f8004f00de0020479800030037002e00900094
:1041080032fd0700000000001e0fe800e1c4840033
:1041180030c38400008050009e0f5000ecff3c002c
:1041280052c8bf000004e000020032000040eb006b
:1041380002003700000000002e4090000080fa00c6
:10414800000006000000fa00d01680004a00de00d9
:10415800614060008080fb0010c0b3000100e000f7
:1041680001003c000040eb000080fa00000006005f
:104178002400fa00700f9800016798001217980041
:10418800308c2900e100470008000900b058780089
:104198009000b100ea004700090009008018eb0010
:1041a8000e6090000080fb0001032000810f50008a
:1041b8002a00320001032000810f500006003c0055
:1041c800f00f50000b00320001022000810f500058
:1041d800150032004700370001042000810f50000d
:1041e8002b00320001052000810f500035003200fd
:1041f8004000370040478000800078000000e80059
:10420800404788006a004700811f7800215221003a
:10421800811f7800018a2900811f780020f7070094
:10422800e687570038003700504780008000780044
:104238000000e800504788006a004700811f7800a6
:10424800a1522100811f7800018a2900811f78006e
:1042580013f70700e68757002b00370060478000f8
:10426800800078000000e800604788006a00470086
:10427800811f780021532100811f7800018a2900bd
:10428800811f780006f70700e68757001e003700f1
:1042980070478000800078000000e80070478800c0
:1042a8006a004700811f7800a1532100811f780010
:1042b800018a2900811f7800f9f60700e687570070
:1042c8001100370080478000800078000000e80077
:1042d800804788006a004700811f78002154210028
:1042e800811f7800018a2900811f7800ecf60700f9
:1042f800e68757006a004700d2002000918a29000b
:10430800a6f60700000000006a004700bbf6070099
:10431800004f78001e80fb00ea004700811f7800ec
:104328009e109000811f7800801f78000e00e80022
:10433800801f7800608b2900801f78007e0890001d
:10434800d7f60700ea8757000080fa000000060049
:104358000600fa008000eb00f0882900d9fc07006d
:10436800100020001bff07000004e00038003200a6
:104378000500370052c8bf000004e0000200320008
:10438800f00f200033003700100020008ffc0700da
:1043980071c4b300814f5000f6ff3a0005003700a2
:1043a80052c8bf000004e00002003200f00f2000f5
:1043b800280037001000200084fc070051c5b30016
:1043c800814f5000f6ff3a00d000200020079800e7
:1043d8000000eb00000f7800120037001e00780084
:1043e800eb0f500003003200ec0f500005003200c4
:1043f800080037001000200074fc070020479800d0
:10440800070037001000200070fc070030479800b4
:1044180003003700100020006cfc070000000000bb
:104428001e0fe8002e0090009e007800808f50003c
:10443800eaff35002e4090000080fb00c800dd0038
:104448003e4090000080fb00010070000100370032
:104458000080eb000080fa00000006001800fa0057
:1044680093fb07000004e0007a0032008000eb00b4
:104478009088290093fc070010002000d5fe070053
:104488000004e000730032000300370052c8bf0088
:104498000004e0006c003a00100020004bfc07000c
:1044a80071c4b300814f5000f8ff3a000300370091
:1044b80052c8bf000004e00065003a001000200068
:1044c80042fc070051c5b300814f5000f8ff3a0085
:1044d800d0002000100798000000eb00000f7800c3
:1044e8002d0037001e007800eb0f5000110032003d
:1044f800eb0f500003003c00ea0f500006003200aa
:1045080021003700ec0f500011003200ed0f500071
:10451800160032001c003700100020002bfc07009a
:104528000080fb008000eb004007980051079800ce
:10453800180037001000200024fc07000080fb0052
:104548008000eb00600798007107980011003700a1
:10455800100020001dfc07000080fb008000eb001d
:10456800000f9800110f98000a0037001000200073
:1045780016fc07000080fb008000eb00200f98006d
:10458800310f980003003700100020000ffc0700cf
:10459800000000001e0fe8001e0090009e0078003a
:1045a800808f5000cfff35002e089000be08900085
:1045b800c801dd00020020000e0890009e0890004f
:1045c800c000dd0000002000000171008181710041
:1045d8006e029000fe0290004828dd00c820de0030
:1045e800810070004820dd000001710081817100a8
:1045f8004e009000de009000000071008180710084
:1046080020079800310798002e009000be00900007
:1046180025f207000200200003042400b8f1070077
:10462800020020001356240074f207000200200044
:10463800031c240071f20700f7f10700f045880019
:104648000146880003003700000000000100370021
:10465800000000000080fa00000006000c00fa00cc
:10466800c08c2900e700470003000900b058780013
:104678004000b1000040eb00204798000cfb070009
:104688000004e000ec00320048c8bf000004a200ab
:104698000004e000ea0032008000eb00c086290038
:1046a80008fc0700100020004afe07000004e00094
:1046b800e50032000300370052c8bf000004e000e4
:1046c800e3003a0010002000c0fb070071c4b300eb
:1046d800814f5000f8ff3a000300370052c8bf006e
:1046e8000004e000dc003a0010002000b7fb0700df
:1046f80051c5b300814f5000f8ff3a00030037005e
:1047080052c8bf000004e000d5003a0010002000a5
:10471800aefb07000004e000f9ff3a000300370091
:1047280052c8bf000004e000cf003a00100020008b
:10473800a6fb07000004e000f9ff3a000300370079
:1047480052c8bf000004e000c9003a001000200071
:104758009efb07000004e000f9ff3a00100020006b
:104768009afb07000080fb000003b10020079800b7
:104778000300370052c8bf000004e000be003a0042
:104788001000200091fb07008080fb002087290093
:10479800104078000000fb00808f5000f5ff3a00c1
:1047a8000300370052c8bf000004e000b4003a001c
:1047b8001000200085fb07008080fb00308729005f
:1047c800104078000000fb00808f5000f5ff3a0091
:1047d8000300370052c8bf000004e000aa003a00f6
:1047e8001000200079fb07008080fb00408729002b
:1047f800104078000000fb00808f5000f5ff3a0061
:104808000300370052c8bf000004e000a0003a00cf
:10481800100020006dfb07008080fb0050872900f6
:10482800104078000000fb00808f5000f5ff3a0030
:104838000300370052c8bf000004e00096003a00a9
:104848001000200061fb07008080fb0060872900c2
:10485800104078000000fb00808f5000f5ff3a0000
:104868000000eb00000f7800030037001000200064
:1048780056fb07001e0fe8001e007800f00f5000de
:10488800faff34000300370052c8bf000004e000fc
:1048980083003a00100020004cfb07008080fb00da
:1048a8007e4090000000fb00808f5000f6ff3a0029
:1048b8000300370052c8bf000004e0007a003a0045
:1048c8001000200041fb07008080fb000e4890008c
:1048d8000000fb00808f5000f6ff3a00030037000d
:1048e80052c8bf000004e00071003a001000200028
:1048f80036fb07008080fb001e4890000000fb008c
:10490800808f5000f6ff3a000000eb00000f78009f
:1049180003003700100020002cfb07001e0fe800e2
:104928001e007800ed0f5000faff34001000200040
:1049380026fb070051c5b300814f5000020032002a
:1049480010c0b30020479800100020001ffb07008c
:10495800e1c4b300814f50000200320010c0b30020
:10496800204798001000200018fb070091c4b300ee
:10497800814f50000200320010c0b3002047980059
:104988001000200011fb070041c5b300814f500003
:104998000200320010c0b300204798001000200029
:1049a8000afb070051c4b300814f500002003200d7
:1049b80010c0b300204798000001eb00ae00900043
:1049c800400e21001b1407000000eb00000f7800c8
:1049d8000900370010002000fcfa07006047980023
:1049e8006e409000ef406000400e21001e00400025
:1049f800014878001e0fe8002e0090009e00780005
:104a0800808f5000f3ff35008000eb00808729007d
:104a18002cfb07002e4090000004a2000004e000d8
:104a2800250032002e00900080007800400e210002
:104a38004d09070021003700000000001f00370063
:104a4800000000001d003700000000001b003700b8
:104a580000000000190037000000000017003700b0
:104a680000000000150037000000000013003700a8
:104a78000000000011003700000000000f003700a0
:104a8800000000000d003700000000000b00370098
:104a98000000000009003700000000000700370090
:104aa8000000000005003700000000000300370088
:104ab8000000000001003700000000000080fa003c
:104ac800000006000c00fa00000000009dfd070031
:104ad8000004e000fdff3a0048c8bf000004a2003f
:104ae8000004e0002f003200a0542100e0fa070083
:104af800248f200014427800338f200093417800df
:104b0800428f200012417800518f20009140780098
:104b180054c8bf0015c0b300254798003447980013
:104b280024c0b300444798005347980033c0b300eb
:104b3800634798007247980042c0b300024f98003c
:104b4800114f980051c0b300214f9800304f980082
:104b58000000eb00000f78000d0037001e00780001
:104b6800e90f500006003c000e80e8001e004000df
:104b7800104078008000eb007efa07000300370041
:104b88008000eb000040eb007afa07001e0fe800f7
:104b9800200220009e007800808f5000efff340034
:104ba800020007000080fa00000006000200fa0078
:104bb800030037004ec8bf000004e00039013a0086
:104bc8000000eb0081fa070001c5b300814f5000d7
:104bd800f8ff3a00030037004ec8bf000004e000a9
:104be80032013a000000eb0078fa070001c5b30073
:104bf800814f5000f8ff3a00030037004ec8bf004d
:104c08000004e0002b013a000000eb006ffa0700f7
:104c180001c5b300814f5000f8ff3a000300370088
:104c28004ec8bf000004e00024013a000000eb0079
:104c380066fa0700eb4f5000f9ff3a000000eb005e
:104c4800000f7800120137001e0078006101b900da
:104c580090ff2f00f1ff2f000200400083804800e2
:104c6800f201200003002000820f5000838f5800bb
:104c780003013e00006001001f00370000013700fb
:104c880021003700240037002b003700310037009f
:104c9800380037003e003700450037004b0037002a
:104ca80052003700580037005f00370065003700b2
:104cb8006c00370072003700790037007f0037003a
:104cc800860037008c0037009300370099003700c2
:104cd800a0003700a6003700ad003700b30037004a
:104ce800ba003700c0003700c7003700cd003700d2
:104cf800d4003700da0037000000eb0033fa070071
:104d0800f5e8b700e10037000000eb002ffa0700d4
:104d180054e8b700dd0037000000eb002bfa07006d
:104d28000080fb00b0428800b04280004800dd00ef
:104d3800b0428800d50037000000eb0023fa0700d6
:104d48008080fb00b042800000804000b0428800b4
:104d5800ce0037000000eb001cfa07000080fb00c3
:104d6800c0428800c04280004800dd00c042880080
:104d7800c60037000000eb0014fa07008080fb0033
:104d8800c042800000804000c0428800bf00370059
:104d98000000eb000dfa07000080fb00d0428800fd
:104da800d04280004800dd00d0428800b7003700bc
:104db8000000eb0005fa07008080fb00d04280006d
:104dc80000804000d0428800b00037000000eb00af
:104dd800fef907000080fb00e0428800e042800006
:104de8004800dd00e0428800a80037000000eb0022
:104df800f6f907008080fb00e04280000080400058
:104e0800e0428800a10037000000eb00eff907003e
:104e18000080fb00f0428800f04280004800dd007e
:104e2800f0428800990037000000eb00e7f907001e
:104e38008080fb00f042800000804000f042880043
:104e4800920037000000eb00e0f907000080fb004b
:104e580000438800004380004800dd0000438800cc
:104e68008a0037000000eb00d8f907008080fb00bb
:104e78000043800000804000004388008300370022
:104e88000000eb00d1f907000080fb001043880008
:104e9800104380004800dd00104388007b00370085
:104ea8000000eb00c9f907008080fb001043800078
:104eb8000080400010438800740037000000eb00b9
:104ec800c2f907000080fb002043880020438000cf
:104ed8004800dd00204388006c0037000000eb002c
:104ee800baf907008080fb00204380000080400062
:104ef80020438800650037000000eb00b3f9070085
:104f08000080fb0030438800304380004800dd000b
:104f1800304388005d0037000000eb00abf9070064
:104f28008080fb00304380000080400030438800d0
:104f3800560037000000eb00a4f907000080fb00d2
:104f480040438800404380004800dd00404388001b
:104f58004e0037000000eb009cf907008080fb0042
:104f680040438000008040004043880047003700ed
:104f78000000eb0095f907000080fb005043880013
:104f8800504380004800dd00504388003f00370050
:104f98000000eb008df907008080fb005043800083
:104fa8000080400050438800380037000000eb00c4
:104fb80086f907000080fb0060438800604380009a
:104fc8004800dd0060438800300037000000eb0037
:104fd8007ef907008080fb0060438000008040006d
:104fe80060438800290037000000eb0077f90700cc
:104ff8000080fb0070438800704380004800dd009b
:1050080070438800210037000000eb006ff90700ab
:105018008080fb007043800000804000704388005f
:105028001a0037000000eb0068f907000080fb0059
:1050380080438800804380004800dd00804388006a
:10504800120037000000eb0060f907008080fb00c9
:105058008043800000804000804388000b003700b8
:105068000000eb0059f907000080fb000000ea008f
:105078004f00de000040780053e8b7000300370017
:105088000000eb0051f90700000000001e0fe800c7
:10509800f0c484009e007800808f5000eafe35003e
:1050a800070037000000000005003700000000007e
:1050b8000300370000000000010037000000000076
:1050c8000080fa00000006000200fa00004f780095
:1050d8001e4078000004e0000300320000c0eb002e
:1050e800f4e8b7000200370000c0eb00f4e8b700ae
:1050f8000080fa00000006000200fa00004f780065
:105108001e407800f0ff07000080fa00000006004b
:105118000200fa00004f78001e4078000004e0000a
:105128000300320000c0eb00f3e8b70002003700cc
:1051380000c0eb00f3e8b7000080fa0000000600aa
:105148000200fa00004f78001e4078000004e000da
:105158000300320000c0eb00f5e8b700010037009b
:10516800f568ef000080fa00000006000200fa006f
:10517800004f78001e4078000004e0000300320071
:1051880000c0eb0054e8b700010037005468ef0096
:105198004cfe07000080fa00000006000400fa0038
:1051a80036c8bf000004a2000004e0001e00320060
:1051b800c03d210091120700008fbe001e00be00f6
:1051c800e00f5000e08f5800170032008040800048
:1051d8009140800061004000e080480080408800e5
:1051e8009140880082408000934080001e00be00ed
:1051f800800f5100818f59000b00390000f807001b
:105208000004e00006003200f522a80010c0b30038
:1052180036e8b7001028ef001228ef000200370028
:1052280010c0b300a8ff07000080fa0000000600c5
:105238000000fa00a0408000b140800061004000fa
:10524800e0804800a0408800b1408800a24080006b
:10525800b3408000f047800001488000800f510073
:10526800818f59000400390010c0b3003ae8b70034
:10527800e4a2a800a10107000080fa0000000600cf
:105288000400fa00c04321005c120700008fbe0032
:105298001e00be00e00f5000e08f58001e003200d4
:1052a800c0408000d140800061004000e08048009c
:1052b800c0408800d1408800c2408000d3408000b0
:1052c8001e00be00800f5100818f5900030031007d
:1052d80039c8bf000004e0000d003200d3f7070012
:1052e8000004e0000700320010c0b30039e8b7003e
:1052f80010c0b30038e8b7001828ef001a28ef00ec
:105308000500370010c0b3007bff0700020037001c
:105318000040eb0078ff07000080fa00000006005c
:105328000400fa00c040210034120700008fbe00bc
:105338001e00be00e00f5000e08f58001800320039
:10534800e0408000f140800061004000e0804800bb
:10535800e0408800f1408800e2408000f34080008f
:105368001e00be00800f5100818f59000a003900cd
:10537800b9f707000004e00004003200a4020700a7
:105388001c28ef001e28ef000500370010c0b300ee
:105398005fff0700020037000040eb005cff0700da
:1053a8000080fa00000006000400fa00c046210050
:1053b80012120700008fbe001e00be00e00f500052
:1053c800e08f58001a00320000418000114180002f
:1053d80061004000e08048000041880011418800d9
:1053e80002418000134180001e00be00800f510062
:1053f800818f59000c003900a2f707000004e00073
:1054080006003200120220008000eb00b0312100bb
:1054180069f207009560a8000500370010c0b300c6
:1054280047ff0700020037000040eb0044ff070079
:105438000080fa00000006000400fa00c0492100bc
