:020000040000fa
:080000000002040000000000f2
:020000040000fa
:04000800fa040000f6
:020000040000fa
:04000c00f6020000f8
:020000040000fa
:0400100008030000e1
:020000040000fa
:04001400fe020000e8
:020000040000fa
:0400180010030000d1
:020000040000fa
:04001c00fa040000e2
:020000040000fa
:04002000fa040000de
:020000040000fa
:04002400fa040000da
:020000040000fa
:04002800fa040000d6
:020000040000fa
:04002c00fa040000d2
:020000040000fa
:04003000fa040000ce
:020000040000fa
:04003400a404000020
:020000040000fa
:04003800fa040000c6
:020000040000fa
:04003c00fa040000c2
:020000040000fa
:04004000fa040000be
:020000040000fa
:04004400c8020000ee
:020000040000fa
:040048001803000099
:020000040000fa
:04004c00fa040000b2
:020000040000fa
:04005000fa040000ae
:020000040000fa
:040054003a0400006a
:020000040000fa
:04005800e4030000bd
:020000040000fa
:04005c00fa040000a2
:020000040000fa
:04006000fa0400009e
:020000040000fa
:04006400fa0400009a
:020000040000fa
:04006800fa04000096
:020000040000fa
:04006c00fa04000092
:020000040000fa
:04007000fa0400008e
:020000040000fa
:04007400fa0400008a
:020000040000fa
:04007800fa04000086
:020000040000fa
:04007c00fa04000082
:020000040000fa
:04008000fa0400007e
:020000040000fa
:04008400fa0400007a
:020000040000fa
:04008800fa04000076
:020000040000fa
:04008c00fa04000072
:020000040000fa
:04009000fa0400006e
:020000040000fa
:040094006003000005
:020000040000fa
:040098009c030000c5
:020000040000fa
:04009c00fa04000062
:020000040000fa
:0400a000fa0400005e
:020000040000fa
:0400a400fa0400005a
:020000040000fa
:0400a800fa04000056
:020000040000fa
:0400ac00fa04000052
:020000040000fa
:0400b000fa0400004e
:020000040000fa
:0400b400fa0400004a
:020000040000fa
:0400b800fa04000046
:020000040000fa
:0400bc00fa04000042
:020000040000fa
:0400c000fa0400003e
:020000040000fa
:0400c400fa0400003a
:020000040000fa
:0400c800fa04000036
:020000040000fa
:0400cc00fa04000032
:020000040000fa
:0400d000fa0400002e
:020000040000fa
:0400d400fa0400002a
:020000040000fa
:0400d800fa04000026
:020000040000fa
:0400dc00fa04000022
:020000040000fa
:0400e000fa0400001e
:020000040000fa
:0400e400fa0400001a
:020000040000fa
:0400e800fa04000016
:020000040000fa
:0400ec00fa04000012
:020000040000fa
:0400f000fa0400000e
:020000040000fa
:0400f400fa0400000a
:020000040000fa
:0400f800fa04000006
:020000040000fa
:0400fc00fa04000002
:020000040000fa
:04010000fa040000fd
:020000040000fa
:04010400fa040000f9
:020000040000fa
:04010800fa040000f5
:020000040000fa
:04010c00fa040000f1
:020000040000fa
:04011000fa040000ed
:020000040000fa
:04011400fa040000e9
:020000040000fa
:04011800fa040000e5
:020000040000fa
:04011c00fa040000e1
:020000040000fa
:04012000fa040000dd
:020000040000fa
:04012400fa040000d9
:020000040000fa
:04012800fa040000d5
:020000040000fa
:04012c008e0400003d
:020000040000fa
:04013000fa040000cd
:020000040000fa
:04013400fa040000c9
:020000040000fa
:04013800fa040000c5
:020000040000fa
:04013c00fa040000c1
:020000040000fa
:04014000fa040000bd
:020000040000fa
:04014400fa040000b9
:020000040000fa
:04014800fa040000b5
:020000040000fa
:04014c00fa040000b1
:020000040000fa
:04015000fa040000ad
:020000040000fa
:04015400fa040000a9
:020000040000fa
:04015800fa040000a5
:020000040000fa
:04015c00fa040000a1
:020000040000fa
:04016000fa0400009d
:020000040000fa
:04016400fa04000099
:020000040000fa
:04016800fa04000095
:020000040000fa
:04016c00fa04000091
:020000040000fa
:04017000fa0400008d
:020000040000fa
:04017400fa04000089
:020000040000fa
:04017800fa04000085
:020000040000fa
:04017c00fa04000081
:020000040000fa
:04018000fa0400007d
:020000040000fa
:04018400fa04000079
:020000040000fa
:04018800fa04000075
:020000040000fa
:04018c00fa04000071
:020000040000fa
:04019000fa0400006d
:020000040000fa
:04019400fa04000069
:020000040000fa
:04019800fa04000065
:020000040000fa
:04019c00fa04000061
:020000040000fa
:04020800fa040000f4
:020000040000fa
:04020c00e204000008
:020000040000fa
:04021000e8040000fe
:020000040000fa
:04021400ee040000f4
:020000040000fa
:04021800f4040000ea
:020000040000fa
:04021c00fa040000e0
:020000040000fa
:04022000fa040000dc
:020000040000fa
:04022400fa040000d8
:020000040000fa
:04022800fa040000d4
:020000040000fa
:04022c00fa040000d0
:020000040000fa
:04023000fa040000cc
:020000040000fa
:04023400fa040000c8
:020000040000fa
:04023800fa040000c4
:020000040000fa
:04023c00fa040000c0
:020000040000fa
:04024000fa040000bc
:020000040000fa
:04024400fa040000b8
:020000040000fa
:04024800fa040000b4
:020000040000fa
:04024c00fa040000b0
:020000040000fa
:04025000fa040000ac
:020000040000fa
:04025400fa040000a8
:020000040000fa
:04025800fa040000a4
:020000040000fa
:04025c00fa040000a0
:020000040000fa
:04026000fa0400009c
:020000040000fa
:04026400fa04000098
:020000040000fa
:04026800fa04000094
:020000040000fa
:04026c00fa04000090
:020000040000fa
:04027000fa0400008c
:020000040000fa
:04027400fa04000088
:020000040000fa
:04027800fa04000084
:020000040000fa
:04027c00fa04000080
:020000040000fa
:04028000fa0400007c
:020000040000fa
:04028400fa04000078
:020000040000fa
:04028800fa04000074
:020000040000fa
:04028c00fa04000070
:020000040000fa
:04029000fa0400006c
:020000040000fa
:04029400fa04000068
:020000040000fa
:04029800fa04000064
:020000040000fa
:04029c00fa04000060
:020000040000fa
:0402a000fa0400005c
:020000040000fa
:0402a400fa04000058
:020000040000fa
:0402a800fa04000054
:020000040000fa
:0402ac00fa04000050
:020000040000fa
:0402b000fa0400004c
:020000040000fa
:0402b400fa04000048
:020000040000fa
:0402b800fa04000044
:020000040000fa
:0402bc00fa04000040
:020000040000fa
:0402c000fa0400003c
:020000040000fa
:0402c400fa04000038
:020000040000fa
:0402c800fa04000034
:020000040000fa
:0402cc00fa04000030
:020000040000fa
:0402d000fa0400002c
:020000040000fa
:0402d400fa04000028
:020000040000fa
:0402d800fa04000024
:020000040000fa
:0402dc00fa04000020
:020000040000fa
:0402e000fa0400001c
:020000040000fa
:0402e400fa04000018
:020000040000fa
:0402e800fa04000014
:020000040000fa
:0402ec00fa04000010
:020000040000fa
:0402f000fa0400000c
:020000040000fa
:0402f400fa04000008
:020000040000fa
:0402f800fa04000004
:020000040000fa
:0402fc00fa04000000
:020000040000fa
:04030000fa040000fb
:020000040000fa
:04030400fa040000f7
:020000040000fa
:04030800fa040000f3
:020000040000fa
:04030c00fa040000ef
:020000040000fa
:04031000fa040000eb
:020000040000fa
:04031400fa040000e7
:020000040000fa
:04031800fa040000e3
:020000040000fa
:04031c00fa040000df
:020000040000fa
:04032000fa040000db
:020000040000fa
:04032400fa040000d7
:020000040000fa
:04032800fa040000d3
:020000040000fa
:04032c00fa040000cf
:020000040000fa
:04033000fa040000cb
:020000040000fa
:04033400fa040000c7
:020000040000fa
:04033800fa040000c3
:020000040000fa
:04033c00fa040000bf
:020000040000fa
:04034000fa040000bb
:020000040000fa
:04034400fa040000b7
:020000040000fa
:04034800fa040000b3
:020000040000fa
:04034c00fa040000af
:020000040000fa
:04035000fa040000ab
:020000040000fa
:04035400fa040000a7
:020000040000fa
:04035800fa040000a3
:020000040000fa
:04035c00fa0400009f
:020000040000fa
:04036000fa0400009b
:020000040000fa
:04036400fa04000097
:020000040000fa
:04036800fa04000093
:020000040000fa
:04036c00fa0400008f
:020000040000fa
:04037000fa0400008b
:020000040000fa
:04037400fa04000087
:020000040000fa
:04037800fa04000083
:020000040000fa
:04037c00fa0400007f
:020000040000fa
:04038000fa0400007b
:020000040000fa
:04038400fa04000077
:020000040000fa
:04038800fa04000073
:020000040000fa
:04038c00fa0400006f
:020000040000fa
:04039000fa0400006b
:020000040000fa
:04039400fa04000067
:020000040000fa
:04039800fa04000063
:020000040000fa
:04039c00fa0400005f
:020000040000fa
:100400004f9021000e7f24000e01880000000000a4
:10041000000020000000e000020032000001200087
:100420002002880014000700ce0107000000e00051
:1004300003003a00a0ae25000100200002003700b2
:100440000000200001002000810f70000100320038
:1004500014000700000020000000e000020032004d
:1004600000000200000000003870020000000000e0
:100470000040da000000fe004440a900e0432000f4
:100480000000e0000300320000002000a00188000e
:100490004440a800000006008a1f78008b1f7800e7
:1004a0000000060091018800800478000000eb0045
:1004b0001a003700e284440032a0b4009905ba0063
:1004c000e284440032a0b4009906ba00e2844400f9
:1004d00032a0b4000006eb00476fde00fd07b2005b
:1004e000636ce10003003a00ebff07000000eb0043
:1004f0000a003700606ce10004003a00005deb0088
:100500008b05e900fdff3e00040037006168e10053
:10051000010032000086eb000b00070019c7ba008b
:100520001905ba000e04e00003003a000a00e000da
:10053000e0ff3a0000000600fe07b2009e018800be
:100540008a047800f5ff3700395dba008b05e900b1
:100550000c003200295dba008b05e900080032006a
:100560000c00e00003003a00e284440032a0b40032
:10057000f5ff370019ddba008b05e900faff3a00f4
:100580008904e800e184440032a0b40000000600c1
:100590003600f800809fbe00829fbe00849fbe0090
:1005a000869fbe000000fa0046340700708f2100cd
:1005b000104078008040e800708f210001487800ea
:1005c000608f210011c0b3000148780084e0a900c9
:1005d0000080fa004f03be004f02be004f01be0074
:1005e0004f00be003600f900004006003600f8005b
:1005f0008020a9000000eb00923607003600f800ca
:10060000943607008040a900100020008d360700b6
:100610003600f8008060a90020002000893607001d
:100620003600f8008080a9003000200085360700e1
:100630003600f800809fbe00829fbe00849fbe00ef
:10064000869fbe00889fbe000000fa00c041800067
:100650000000e800c0418800c04180006104b9008a
:1006600040702100bf310700800f5400818f5c0073
:1006700002003900063507003828ef00908f21006e
:10068000104078008040e800908f210001487800f9
:10069000808f210011c0b300014878008500a900b7
:1006a0000080fa004f04be004f03be004f02be00a0
:1006b0004f01be004f00be003600f90000400600aa
:1006c0003600f800809fbe00829fbe00849fbe005f
:1006d000869fbe000000fa00e04880000000e800ad
:1006e000e0488800e04880000000e000020032009e
:1006f000453407001c29ef00b08f2100104078001e
:100700008040e800b08f210001487800a08f2100d0
:1007100011c0b300014878008760a9000080fa008a
:100720004f03be004f02be004f01be004f00be008f
:100730003600f900004006003600f800809fbe0039
:10074000829fbe00849fbe00869fbe000000fa000c
:1007500020178000620060000000e00001003a0005
:10076000e422a800a04880000000e800a04888001b
:10077000a1488000f0488000808f500002003900be
:10078000723407001429ef00d08f21001040780048
:100790008040e800d08f210001487800c08f210000
:1007a00011c0b300014878008780a9000080fa00da
:1007b0004f03be004f02be004f01be004f00be00ff
:1007c0003600f90000400600809fbe000000fa00dd
:1007d00051c6800000202000008060000000e00082
:1007e000020032009580a9001f0037008580a90013
:1007f0001800370040c68000104078000080fb00e1
:100800002011880040c680000000e80040c6880033
:1008100041c68000408d2100808f500002003a00c8
:10082000c08c210040c6880050c680000080a10016
:1008300050c6880041c6800030c68000808f5000be
:1008400004003a0050c680000090a00050c6880006
:10085000050037001111800000202000008060009a
:100860000000e000e3ff32000080fa004f00be000d
:1008700000400600809fbe000000fa00180037000c
:1008800010c6800031118000814078000148780056
:1008900010c680000000e80010c6880011c6800065
:1008a000c08d2100808f500002003a00408d210051
:1008b00010c6880050c680000010a10050c68800f5
:1008c00011c6800020c68000808f500004003a00ce
:1008d00050c680000000a00050c688000400370009
:1008e00010118000610060000000e000e4ff3a00a9
:1008f00010118000620060000000e0000100320082
:100900002222a90010c0b30051e8b7008560a900f9
:100910000080fa004f00be0000400600801f7800f3
:100920000000fa0010118000620060000000e0008a
:10093000010032002222a9008c20a9000080fa00c8
:100940004f007800004006003600f800809fbe008f
:10095000829fbe00849fbe00869fbe000000fa00fa
:10096000204980000000e8002049880021498000db
:1009700010498000808f500002003900fc320700cf
:100980002429ef00f08f2100104078008040e8001b
:10099000f08f210001487800e08f210011c0b300e2
:1009a000014878008460a9000080fa004f03be006f
:1009b0004f02be004f01be004f00be003600f900de
:1009c000004006000000fa008020a900ffff370069
:1009d0000000fa008060a900ffff37000000fa0065
:1009e0008040a900ffff37000000fa008080a900c6
:1009f000ffff37000000fa00ffff3700000178001a
:100a00001001e200030035001061a800000028007a
:100a10001021b70030088000410880000200e0008b
:100a2000010032000089be00000006000a00fa0042
:100a3000e20f50001f003e0000c88000e10f500090
:100a400006003200802320004523200023232000bd
:100a5000042320000000e00004003a00802220006f
:100a60004522200023222000042220000600280026
:100a70009403630002003a0007087800140a730028
:100a800013a8a30001003a0013a0a0000200780000
:100a9000050037001388a300feff32003102fb007f
:100aa000840a78000000e9000000e000f9ff3a0045
:100ab0000800370033002000b3bf9f00c0bf9f0075
:100ac000d1bf9f00e2bf9f006a805700f50b07006f
:100ad0006fb99700020078000080fa00000006005d
:100ae000889fbe008004780010c880000000e000ed
:100af00004003a000e0007000084eb000000e00054
:100b00000800350018c880000900e0000500320028
:100b100009004400060007000000e00001003d005d
:100b20000084eb00080078004f04be0000000600bf
:100b3000800078000100e00003003a00000020007f
:100b400010c88800000005000080eb0002002000b3
:100b5000828f500002003e0011c888000000eb00a8
:100b6000000006000000050003f0a200889fbe0000
:100b70008a9fbe008c1f78003a01070041013300b4
:100b80006450e1004f0032006420e1005200320066
:100b900003826c0007003b000905d0000306d0006b
:100ba000820f54000c065d00020039000200320082
:100bb00089017800030678008582550004003d0015
:100bc0000003fd008103fd008502ea008b854200e1
:100bd000840f720002003b0060001000e0801800eb
:100be0006011b8000005eb007a28e1000a00390026
:100bf00006007800c75ddd00f707b200878075004a
:100c00002d003700828171000a01780061056000c3
:100c10008180d1000080d3008502e900f9ff3b000c
:100c2000060440008784480002003b006004140072
:100c3000e0841c000988a300070032008a8171004b
:100c400082817100610164008904d1000884d300ad
:100c50008b05e800170037000978a30013003a005d
:100c60000b00e000130034008b05e9000804440089
:100c700089844c000a4474000978a3000d003a00ee
:100c80000b00e000070034008b05e9000804440075
:100c900089844c0001003a000b0020000978a30071
:100ca000f7ff32000001eb00020037008281710083
:100cb0000a017800b00007000cf0a70001f0a000c6
:100cc000f90037006420e10002003a00838f6c00d5
:100cd000f90033000801be000200be00f200370038
:100ce000889fbe008a9fbe008c1f7800dd00070031
:100cf000e400330003866c006450e1002e003200f3
:100d00006420e100330032006150e1002f00320026
:100d10006120e1003100320085855500eb07b0000d
:100d200009002000080420000500370008044400e2
:100d300089844c000a0031000603430087834b007e
:100d40000001530081815b00f8ff33000203be0005
:100d50000800a0000804440089844c00f6ff390014
:100d6000c639dd008301730001003200130020004a
:100d70008904d1000884d3000998a300050032003b
:100d80000800a7000300a0008904d1000884d30054
:100d90008b05e8008904d1000884d3000001eb0032
:100da0000281d2007400070001f0a1000cf0a7003e
:100db00001f0a000bc0037006420e100be0032005a
:100dc0000801be000200be00f7ff37006120e1000d
:100dd000b90032006000b800f3ff370000002000c7
:100de00001f82700f0ff3700810378008800070032
:100df0000001be006000b8000478a30013003a00b0
:100e00006220e10015003e000d0039008301d10091
:100e10000281d3008180d3008301d1000281d300fd
:100e20008180d3008301d1000281d3008180d3006f
:100e30000538b000c42add00f300b20083817200df
:100e400007f0a70003f0a00000000600f3ff270052
:100e5000f2ff2f006110b900fbff370003ff2700ee
:100e6000f7ff370014002000c1023700f4ff2f0005
:100e7000bf0237000001be00650007000470a70034
:100e800003f0a1006509b100160032000d00350025
:100e90006828e10006003500f0ff2f00f1ff270071
:100ea0000300e00013003b000100280000000500e3
:100eb00000004000818048008502e900fcff3a0004
:100ec00008003700f88f420002003c008000eb0071
:100ed000000005008100d1000080d3008502e800f9
:100ee000fcff3a000300e00002003b00600010003d
:100ef000e0801800000006000001be00440007006a
:100f00000470a70003f0a10003f8a30013003a0047
:100f10006509b10010003200090035006928e100c0
:100f2000020035000100280000000500000040001c
:100f3000818048008502e900fcff3a0000000600bd
:100f4000f88f4200050035008100d1000080d300f9
:100f50008502e800fcff3a00000006008000eb007c
:100f6000000005004f89de00820178009b023700f7
:100f70006011b800a902370081002000618055008f
:100f80000b003d000b00200061fe2f000100e1007e
:100f90001d00340082817100610164008904d10068
:100fa0000884d3000000e800faff3a007100200036
:100fb000610064000300700002006000090032005c
:100fc00061044400e0844c000988a500050032005b
:100fd0008b05e8006808e10002003a008904d100ae
:100fe0000884d300f20f20000258e10005003d0004
:100ff000c75ddd00f907b200898075000800780040
:10100000000006000bf827008b00780000000500a8
:10101000c70ade00f107b200f50fb2000800320087
:10102000e1cf4200020032000170a0002400050060
:10103000810f700001003200040805004400050023
:10104000810f700002003a00140005008502e900db
:101050000000400081c04800fcff3b000170a00080
:10106000240005000004be00e9ff07000003be00e5
:101070000405be000200be00e5ff0700844f7500b6
:10108000000006000200be006450e10005003600ca
:101090006420e100020036000968a30001003a0064
:1010a0000800be000160a0004f0678004f05be009a
:1010b0004f04be0000000600f0ff2f00f1ff2700e4
:1010c000f9ff3700889fbe008a9fbe008c1f780002
:1010d000e4ff0700ebff330003866c006450e1007f
:1010e000240032006420e100270032006150e1005a
:1010f000220032006120e100210032008b85420095
:10110000eb07b1000134b800003ab800080442000f
:1011100089844a00013ab8000030b8008880400055
:1011200009014a00040033000000400081804800ab
:10113000020149008b05e900c909dd008301700047
:101140000100320013002000c814de004814dd0046
:101150004709de001200b200c808de0008847000f3
:1011600085ff070001f0a1000cf0a70001f0a0002e
:10117000cdff37006120e100cfff32000801be0043
:101180000200be00f7ff37006150e100fcff3a00ab
:10119000c9ff37000c00fa00889fbe008a9fbe007e
:1011a0008c9fbe00afff07000206be0084057800da
:1011b0000200be0002002000c601070005003a0040
:1011c0008b02b30012002000c201070001003a00a8
:1011d000f8856d000c01be00c60007000800be00c7
:1011e0009b0032000b08a3009e003a000df0a70000
:1011f0000be0a00009f0a7000bf0a00009f0a1008f
:101200000801be00bb0007000bf0a60095003200ed
:1012100001003c000bd0a0008acf7500b200330063
:101220006000b8006250e10099003900a1003e0062
:101230000b28a300a2003a000bf8a300060032001e
:101240000b58a300a70032000801be00a900070048
:101250000800be00940032000800be00ee00070047
:101260000004be00050578000bf0a7000b30a600b7
:101270000bf0a1005b079800324f200053f32300ce
:10128000f8fe070005003d000800be001200200027
:10129000110207000004be000a05e9004a07980091
:1012a0006150b9002fff0700008fbe000c01be0087
:1012b00084ff0700effe0700300798000100e00000
:1012c00002003d0060001000e0801800f2ff2700df
:1012d000820f5000e08f580064003e000c00be00fa
:1012e000e4fe070020079800f2072000820f50005c
:1012f000e08f580005003c0012f82f00f3ff2f008c
:10130000820f5000838f580009003d000a00e00062
:101310000300320001003c000201ea0002057800ef
:101320006000b800200798003a07980019003700bd
:101330003e0090006100b9000aff0700809fbe00d8
:101340000c00be004109dd004811de007208b1004a
:10135000600107000005be001e01be0059ff070026
:101360004f01be0000fe0700809fbe000c00be00c3
:101370000a01be00fcfd07001e01be0051ff070070
:101380004f01be00f9fd07008221270013f323005f
:101390004cff07000005be002e0090006100b90060
:1013a000f0fe070001f0a2000c01be00effd0700f7
:1013b0000006be000800be00e90107000c01be00e7
:1013c00040ff07000a01be00e8fd0700809fbe0045
:1013d0004a0007002e0590000af0a7000a05ea005f
:1013e000050037000800be000801be0035ff0700f9
:1013f0000004be000c00be000801be000a00a700e9
:1014000030ff07000006be000a05d100f5ff3a00d4
:101410005e01900002e0a600030037000001be005c
:10142000360007002efe07000004be004f00be007d
:10143000c60007000801be0022ff07003e01900021
:10144000a5010700de0590000bf0a70001f0a20047
:101450004f06be004f05be004f04be000080fa00dc
:101460000000060025000700f9ff370027000700ed
:101470006000b8000bd0a7000bc0a0000be0a700d5
:101480000bc0a2000bc0a70001f82700f0ff370037
:101490000df8a300020032001e000700190007002b
:1014a0000bf8a300eaff32000b30a70001f0a20006
:1014b000e7ff37000df8a300f9ff3a00f7ff370008
:1014c0000801be000b000700e6ff320001003c00ef
:1014d0000df0a2006000b8000df0a70009000700a1
:1014e000dbff37000b000700f1ff2700f0ff2f00a4
:1014f000d7ff3700010007005afe370001f823002c
:101500000000050001f8270000000500200220006f
:10151000010037001002200030498800000006005a
:101520001400fa00889fbe008a9fbe008c9fbe00f8
:101530000005be000206be00680047000c90be0019
:101540000a90be00410007006400e1001a0032006a
:1015500016003e006100e1001a0032006e049000a7
:10156000fe0490000e0b90009e0b90006011b800de
:101570009e0590000b38b100d501200082817100da
:10158000610164008703d1000683d3008984d300fe
:101590000884d3008502e900f8ff3a0076fe0700d0
:1015a0000df0a70001f0a00063003700f1ff270055
:1015b000f0ff2f006000370001f827000000200036
:1015c000f7ff37006000b800f5ff37006022b80071
:1015d000060220000000d0008180d2000482d200e8
:1015e0008582d2000000a0000202520083825a00cd
:1015f000030031000202420083824a000000a10081
:101600000603e900f3ff3a0000000600efff0700c1
:101610000400be00000006000003be007cfe0700c0
:101620006220e100020032000600be000500050055
:10163000e507b100f107b20004f0230084807000d8
:1016400007f0a70001f0a00024000500800078004a
:101650005002be005003be004439de00f700b20065
:10166000f37f200003016100090032000218e1004d
:1016700016003a00850172008301730083817300b4
:101680000008200015003a00400020001300370039
:1016900085017200830173008381730005003a00a5
:1016a00004a8be0006a8be00100020000b003700f2
:1016b0000201e9000402420085824a0006034b0051
:1016c00087834b000748a300f9ff32000740a000c2
:1016d00004a8be0006a8be002000200080009800dc
:1016e0009200980000000600680447000294be00c3
:1016f0000094be00fc0447008694be008494be00a3
:1017000009007800d1ff070008007800cfff07002c
:1017100099007800814f70000b003b000800be006c
:10172000660107004f00b10003003700f3ff2700f8
:10173000f2ff2f006110b9004f06be004f05be003a
:101740004f04be000080fa0000000600889fbe0023
:101750008a9fbe008c9fbe000004be002cfe0700c6
:101760000800be006420e10048003e005500320041
:1017700072212700132b2400bcfd070047003c000a
:101780000800be00c2ec2800e32c2c00b5fd0700c9
:10179000470035000800be0001f0a1000200200053
:1017a00003382300affd0700430035000800be00ea
:1017b000b2a32a0083fb230042fe070002002000a0
:1017c00003f0230001f0a70003f0a000e7fc0700ee
:1017d000a8fd07000005be00e2fd070001f0a20021
:1017e0000006be000200280013f3230035fe0700a8
:1017f0000801be00ddfc0700809fbe000c00be009b
:1018000032082800e3952b002efe07004f01be0092
:10181000d6fc07000006be000001be0029fe07003e
:10182000809fbe004241250083b8230025fe0700ab
:101830000200200003e82300ccfc07000c01be00de
:1018400020fe07000006be004f00be00f2f92b008c
:10185000c3d423001bfe07000200200003f0230076
:10186000c2fc07000c01be00bffc07000001be0067
:101870000c00be001afd07000200200003f0230048
:10188000bafc070061014500930007004f06be0047
:101890004f05be004f04be000000060001f82700ff
:1018a000000020002202200032498800f7ff3700a4
:1018b0006000b800fbff370001f8230000002000a3
:1018c000f2ff370009f8a300f0ff32006000b80013
:1018d000eeff3700889fbe008a9fbe000003be0057
:1018e000cbfd0700850578008281520002002000b0
:1018f0006220e10004003a00f307b1000400350063
:101900007718e100040035000600be00140037001f
:101910006000b8000f003700f50f2000faff2f001d
:101920008502d1000a85d3008301e900fcff3b005a
:101930008184620000046500890f7400f2ff3200a8
:101940008582ea000a85ea0081846200000465005d
:1019500089fd070007f0a70001f0a0000081eb005f
:101960000200e0004f05be004f04be00000006006c
:10197000889fbe008a9fbe00841f7800b9fd0700c3
:101980004f00780011003300f0ff2f00838f6c00b0
:1019900006003b00040565000a00a70008003700a8
:1019a00009f0a6001000200008003700820f540044
:1019b000838f5c00030039001000200001003e000e
:1019c0000000200009f0a7000000ea004f05be005b
:1019d0004f04be000000e00000000600881f7800f1
:1019e000030478000300e00007003d0060001000e1
:1019f000e080180060011900e081190002003b003e
:101a000001f02d00030037000400070008f0a700d4
:101a100001f0a0004f04780000000600889fbe007f
:101a20008a9fbe000082700004027100048271006f
:101a3000260032000004be000200be006011b800a3
:101a40006b092000950220000182cf000a003900b6
:101a50000541b1000082cf00070039000541b10007
:101a60000982cf00040039000541b1000882cf008f
:101a7000010039000541b100054252001200320058
:101a80000a003b0082817100610164008100d10085
:101a90000080d3008984d3000884d3008b05e8003c
:101aa0000442e800f7ff3a0007003700080444004a
:101ab00089844c0000004800818048008b05e900c3
:101ac0000442e900f9ff3a002bfd07004f05be0074
:101ad0004f04be00000006000003be004cfd0700de
:101ae0006220e100020032000600be000000060095
:101af00085024100e30f20000328e10005003c00bf
:101b0000a3fe2f000328e10007003d000500200090
:101b100001003700f50f2000200220003049880026
:101b20006000b800080037001300200083815200d5
:101b300005003d008100d1000080d3008301e80052
:101b4000fcff3a0005002000c72add00f107b200c3
:101b50008580700007f0a70001f0a00000000600db
:101b6000889fbe008a9fbe008c9fbe00aafe070011
:101b7000850478000005be006420e10049003e00b5
:101b80006220e10003003200090035000bf8a300d9
:101b9000440032000bf8a3000800320010022000bd
:101ba00030498800f0ff2f00f1ff27003d0037008b
:101bb00001f82f00000020003a0037003d00070028
:101bc000e9fb07000006be000a00be00324f2000fd
:101bd00053f32300a5fc0700060034000c00be00f0
:101be00034000700e0fb07000006be000a00be004c
:101bf000020037008904e9000c00be002d00070038
:101c000030fd07002b000700d8fb07000001be00d5
:101c10000c00be0032fc07000005be000001be0043
:101c200028fd07000006be00a2f32300430d2c0090
:101c3000cefb0700809fbe000c00be00d2e3270051
:101c4000d3f02b001ffd07004f01be0024fc07004e
:101c50000006be000a01be001afd07000a01be0010
:101c6000c2fb07000006be006148b900bdfc0700ca
:101c70000005be0032082800e3952b0011fd070087
:101c80000c01be00b9fb07000006be000a00be0042
:101c90000200280013f323000afd07000c01be0018
:101ca000b2fb07004f06be004f05be004f04be004a
:101cb0000000060003f0230002000500e48240005b
:101cc0001078a30007003200640240001178a300de
:101cd0003400be001401be00040032000330a7002f
:101ce000000006003500be001501be000330a00054
:101cf00000000600889fbe008a9fbe008c9fbe0029
:101d0000c18d2100e2c680000200e0000b003a0015
:101d100064814000e2c6880032c78800a1009800b4
:101d200021c78800214190000204a000a240980031
:101d3000614190000204a000e24098006704400066
:101d40004244de004244dd0024c780000100200040
:101d500009002000818454002d002000110009009a
:101d60008d04d800800678000886e8000c0646003e
:101d70008001eb0002003700130020000b02780006
:101d8000a44090000108a300020032000a003700be
:101d9000120a780014017800a24090000108a30004
:101da000fbff320088004200810f51000200390021
:101db0000800e00042003d00940578000b00a100ff
:101dc000848f5500edff3e00e18f5100eaff3a009d
:101dd0008d0f540002003600890f540014003900a2
:101de0006141b8006148b900b4ff2f000500200030
:101df0000000520081805a00800f5100818f5900ed
:101e000002003500640544000a003700000020008d
:101e10003a002000000555000805450011000900a2
:101e20000985d8000980b900000578000100370055
:101e30000c0578000a00780029fb0700e10f40003c
:101e400005003a00640544000a00780024fb0700fe
:101e5000e10f40002b00320031c78000800878007d
:101e600031c78000e481400021419000830f500081
:101e7000020032000204a000010037000204a100a9
:101e8000a2409800640555000a0540000a08780041
:101e90003ac78800c18d2100010d780032c780004b
:101ea000a24090000104a00021419800a0409000b1
:101eb0000104a100214098008001eb00afff370032
:101ec00021c78800810f5100070036001101be00b4
:101ed00042c7880053c78800940878000041eb008f
:101ee00021c78000a240980023c78000030a780021
:101ef000a44090000104a000214298006400420028
:101f0000010037000000eb004f06be004f05be0089
:101f10004f04be00000006000000e0000800320090
:101f20006400500021c78000810f50000100310083
:101f300020c78800a04090000104a1002140980023
:101f400000000600889fbe008a9fbe000004be00fd
:101f50000900e00007003a000000eb000800e00084
:101f60003600320008007800ebff07000000eb00ad
:101f7000320037000800e00003003a000900780052
:101f80005cff07002d0037006400540090057800c6
:101f900068f897000008a3000200320008007800eb
:101fa000ddff07000900780052ff07008004780079
:101fb0000000eb000900e00020003200888f540090
:101fc0001b00320069bd97000905550042d5de00af
:101fd00088855500c2ddde000a0178008b0f5500b0
:101fe000010036000b0178004211dd008800780006
:101ff0000900780014000700888f54000e0031009b
:102000004255dd000a854400880f55000a0036005d
:102010000804550042c4de004244dd000884440048
:1020200040c7800051c78000008cbe00020037000e
:102030000800780001003700090078004f05be0055
:102040004f04be0000000600800178000200370047
:10205000b15978000201e9000200e000fcff3a00fb
:1020600000000600800178000200370081597800e6
:102070000201e9000200e000fcff3a000000060057
:102080000001780082017800030178003204e0004a
:10209000fcff3a0031417800825978000204e000e8
:1020a000fcff3a0000000600b041780031c1510049
:1020b00002003a000304e000fbff3a000200fb00cc
:1020c00000000600800078003104e000feff3a00c6
:1020d0000080ea000080400000000600889fbe00eb
:1020e0000004be000b00370009007800f5ff070070
:1020f000000178000800be001c0607000000e00098
:10210000090032000800e8009900fb000900070000
:10211000000478000800e000030032001804e0002a
:10212000f1ff3a000004eb00080078004f04be0005
:10213000000006000001eb006103b8006112b80066
:102140008601420066427a00814f5200040032004c
:102150000201e8000404e000f7ff3a008001eb0010
:1021600003007800000006000c00fa00889fbe0003
:1021700000047800f0ff2700d0bf9f008004eb0030
:1021800099bf9f0088bf9f00a8bf9f00200c200020
:10219000b0bf9f0078815700cfb097007080570084
:1021a000cf0007000fb89700094878008fb8970054
:1021b000088050004f04be000080fa0000000600b6
:1021c0000800fa00889fbe008a9fbe000084fb00c2
:1021d000d1c6b300814f5000340036004b062000ba
:1021e000110009000b84d8008105780072004000be
:1021f0004300dd00895b2100008044006022b800bc
:102200000600200007fe23005001be004000be0073
:102210008b0707000002be000203be0084bf9f00c0
:1022200095bf9f00a6bf9f00b7bf9f00aa002000d8
:10223000110009008a85d80080057800e9854500ed
:10224000c35ddd008b8544003b02be002b03be0056
:102250000fb897009fb897002fb99700bfb99700a4
:10226000770707000002be000203be0084bf9f0084
:1022700095bf9f00a6bf9f00b7bf9f001100090038
:102280000a84d800010478004344dd0088844400b7
:102290003902be002903be000fb897009fb897000f
:1022a0002fb99700bfb997001d003700ea4f5000c3
:1022b00013003600aa002000110009000a84d8008b
:1022c00001057800690440004344dd00895b21007a
:1022d000088444006022b8000600200007fe2300a6
:1022e0003800be002801be00550707004355dd0039
:1022f0008a8444003902be002903be00080037006a
:102300004344dd00805b2100080440006022b800e7
:102310000600200007fe23003800be002801be0092
:10232000470707004f05be004f04be000080fa00bb
:10233000000006000800fa00889fbe008a9fbe00c9
:10234000d1c6b3000004e00023003d000040ea00d5
:102350000004fb00814f50000a00340042062000b8
:10236000110009000204d800a90020001100090092
:102370008900d800e9004000c308dd008a5b210025
:1023800021003700ea4f500010003400a200200066
:10239000110009000204d800010178006900400022
:1023a0004300dd00815b2100008040004311dd001f
:1023b000828040003102be002103be005001be00f9
:1023c0004000be001e070700380037004344dd0010
:1023d000805b2100320037000004fb00814f500079
:1023e0002300340042062000110009000204d80036
:1023f000a9002000110009008900d800e900400070
:10240000c308dd008a502100810045003102be0072
:102410002103be008b0920008a8545003b00be00d9
:102420002b01be00060707000002be000203be002b
:1024300084bf9f0095bf9f00a6bf9f00b7bf9f00ae
:10244000110009000904d800010478004344dd00ac
:10245000080545003a02be002a03be000fb89700e7
:102460009fb897002fb99700bfb99700d5ff3700e5
:10247000ea4f500008003400a200200011000900bb
:102480000204d80001017800690040004300dd002b
:1024900081502100c4ff37004344dd0080502100fb
:1024a000080440003800be002801be004f05be00f1
:1024b0004f04be000080fa0000000600d00190002a
:1024c000028151004240a90003003400100178004d
:1024d000014978000208e8000100780000000600c9
:1024e0006f02b000889fbe008a9fbe008c9fbe0016
:1024f0008e1f780000067800b1af9f0092b79f0052
:102500006000b8006011b800d0af9f00e1af9f003d
:10251000f2af9f0083b79f008006eb00c404370032
:10252000bfa897008100e800b1af9f0051c2b3007f
:10253000814f500003003a00bfa897000007eb004e
:1025400011003700bc0090000000fb000168a300f0
:10255000070032000d017800800078000c00780040
:10256000d6ff07000000e00005003a00b004370085
:102570008c007800ba040700e10f4000ac04320080
:102580008d06e800aa043700010178003140780088
:10259000d3c2b300834f50000c00320007003c0050
:1025a000edc15100834f50000a003200ebc14100e1
:1025b000834f50000d003a000800370003c3b300fa
:1025c000834f500009003a00060037000e30a0008b
:1025d000edff37000e00a000ebff37000e10a0004b
:1025e000e9ff37000e20a000e7ff37000e18a30018
:1025f000010032000e00a1000e38a30001003200dd
:102600000e20a1008000fb000103b100e98f500003
:102610000c003e00020078008005eb006a59b9000a
:10262000b005fb000b03b100828545000001780076
:102630009000fb000103b100e98f5000f7ff360066
:10264000080037008005eb00a1c2b300814f5000a5
:1026500004003a009fb19700c305780093b79f002c
:102660000201e800e0c2b300924f100016003a00e9
:102670000ee0a00064405000d24f10000300320072
:10268000020078008001eb00080037009fb297003d
:102690004503780095b79f00e6b79f000201e80068
:1026a0000c0037006a19b9008281400000017800ef
:1026b000b000fb000103b100e98f5000f9ff3600c4
:1026c000e3b79f00030037000ec0a0008003eb00bb
:1026d000e7b79f008201780033407800030178005b
:1026e000c1c6b300814f50002b003200b3af9f0032
:1026f00014003c00e8c05000814f5000240032001c
:1027000009003c00ecc05000814f50002a0032000c
:10271000ebc04000814f50008c0032000004e0000c
:1027200048043200a200370061c6b300814f500058
:102730001b003200e3c04000814f50009c003a0073
:102740001300370031c7b300814f50001e00320024
:1027500007003c00e4c05000814f500013003200dd
:102760008140e800814f500091003a00120037008c
:1027700051c7b300814f500092003200e3c04000c7
:10278000814f50008a003a00e0cf9f000c003700d4
:10279000e0cf9f008d0037000e40a000cdff370036
:1027a000e0cf9f000ea0a00088003700e0cf9f0080
:1027b0000e60a00085003700e0cf9f000e50a00003
:1027c0000e70a00081003700e0cf9f009fb09700ff
:1027d0004100780091b79f00000478000000e000fd
:1027e00001003a00687b2100880078000000eb00bf
:1027f000010037000000e800614178000204e000b9
:10280000fcff3a00800478006fb197000200e000fe
:1028100003003200890f510001003100820478006a
:102820000005eb00898f5500010036000985550031
:10283000680767002a003a00110037003c0090004a
:102840000068a300070032000d017800010220009b
:102850000c00780019ff07000000e00006003a00b5
:10286000060037008c00780000022000fc030700ff
:10287000e10f4000010032008d06e8000a05e90082
:102880000a00e000edff3a000085eb00140037007d
:102890003c0090000068a3000900320008007800a6
:1028a000b000fb00000478000d0178000c007800f7
:1028b00002ff07000000e00008003a0008003700af
:1028c000880078003100fb00010478008c0078005b
:1028d000e3030700e10f4000010032008d06e8002d
:1028e000090078008004e9000000e000e8ff3a00f9
:1028f0000e00e000ce033200110037003c009000d3
:102900000068a300070032000d01780001022000da
:102910000c007800e9fe07000000e00006003a0025
:10292000060037008c00780000022000cc0307006e
:10293000e10f4000010032008d06e8000a05e900c1
:102940000a00e000edff3a00b90337009fb197009d
:102950004302780093b79f00cfa2de00482bdd0032
:102960004820de0000007300c828de00e0cf9f0092
:102970000e48a300080032000004e0000600320008
:10298000e14f400004003200f0cf9f0084d79f0049
:102990002900200002003700f4cf9f00190020001a
:1029a000e7fc2f008f8343000704e80096ff370001
:1029b000e0cf9f00e8fc2f000f0444001900200026
:1029c00091ff3700e0cf9f000e0cb3000170200094
:1029d00081006700700067000100e000180232000b
:1029e0000ec8a3000200320061002000e1b79f0082
:1029f0000000e000050032001fb097004003be0059
:102a00004002be0090b79f00060037001fb197003c
:102a10004200be0092b79f00f3f807000002be001c
:102a20000203be00a4b79f00b5b79f00c6b79f00c2
:102a3000d7b79f006022b8006033b8002fb097006e
:102a4000bfb097004fb19700dfb197009604070021
:102a50000000e0000a003d002fb09700bfb09700d3
:102a60004fb19700dfb1970003f0a200a0b79f001d
:102a7000b1b79f00c2b79f00d3b79f003e00b3001d
:102a80000000eb0090af9f006022b8006033b800f8
:102a90002fb09700bfb097004fb19700dfb19700fc
:102aa000e50407000000e0003400320024fd2f00a0
:102ab0000f0242002fb09700bfb097004fb19700b0
:102ac000dfb19700400507001fa897000000e9004c
:102ad0006302b900a2002000110009000202d80020
:102ae00090af9f000000e00002003d000000e90000
:102af00090af9f001fac97000840ea000dfe070052
:102b00002fb29700bfb297004fb39700dfb3970083
:102b10004b0507000002be000203be00d4af9f00b9
:102b2000e5af9f00f6af9f0087b79f006022b80017
:102b30000600200007ff23005b0407000000e00000
:102b400002003d000804e9000b0037006022b800d5
:102b500006002000470224005fa89700efa8970016
:102b60007fa997008fb19700540407000000e00090
:102b7000020035000804e80098af9f00efb297000c
:102b8000ec8f52000f003c00054078008cfd0700e0
:102b90000002be000203be002fb09700bfb0970036
:102ba0004fb19700dfb19700c10307000002be00dc
:102bb0000203be00a4b79f00b5b79f00c6b79f0031
:102bc000d7b79f001fac9700e90f540015003c00d9
:102bd0006022b8006033b8002fb09700bfb09700f4
:102be0004fb19700dfb19700930407000000e000a9
:102bf000310032002fb09700bfb097004fb197005f
:102c0000dfb19700bd040700e00f5000e08f5800cf
:102c1000e00f5900e08f590027003a00e10f5400ff
:102c2000250034000400200005002e00b6e022003c
:102c3000170124005fa89700efa897007fa99700cd
:102c40008fb19700180407000000e00002003d006b
:102c500069045400010037006804540098af9f00d5
:102c60002fd09700b3fd07000002be000203be0094
:102c7000d4af9f00e5af9f00f6af9f0087b79f00de
:102c80002fb09700bfb097004fb19700dfb197000a
:102c90000f040700990407000004be006000b8009c
:102ca0006011b800a0b79f00b1b79f00c2b79f00e6
:102cb000d3b79f00160037002fb09700bfb0970022
:102cc0004fb19700dfb197008c0407000004be00ed
:102cd000bb0407000002be000203be002fb0970035
:102ce000bfb097004fb19700dfb197004a050700ca
:102cf0000002be000203be00a4b79f00b5b79f004c
:102d0000c6b79f00d7b79f000000eb0090af9f00b1
:102d1000e17b210010c0b30005003700e4804000d3
:102d2000b10f5400a18f5c00030039000040e8009f
:102d3000ea4f5000f9ff3a00e0cf9f009fa89700ac
:102d400081805500efb29700858050000005fb00a0
:102d50000a8550000500e000010032000a05e90084
:102d600063006700010032000a05e9000e28a30095
:102d700039003200610167000e18a3000f00320015
:102d80003c0090000068a30006003200b102200061
:102d90000200e000010032008180e8000d017800af
:102da0000d003700b00220000200e00001003200f8
:102db0000080e8008c0078000e0037000200e00080
:102dc000220032003c0090000068a300070032009f
:102dd0000d017800010220000c007800b7fd07000b
:102de0000000e00006003a00180037008c00780070
:102df000000220009a020700e10f40001300320099
:102e00008d06e800110037003c0090000068a30028
:102e1000070032000d017800010320000c0078004b
:102e2000a6fd07000000e00006003a00060037009b
:102e30008c0078000003200089020700e10f4000a9
:102e4000010032008d06e8000a05e9000a00e000f2
:102e5000edff3c00570037000e38a30014003a0085
:102e6000110037003c0090000068a300070032000a
:102e70000d017800010220000c0078008ffd070092
:102e80000000e00006003a00060037008c007800e1
:102e90000002200072020700e10f40000100320032
:102ea0008d06e8000a05e9000a00e000edff3c009d
:102eb000610167000e18a3000e0032003c00900074
:102ec0000068a30005003200b10220000200e0000b
:102ed000220032008180e80020003700b00220008c
:102ee0000200e000010032000080e8008c00780061
:102ef0002c0037000200e0002e0032003c00900061
:102f00000068a300030032000d01780001022000d8
:102f1000130037008c0078000002200021003700e9
:102f20003c019000e07b21008100fb000268a300cf
:102f300010003200c208dd00810040001101be0017
:102f40000800be00a1f90700a20020000300200035
:102f5000aef9070001032000808040000d017800d9
:102f60000c00780055fd07000000e00010003a005a
:102f700010003700c208dd00810040001101be00d2
:102f80000800be0091f90700a20020000300200005
:102f90009ef9070002032000000141008c00780028
:102fa000020078002e020700e10f4000010032000d
:102fb0008d06e8006fc897008040e900e1cf9f00d0
:102fc0000004e000d6ff3a00130037003c009000f8
:102fd0000068a300070032000d0178000103200003
:102fe0000c00780035fd07000000e00006003a0004
:102ff000060037008c00780000032000180207004c
:10300000e10f4000010032008d06e8001fa8970084
:103010000000e90090af9f001fa897000000e000ab
:10302000eaff3c006fb39700e80f53000300340041
:1030300080c0b300e0cf9f0002003700cfeb9700c5
:10304000e7cf9f006fc897008005fb00efb09700a7
:103050008b8550000004e000100032003c0090001e
:103060000068a300070032000d017800e102200093
:103070000c00780011fd07000000e00006003a0097
:10308000060037008c007800e0022000f401070001
:10309000e10f4000010032008d06e8006fc8970084
:1030a000a4fc07000002be000203be002fb0970080
:1030b000bfb097004fb19700dfb19700e003070062
:1030c0008e0307002d0037003c019000e17b2100ba
:1030d0000000fb000268a300100032004200dd0087
:1030e000808040001101be000800be0037f90700d3
:1030f000a20020000300200044f907000103200083
:10310000808040000d0178000c007800ebfc070087
:103110000000e00010003a00100037004200dd001f
:10312000808040001101be000800be0027f90700a2
:10313000a20020000300200034f907000203200051
:10314000000141008c00780002007800c4010700f3
:10315000e10f4000010032008d06e8006fc99700c2
:103160000200fb004200dd00e17b21000080400006
:103170001001be000800be0024f907000004be00d4
:10318000efc897000140e900e0cf9f000104e00094
:10319000cdff3a00110037003c0090000068a3000a
:1031a000070032000d017800010320000c007800b8
:1031b000c2fc07000000e00006003a0006003700ed
:1031c0008c00780000032000a5010700e10f4000fb
:1031d000010032008d06e8008b05e9000b00e000dd
:1031e000edff3a000e38a300910132000a00e00022
:1031f0008f0134003c0090000068a30007003200fb
:103200000d017800010220000c007800abfc0700e3
:103210000000e00006003a00060037008c0078004d
:10322000000220008e010700e10f40000100320083
:103230008d06e8000a05e900eeff3a007c01370040
:103240008e007800010cb20011003a000000e0008e
:10325000040032009fb197004304be0093b79f0063
:10326000040037001fb297004404780094b79f0011
:10327000cfc4de00e00f5400e08f5c000e003d0084
:103280003e00b30060041400e0841c000a00370014
:103290000000e000040032009fb297004504be0029
:1032a00095b79f00040037001fb3970046047800cd
:1032b00096b79f008004eb00efb397000700e00093
:1032c00006003a000880740000f0a7000000ea0041
:1032d0000000e9004f00de00e0b79f000e0078001c
:1032e000000cb200c0af9f0000042000cfa89700e0
:1032f000808f50002300320003003c000100e000fa
:10330000080032002d003700000820004fa9970068
:10331000800f51000d003200000c2000800f510082
:1033200026003a00e17b210010c0b300e480400099
:10333000b10f5400a18f5c001f0039000040e8006d
:10334000ea4f5000f9ff3a001b00370010c0b300ed
:103350000201200003002000820f5400838f5c00d4
:1033600015003900441add00cc11de008301720023
:103370004411dd000040e800e84f5000f6ff3a003d
:103380000d00370010c0b3008200200003002000b1
:10339000820f5400838f5c0007003900c31add00e0
:1033a000cd11de00838172004311dd000040e80092
:1033b000eb4f5000f6ff3a00e0cf9f006fcb970035
:1033c0000600fb00efb39700870f500002003d009e
:1033d000e7cf9f0004003700efb09700808f5000c8
:1033e00001003d00e0b79f000b00e0000300320049
:1033f00063006700010032008b05e9000ee8a300be
:10340000060032006fb19700828f55000200340031
:1034100082855500010037008005eb00efc9970059
:103420000300fb000002eb00a4b79f00808f550053
:103430000200340000805500a0b79f000e28a300b2
:103440003c003200610167000e18a3000f0032003b
:103450003c0090000068a30006003200b10220008a
:103460000200e000010032008180e8000d017800d8
:103470000d003700b00220000200e0000100320021
:103480000080e8008c0078000e0037000200e000a9
:10349000100032003c0090000068a30007003200da
:1034a0000d017800010220000c00780003fc0700e9
:1034b0000000e00006003a00060037008c007800ab
:1034c00000022000e6000700e10f4000010032008a
:1034d0008d06e800afb297000500e0005200320010
:1034e000050578003c0090000068a300070032004a
:1034f0000d017800010320000c007800effb0700ad
:103500000000e00006003a00060037008c0078005a
:1035100000032000d2000700e10f4000010032004c
:103520008d06e8000a05e900eeff3a00aab79f0001
:103530003d0037002fb397000600e0001600320070
:103540000e38a30014003a00060578003c009000f5
:103550000068a300070032000d017800010220007e
:103560000c007800d5fb07000000e00006003a00e0
:10357000060037008c00780000022000b800070029
:10358000e10f4000010032008d06e8000a05e90065
:10359000eeff3a00aab79f00610167000e18a30072
:1035a0000f0032003c0090000068a30006003200cb
:1035b000b10220000200e000010032008180e8003a
:1035c0000d0178000d003700b00220000200e0007d
:1035d000010032000080e8008c0078000e00370007
:1035e0000200e000100032003c0090000068a300e0
:1035f000070032000d017800010220000c00780065
:10360000aefb07000000e00006003a0006003700ad
:103610008c0078000002200091000700e10f4000bc
:10362000010032008d06e800efb397000702e900c1
:103630006320b90000017800a2af9f004222dd00a4
:10364000e07b21000002420004057800cfad970026
:103650005c003700efb197008301e900e3b79f00fa
:1036600000042000808f55003700320003003c002a
:103670000b00e000070032003d003700000820008a
:10368000808f550020003200000c2000808f5500f4
:1036900037003a000e48a300100032001a02be00a4
:1036a0000401be000800be00f4b79f0085bf9f0064
:1036b000c6f70700e0cf9f000000fb00cf80de00d0
:1036c0007fb297008fba97000401be00d4020700b2
:1036d0000004540081845c00070037001a01780060
:1036e000110009000284d800a20020001100090086
:1036f0000280d800e1cf9f006fca97000443b0005a
:10370000e4cf9f001a003700507a21000e58a30022
:103710000100320040792100e17b21008100550049
:103720000801be008100e900030033008301d100dd
:103730000281d300fbff37006f0161006041790017
:10374000e2cf9f000a0037000800be00afaa970032
:103750008502e900030033008100d1000080d3001e
:10376000fbff3700674060000043b000e0cf9f00e0
:10377000bc0090006fcb97000600fb000168a3001f
:10378000070032000d017800800078000c007800fe
:103790004afb07000000e00005003a000500370082
:1037a0008c0078002e000700e10f4000010032007d
:1037b0008d06e800afab9700e3835300a7af9f00ef
:1037c000640555006fb097000000e000a1ff3a00cb
:1037d0000e38a30016003200afb097000100e000e1
:1037e00013003400010578003c0090000068a3003d
:1037f000070032000d017800010220000c00780063
:103800002efb07000000e00006003a00060037002b
:103810008c0078000002200011000700e10f40003a
:10382000010032008d06e8000a05e900eeff3a00cb
:103830003fa9970012407800e0cf9f000004e0000d
:1038400037fb3a000d0078004f0778004f06be00a6
:103850004f05be004f04be006f02b100000006001d
:10386000889fbe0001047800b80090008084eb00bf
:103870000118a3003a003200180190000198a3003b
:1038800002003a000200e00035003a000190a0007a
:103890003104980080047800f90fb2000200e000c3
:1038a00002003a0028009000000c7800ea8f5400d3
:1038b00005003a000178a30003003a008800780070
:1038c000d0002000e6ff070018009000d80090000c
:1038d000810f50000b0032000000e8001004980037
:1038e0001800780009487800000ce80011c0b30007
:1038f000c08e210001487800ea8f540018003a0079
:10390000050037008800780009407800260007008d
:103910008004780012003700380090000088a3006f
:103920000f00320018019000a8009000480090009d
:103930003ef4070098009000810f50000400320010
:10394000380090000003b300300498008084eb003e
:103950000000eb001004980028009000000c780094
:10396000090078004f04be00000006000a0037007e
:10397000b04178000304e000030032000201e900d6
:10398000b1cf5100040032008381fb001480fb00a2
:103990000080510000000600010278000200e000f3
:1039a000f3ff3a00000005000200fa00889fbe0005
:1039b000a0ff9f0001047800380090000068a30079
:1039c00033003a00e200600005003a000003b30053
:1039d00030049800110498000080eb002e0037009e
:1039e000d80490000900e00006003a001200200010
:1039f000e6805700480090000cf407001904980076
:103a000023003700a80090000100e00008003a0001
:103a1000f18e210021049800010c78002100200083
:103a200051049800110498000030a0003004980060
:103a300018019000a800900048009000fbf30700d8
:103a4000280090008080eb0011049800aff89700e8
:103a500001487800000ce8002ff89700ea4f50006a
:103a60000b003a00380090000088a30008003200e4
:103a700018019000a800900048009000ebf30700a8
:103a80000000eb0010049800a8009000010c7800e2
:103a9000aff897000100fb004f04be000080fa0061
:103aa0000000060000c0da00000006000000000070
:103ab0002800fa00889fbe008a9fbe008c9fbe002f
:103ac00007067800878669000c003b000304780035
:103ad0008704780008f0a10009f0a100840f5000cd
:103ae000858f5800860f5900890f5c000300330052
:103af0000cf0a20001003a000cf0a100faf6070059
:103b00006400e1005f003200780147006408e100d2
:103b1000610032006c014700748557003200be001e
:103b20001201be003a04be001a05be001e0390003a
:103b3000be0a90008503530006003d000004fd000e
:103b40008104fd000205fd008305fd008703ea00f6
:103b5000050378000df8a30004003200600414008f
:103b6000e0841c0060051d00e0851d006022b80097
:103b70007d0320000d38e1008006eb000b003900ca
:103b80004433dd00f300b2008301730039003700d5
:103b9000848272000d027800e10664008b85d100fa
:103ba0000a85d3008984d3000884d3008703e90001
:103bb000f7ff3b0008004000898048000a014900e7
:103bc0008b81490004003b0060001000e080180079
:103bd00060011900e08119000358a30009003200b8
:103be0008d82720084827200610260008301d100c4
:103bf0000281d3008180d3000080d3000603e80057
:103c00001b0037000348a30017003a000600e0003d
:103c1000170034000603e9000d00a300000048006f
:103c20008180480002014900838149000348a300c4
:103c30000f003a000600e000090034000603e90026
:103c40000000400081804800020149008381490052
:103c500001003a000003eb000348a300f5ff320027
:103c60006022b80002003700848272006182660020
:103c70007600070003f0a1000cf0a70003f0a000fd
:103c8000adf63700640147006408e10002003a0025
:103c90000df8a300a5f63a003200be001201be00e6
:103ca000a5f63700000000008f1fd1006201070059
:103cb0008f87e9000000e00000000600809feb0015
:103cc0005d0107008f87e9000000e00000000600aa
:103cd0002800fa00889fbe008a9fbe008c9fbe000d
:103ce00003866b0080f607006400e10044003200a8
:103cf0006408e1004a0032006100e1004600320041
:103d00006108e10049003200ec0647006000b8009d
:103d10003d02be003d03be00f48657006011b800ae
:103d20003d04be003d05be007d0320000b003700b2
:103d30000000a0008d06e9001300320004024200da
:103d400085824a0006034b0087834b000000400039
:103d50008180480002014900838149000802520025
:103d600089825a000a035b008b835b00f0ff3b00f3
:103d70000802420089824a000a034b008b834b00f1
:103d80008d06e900edff3a0084827200868272009f
:103d9000f707b20087827200010032001500200090
:103da0001e0490003e0b900006035400e63fb00056
:103db0000368a300070032000000a7000500a00070
:103dc0008301d1000281d3008180d3000080d30021
:103dd0000603e8008301d1000281d3008180d30073
:103de0000080d3000002eb000482d200170007001d
:103df00003f0a1000cf0a70003f0a0004ef637007e
:103e0000640247006408e10048f632003400be0056
:103e10003401be00f6ff37006108e10043f63200ce
:103e20006011b8006000b800f1ff370003ff270001
:103e300002002000fbff3700801feb00fe000700a0
:103e40008f87e9000000e000000006001800200055
:103e500057002000080453000d003d00060020001c
:103e600097fc2f000740e1001e003400848272009e
:103e7000610260008301d1000281d3008180d30000
:103e80000080d3000804e800f8ff3a004700200053
:103e90006104600005047400040464000d00320035
:103ea00061004000e080480060014900e081490075
:103eb00003b8a500070032000603e8006538e100fa
:103ec00004003a008301d1000281d3008180d30035
:103ed0000080d300f87f20000830e10003003500a7
:103ee000080378006000b8006011b8004433dd00ba
:103ef000f300b20083017300000006001400fa0012
:103f0000889fbe008a9fbe008c9fbe000004be003a
:103f10000205be00680047000a90be000890be007f
:103f2000caf507000070a7000bf0a1000bf8a30072
:103f300020003a009e0990000e099000fe009000bb
:103f40006e0090009e029000344320008482520054
:103f5000f9f532000a003c00b4fc2f000428e1000f
:103f6000140034008301d1000281d3008180d3008a
:103f70000080d3008502e800faff3a00eef5370032
:103f8000b40020000428e10007003c0000004000cd
:103f90008180480002014900838149008502e900cf
:103fa000faff3a00e4f53700030028000200200081
:103fb000010037006011b8006000b800def537007e
:103fc0006011b800d70037001400fa00889fbe00c7
:103fd0008a9fbe008c9fbe00040678000004be00cd
:103fe0000205be00680047000a90be000890be00af
:103ff00096f507006200e1000800be000a01be005d
:10400000040020000b003a001e029000e43fb100c3
:104010006e009000fe0090000e0990009e09900036
:10402000f300b20005fe2300858171000bf0a700ac
:1040300003f0a000040e7800bff537000000000078
:104040002800fa00889fbe008a9fbe008c9fbe0099
:1040500003866b00a4f507000028a30064003a0063
:104060000128a30067003a000008a30062003a009c
:104070000108a30065003a001e009000be089000f1
:1040800081064000ed3fb100f4805700ee01900042
:10409000111ab8008e099000311bb8009e099000db
:1040a000311cb800511db800f485570046000700c8
:1040b000fe0190003a0007008b85e8003e000700f3
:1040c0008e09900040000700ee01900034000700c8
:1040d0008b85e800380007008e099000400007003b
:1040e0009e0990001b18b800890440000a8548000a
:1040f000fe019000340007008b85e80038000700bf
:10410000ee019000300007008e0990001b18b800e7
:10411000890440000a8548000a98a30008003a0074
:104120000402420085824a0006034b0087834b004d
:1041300008044c0089844c000a054d008d06e900f6
:1041400084827200850273004c3add0085027200a1
:104150000100320015002000443ade001400b200d5
:104160004538de00cb45dd000b007000c540de00a9
:10417000cb4ddd008b8070004549de00cb55dd0066
:104180000b017100c551de000d0378002fff070001
:1041900003f0a1000cf0a70003f0a00066f53700c3
:1041a0001b18b8008502400006834800e0834b00de
:1041b00060044c00070037001b18b80006034000dd
:1041c00087834800faff37001b18b80087034000b8
:1041d00008844800e0844c0060054d0000000600a3
:1041e0001b18b8000804400089844800faff370013
:1041f0000108a3004df53a005800be005801be006a
:10420000e3ff37000008a30048f53a0009047800ee
:10421000f9ff37000000000007f0a20024fe37007d
:10422000020ab900001bb9000200b8008100420078
:104230008100430000000600889fbe008a9fbe00e8
:104240008c9fbe000404be000605be00809fbe0019
:10425000829fbe0021000700040678000800be000f
:104260000a01be001d000700840678004f03be004f
:104270004f02be008d4f76007fb0970013003300d1
:10428000f0ff2f008b8f6b0006003b000d066600d1
:104290000c00a7000a00370007f0a600100020005d
:1042a0000a003700880f5200898f5a008a0f5b007e
:1042b0008b8f5b00030039001000200001003e00de
:1042c0000000200007f0a7000000ea004f06be0033
:1042d0004f05be004f04be000000060005ff27008a
:1042e00005826100070032000428e100010032006d
:1042f000240005000600070001003a004400050004
:104300000408050002000700f9ff3a001400050048
:104310006f82610081027000850271008502720067
:1043200000000600889fbe00008270000402710039
:10433000048271002400320036432000c5002000b2
:104340008383cf000a0039000541b1008283cf008a
:10435000070039000541b1008183cf000400390016
:104360000541b1008083cf00010039000541b10053
:1043700085c353006022b800120032000a003b00df
:1043800084827200610260008301d1000281d30047
:104390008180d3000080d3000603e8008743e80053
:1043a000f7ff3a0007003700000040008180480016
:1043b00002014900838149000603e9008743e900bf
:1043c000f9ff3a00a1fe07004f04be0000000600fe
:020000040000fa
:1043d0002575000000430000757200007265000042
:1043e0006e740000204d00006f640000653a00000c
:1043f00020660000697200007374000057650000b9
:10440000656b0000004300007572000072650000db
:104410006e740000204d00006f640000653a0000db
:10442000206900006e74000065720000696d000074
:104430000043000075720000726500006e74000099
:10444000204d00006f640000653a000020730000fa
:1044500074610000626900006c6900007a65000008
:104460000043000075720000726500006e74000069
:10447000204d00006f640000653a000020730000ca
:1044800063690000656e0000636500000043000082
:1044900075720000726500006e740000204d00000f
:1044a0006f640000653a000020720000656500003e
:1044b0006e74000072790000004300007572000005
:1044c000726500006e740000204d00006f640000f3
:1044d000653a000020660000616c00006c6200001c
:1044e000616300006b000000416c00007469000013
:1044f00074750000646500003a200000252e00005d
:1045000032660000206b00006d000000546f000058
:10451000746100006c200000727500006e74000071
:10452000696d0000653a000020250000752000003c
:104530006820000025640000206d0000696e000006
:104540000a540000696d0000652000006f660000dd
:1045500020640000617900003a200000256400001a
:104560003a2500006420000055540000430000007c
:104570004261000074740000657200007920000040
:104580003120000043680000617200006765000090
:104590003a20000025750000200a0000426100005a
:1045a0007474000065720000792000003220000061
:1045b0004368000061720000676500003a20000057
:1045c00025750000200a000042610000747400009c
:1045d000657200007920000031200000566f000055
:1045e0006c74000061670000653a0000202500003f
:1045f000752000000a42000061740000746500002c
:104600007279000020320000205600006f6c00001c
:1046100074610000676500003a2000002575000005
:10462000200a0000426100007474000065720000fe
:1046300079200000312000004375000072720000f4
:10464000656e0000743a000020250000752000000f
:104650000a42000061740000746500007279000075
:1046600020320000204300007572000072650000d7
:104670006e7400003a20000025750000200a00003a
:1046800042750000737300002b200000566f00007d
:104690006c74000061670000653a0000202500008e
:1046a000752000000a5300006f6c0000617200006a
:1046b00020500000616e0000656c00002031000099
:1046c000205600006f6c00007461000067650000f8
:1046d0003a20000025750000200a0000536f0000fa
:1046e0006c61000072200000506100006e650000e7
:1046f0006c20000032200000566f00006c74000037
:1047000061670000653a0000202500007520000068
:104710000a5300006f6c000061720000205000001e
:10472000616e0000656c0000203300002056000020
:104730006f6c000074610000676500003a200000a3
:1047400025750000200a0000536f00006c61000016
:1047500072200000506100006e6500006c200000b7
:1047600034200000566f00006c7400006167000088
:10477000653a000020250000752000000a53000063
:10478000696d0000706c0000657800002054000026
:10479000656d0000703a00002025000075200000c3
:1047a0000a440000757000006c650000782000006d
:1047b000546500006d7000003a200000257500006f
:1047c000200a0000455000005320000054650000fe
:1047d0006d7000003a20000025750000200a0000de
:1047e0000a4c000050200000546500006d7000006d
:1047f0003a20000025750000200a00004c500000ff
:1048000020430000616c00003a2000002575000084
:104810002c200000257500002c20000025750000cc
:104820002c20000025750000200a00004d610000ca
:10483000676e0000657400006f6d00006574000015
:1048400065720000207800003a200000252e00004c
:1048500032660000206e0000542000002825000071
:10486000752900002c200000793a00002025000066
:104870002e320000662000006e5400002028000048
:1048800025750000292c0000207a00003a20000045
:10489000252e000032660000206e0000542000002b
:1048a00028250000752900000a540000656d0000ed
:1048b0007065000072610000747500007265000090
:1048c0003a2000004d410000473a0000202500003a
:1048d0002e32000066200000432000002825000042
:1048e000752900002c2000002d5a00003a200000fd
:1048f000252e000032660000204300002028000022
:1049000025750000292c0000202d0000593a0000d8
:10491000202500002e320000662000004320000009
:1049200028250000752900002c2000002d580000cb
:104930003a200000252e00003266000020430000cf
:104940002028000025750000292c00000a0900001d
:104950002b5a00003a200000252e0000326600008d
:10496000204300002028000025750000292c0000ad
:10497000202b0000593a0000202500002e320000b4
:104980006620000043200000282500007529000053
:104990002c2000002b5800003a200000252e00009b
:1049a000326600002043000020280000257500002a
:1049b000292c0000204300004d4400003a20000054
:1049c000252e000032660000204300002028000051
:1049d00025750000290a0000475000005320000000
:1049e000506f000073690000746900006f6e000072
:1049f000207800003a200000252e000032660000da
:104a00002c200000793a0000202500002e32000002
:104a1000662c0000207a00003a200000252e0000bd
:104a2000326600000a470000505300002056000084
:104a3000656c00006f63000069740000792000005d
:104a4000783a0000202500002e330000662c00007c
:104a5000207900003a200000252e00003366000077
:104a60002c2000007a3a0000202500002e330000a0
:104a7000660a0000475000005320000065720000e5
:104a8000726f000072200000636f00006465000018
:104a90003a200000256400002c2000006461000022
:104aa000747500006d3a000020250000750a0000b2
:104ab0004750000053200000616c00007469000042
:104ac00074750000646500003a200000252e000087
:104ad000326600000a47000050530000204c0000de
:104ae0006f6300006b2000004174000074650000db
:104af0006d700000747300003a20000025750000fe
:104b0000004500004f4600000a00000004000000bd
:104b10000400000021000000d00700000400000095
:104b200003000000020000004755000004000000e0
:104b3000505200003131000031000000525200009c
:104b40003131000031000000065200003131000018
:104b50003150000050330000333300000052000099
:104b60005033000033330000005000004334000095
:104b700030310000005000004334000030330000aa
:104b80000000000007000000030000000b00000010
:104b90002700000025730000256900002e64000036
:104ba0006174000000440000617400006130000086
:104bb00030300000302e00006461000074000000fe
:104bc0002573000025300000336900002530000007
:104bd0003669000025730000003000002d3400000d
:104be000353300003232000031000000534d000028
:104bf000530000001000000011000000020000003f
:104c00000300000004000000050000000600000092
:104c10000700000008000000090000000a00000072
:104c20000b0000000c0000000d0000000e00000052
:104c30000f0000001000000066e600009919000057
:0c4c400033f30000ce0c00000400000064
:020000040000fa
:104c4c000400fa0048c8bf000004a2000004e00001
:104c5c001e0032004067210012200700008fbe00aa
:104c6c001e00be00e00f5000e08f5800170032000d
:104c7c00f04080000141800061004000e08048006d
:104c8c00f040880001418800f24080000341800020
:104c9c001e00be00800f5100818f59000b0039009f
:104cac005d0907000004e00006003200f522a800b0
:104cbc0010c0b30048e8b7001e28ef002028ef0012
:104ccc000200370010c0b300601107000080fa002a
:104cdc00000006000000fa00104180002141800015
:104cec0061004000e08048001041880021418800ac
:104cfc001241800023418000b0488000c1488000f0
:104d0c00800f5100818f59000400390010c0b3008e
:104d1c004ce8b700e4a2a800f30107000080fa00f9
:104d2c00000006000a00fa0040702100dd1f070099
:104d3c00008fbe001e00be00e00f5000e08f580038
:104d4c001b00320030418000414180006100400076
:104d5c00e0804800304188004141880032418000a9
:104d6c00434180001e00be00800f5100818f59000e
:104d7c00030031004bc8bf000004e0000c003200ff
:104d8c00300907000004e0000700320010c0b30037
:104d9c004be8b70010c0b3004ae8b7002628ef0074
:104dac002828ef000200370010c0b30032110700b2
:104dbc0040672100bb1f07002007980031079800af
:104dcc002e019000be019000f04080000141800057
:104ddc00800f5100818f59000400360048c8bf0075
:104dec000004a2000004e00005003a002e00900030
:104dfc00be009000e00f5000e08f580002003a0017
:104e0c0010002000010037000000eb00004f98005c
:104e1c001e01be003041800041418000800f5100d6
:104e2c00818f5900040036004bc8bf000004a2005b
:104e3c000004e00004003a001e00be00e00f500029
:104e4c00e08f580002003a001000200001003700eb
:104e5c000000eb00104f98000e4890000004e0009a
:104e6c00050032001e4890000004e00002003200f1
:104e7c000040eb00001107000080fa000000060063
:104e8c000400fa00c06b2100861f0700008fbe00d3
:104e9c001e00be00e00f5000e08f580019003200d9
:104eac00504180006141800061004000e08048007a
:104ebc00504188006141880052418000634180006c
:104ecc001e00be00800f5100818f59000a0039006e
:104edc00e70807000004e00004003200f0020700bd
:104eec002a28ef002c28ef000800370010c0b30070
:104efc00e7100700050037000040eb00e410070046
:104f0c00020037000040eb00e11007000080fa00bf
:104f1c00000006000400fa00c0742100611f0700a5
:104f2c00008fbe001e00be00e00f5000e08f580046
:104f3c001b00320070418000814180006100400004
:104f4c00e0804800704188008141880072418000f7
:104f5c00834180001e00be00800f5100818f5900dc
:104f6c000c003900cd0807000004e00006003200f8
:104f7c00020320008000eb000037210036f407000c
:104f8c001e0407000800370010c0b300cb10070048
:104f9c00050037000040eb00c81007000200370086
:104fac000040eb00c51007000080fa00000006006e
:104fbc000400fa00607e21003a1f0700008fbe003b
:104fcc001e00be00e00f5000e08f58000f003200b2
:104fdc0090418000a141800061004000e0804800c9
:104fec0090418800a141880092418000a34180003b
:104ffc001e00be00800f5100818f59000300390044
:10500c00e90207003228ef003428ef000080fa0094
:10501c00000006000400fa00889fbe00e030850006
:10502c0090428800904280004800de00000f78001b
:10503c00904280004800dd0010079800f4e2a900bf
:10504c001e007800021e07001e009000001e0700c4
:10505c00f4e2a8001fff07004e28ef003a28ef00eb
:10506c003c28ef006000b800104288002142880004
:10507c004868ef0010c0b300cae8b70010c0b30016
:10508c00cbe8b700904080000004780020478000f7
:10509c003147800074ef0700000078008801780029
:1050ac00622021008000780020002000b808070052
:1050bc00c21220008000eb0060202100e6f3070004
:1050cc001228ef001e28ef002028ef00110020000e
:1050dc0020002000e71807000004be0040672100f4
:1050ec001d1f07006509b900020178006002b900b4
:1050fc008401780003014100530020000300b80034
:10510c0001014100820078000001be000800be00d1
:10511c002bf1070000047800406721003c1f0700ba
:10512c000000780000004400004688004f04be00d8
:10513c000080fa00000006000000fa004c68ef0046
:10514c00e4a2a900f522a8002228ef002428ef00f1
:10515c000080fa00000006000000fa00881f7800aa
:10516c001846800020478000314780003eef070042
:10517c00000078008801780022332100800078003c
:10518c004000200082080700e20120008000eb00b4
:10519c0020332100b0f307001628ef002628ef007b
:1051ac002828ef004f0478000080fa000000060069
:1051bc000000fa00881f78002846800020478000f5
:1051cc003147800028ef0700000078008801780044
:1051dc000235210080007800300020006c080700a8
:1051ec00020220008000eb00003521009af307003a
:1051fc001828ef002a28ef002c28ef004f04780025
:10520c000080fa00000006000000fa00881f7800f9
:10521c00c03b2100d7060700504821001040780001
:10522c000004e0000200320040482100650607003f
:10523c00d04080000000e0000c00340038468000b4
:10524c00204780003147800007ef070000007800fe
:10525c00880178000237210080007800700020005f
:10526c004b0807000c68ef00030037000cc8bf00a8
:10527c000040e8000ce8b700820c20008000eb0036
:10528c00c03b210074f30700420620008000eb00b5
:10529c004048210070f30700020320008000eb005f
:1052ac00003721006cf307000cc8bf000004e000bd
:1052bc0002003a002e28ef003028ef001a28ef00e9
:1052cc000e28ef002222a9004f0478000080fa007b
:1052dc00000006000000fa00881f78004846800095
:1052ec002047800031478000dfee07000000780087
:1052fc0088017800023a21008000780060002000cc
:10530c0023080700c20120008000eb00003a2100b6
:10531c0051f307001c28ef003228ef003428ef006f
:10532c004f0478000080fa00000006000400fa0028
:10533c00889fbe004ac8bf000004e0002200320073
:10534c00f04180000142800061004000e080480094
:10535c00f041880001428800f84180000942800039
:10536c00407021007c1e0700800f5400818f5c0070
:10537c0015003600880107003e28ef004028ef009a
:10538c00304280006104b90040702100a01e07006b
:10539c00800f5400818f5c00050036006eff070003
:1053ac004b68ef004a68ef004628ef000600370014
:1053bc0040702100681e0700800078003042800099
:1053cc00008040003042880048c8bf000004e00064
:1053dc004200320049c8bf000004a2000004e000f3
:1053ec003e003200cac8bf000004e00002003200d8
:1053fc00e030850001003700f030850090428800d5
:10540c00cac8bf000004a2000080fb000040780066
:10541c00cae8b7000040eb00890007004067210094
:10542c007b1e07008100d1000080d300008fbe00de
:10543c00d0418000e14180003e016800ae816800ef
