:020000040000fa
:080000000002040000000000f2
:020000040000fa
:04000800e002000012
:020000040000fa
:04000c001646000094
:020000040000fa
:04001000284600007e
:020000040000fa
:040014001e46000084
:020000040000fa
:04001800304600006e
:020000040000fa
:04001c00e0020000fe
:020000040000fa
:04002000e0020000fa
:020000040000fa
:04002400e0020000f6
:020000040000fa
:04002800e0020000f2
:020000040000fa
:04002c00e0020000ee
:020000040000fa
:04003000e0020000ea
:020000040000fa
:04003400d2410000b5
:020000040000fa
:04003800e0020000e2
:020000040000fa
:04003c00e0020000de
:020000040000fa
:04004000e0020000da
:020000040000fa
:04004400fa3f00007f
:020000040000fa
:04004800ea4000008a
:020000040000fa
:04004c00e0020000ce
:020000040000fa
:04005000e0020000ca
:020000040000fa
:04005400a6310000d1
:020000040000fa
:040058005031000023
:020000040000fa
:04005c00e0020000be
:020000040000fa
:04006000e0020000ba
:020000040000fa
:04006400e0020000b6
:020000040000fa
:04006800e0020000b2
:020000040000fa
:04006c00e0020000ae
:020000040000fa
:04007000e0020000aa
:020000040000fa
:04007400e0020000a6
:020000040000fa
:04007800e0020000a2
:020000040000fa
:04007c00e00200009e
:020000040000fa
:04008000e00200009a
:020000040000fa
:04008400e002000096
:020000040000fa
:04008800e002000092
:020000040000fa
:04008c00e00200008e
:020000040000fa
:04009000e00200008a
:020000040000fa
:04009400ba4200006c
:020000040000fa
:04009800fa3e00002c
:020000040000fa
:04009c00e00200007e
:020000040000fa
:0400a000e00200007a
:020000040000fa
:0400a400e002000076
:020000040000fa
:0400a800e002000072
:020000040000fa
:0400ac00e00200006e
:020000040000fa
:0400b000e00200006a
:020000040000fa
:0400b400e002000066
:020000040000fa
:0400b800e002000062
:020000040000fa
:0400bc00e00200005e
:020000040000fa
:0400c000e00200005a
:020000040000fa
:0400c400e002000056
:020000040000fa
:0400c800e002000052
:020000040000fa
:0400cc00e00200004e
:020000040000fa
:0400d000e00200004a
:020000040000fa
:0400d400e002000046
:020000040000fa
:0400d800e002000042
:020000040000fa
:0400dc00e00200003e
:020000040000fa
:0400e000e00200003a
:020000040000fa
:0400e400e002000036
:020000040000fa
:0400e800e002000032
:020000040000fa
:0400ec00e00200002e
:020000040000fa
:0400f000e00200002a
:020000040000fa
:0400f400e002000026
:020000040000fa
:0400f800e002000022
:020000040000fa
:0400fc00e00200001e
:020000040000fa
:04010000e002000019
:020000040000fa
:04010400e002000015
:020000040000fa
:04010800e002000011
:020000040000fa
:04010c00e00200000d
:020000040000fa
:04011000e002000009
:020000040000fa
:04011400e002000005
:020000040000fa
:04011800e002000001
:020000040000fa
:04011c00e0020000fd
:020000040000fa
:04012000e0020000f9
:020000040000fa
:04012400e0020000f5
:020000040000fa
:04012800e0020000f1
:020000040000fa
:04012c000e3200008f
:020000040000fa
:04013000e0020000e9
:020000040000fa
:04013400e0020000e5
:020000040000fa
:04013800e0020000e1
:020000040000fa
:04013c00e0020000dd
:020000040000fa
:04014000e0020000d9
:020000040000fa
:04014400e0020000d5
:020000040000fa
:04014800e0020000d1
:020000040000fa
:04014c00e0020000cd
:020000040000fa
:04015000e0020000c9
:020000040000fa
:04015400e0020000c5
:020000040000fa
:04015800e0020000c1
:020000040000fa
:04015c00e0020000bd
:020000040000fa
:04016000e0020000b9
:020000040000fa
:04016400e0020000b5
:020000040000fa
:04016800e0020000b1
:020000040000fa
:04016c00e0020000ad
:020000040000fa
:04017000e0020000a9
:020000040000fa
:04017400e0020000a5
:020000040000fa
:04017800e0020000a1
:020000040000fa
:04017c00e00200009d
:020000040000fa
:04018000e002000099
:020000040000fa
:04018400e002000095
:020000040000fa
:04018800e002000091
:020000040000fa
:04018c00e00200008d
:020000040000fa
:04019000e002000089
:020000040000fa
:04019400e002000085
:020000040000fa
:04019800e002000081
:020000040000fa
:04019c00e00200007d
:020000040000fa
:04020800e002000010
:020000040000fa
:04020c00c802000024
:020000040000fa
:04021000ce0200001a
:020000040000fa
:04021400d402000010
:020000040000fa
:04021800da02000006
:020000040000fa
:04021c00e0020000fc
:020000040000fa
:04022000e0020000f8
:020000040000fa
:04022400e0020000f4
:020000040000fa
:04022800e0020000f0
:020000040000fa
:04022c00e0020000ec
:020000040000fa
:04023000e0020000e8
:020000040000fa
:04023400e0020000e4
:020000040000fa
:04023800e0020000e0
:020000040000fa
:04023c00e0020000dc
:020000040000fa
:04024000e0020000d8
:020000040000fa
:04024400e0020000d4
:020000040000fa
:04024800e0020000d0
:020000040000fa
:04024c00e0020000cc
:020000040000fa
:04025000e0020000c8
:020000040000fa
:04025400e0020000c4
:020000040000fa
:04025800e0020000c0
:020000040000fa
:04025c00e0020000bc
:020000040000fa
:04026000e0020000b8
:020000040000fa
:04026400e0020000b4
:020000040000fa
:04026800e0020000b0
:020000040000fa
:04026c00e0020000ac
:020000040000fa
:04027000e0020000a8
:020000040000fa
:04027400e0020000a4
:020000040000fa
:04027800e0020000a0
:020000040000fa
:04027c00e00200009c
:020000040000fa
:04028000e002000098
:020000040000fa
:04028400e002000094
:020000040000fa
:04028800e002000090
:020000040000fa
:04028c00e00200008c
:020000040000fa
:04029000e002000088
:020000040000fa
:04029400e002000084
:020000040000fa
:04029800e002000080
:020000040000fa
:04029c00e00200007c
:020000040000fa
:0402a000e002000078
:020000040000fa
:0402a400e002000074
:020000040000fa
:0402a800e002000070
:020000040000fa
:0402ac00e00200006c
:020000040000fa
:0402b000e002000068
:020000040000fa
:0402b400e002000064
:020000040000fa
:0402b800e002000060
:020000040000fa
:0402bc00e00200005c
:020000040000fa
:0402c000e002000058
:020000040000fa
:0402c400e002000054
:020000040000fa
:0402c800e002000050
:020000040000fa
:0402cc00e00200004c
:020000040000fa
:0402d000e002000048
:020000040000fa
:0402d400e002000044
:020000040000fa
:0402d800e002000040
:020000040000fa
:0402dc00e00200003c
:020000040000fa
:0402e000e002000038
:020000040000fa
:0402e400e002000034
:020000040000fa
:0402e800e002000030
:020000040000fa
:0402ec00e00200002c
:020000040000fa
:0402f000e002000028
:020000040000fa
:0402f400e002000024
:020000040000fa
:0402f800e002000020
:020000040000fa
:0402fc00e00200001c
:020000040000fa
:04030000e002000017
:020000040000fa
:04030400e002000013
:020000040000fa
:04030800e00200000f
:020000040000fa
:04030c00e00200000b
:020000040000fa
:04031000e002000007
:020000040000fa
:04031400e002000003
:020000040000fa
:04031800e0020000ff
:020000040000fa
:04031c00e0020000fb
:020000040000fa
:04032000e0020000f7
:020000040000fa
:04032400e0020000f3
:020000040000fa
:04032800e0020000ef
:020000040000fa
:04032c00e0020000eb
:020000040000fa
:04033000e0020000e7
:020000040000fa
:04033400e0020000e3
:020000040000fa
:04033800e0020000df
:020000040000fa
:04033c00e0020000db
:020000040000fa
:04034000e0020000d7
:020000040000fa
:04034400e0020000d3
:020000040000fa
:04034800e0020000cf
:020000040000fa
:04034c00e0020000cb
:020000040000fa
:04035000e0020000c7
:020000040000fa
:04035400e0020000c3
:020000040000fa
:04035800e0020000bf
:020000040000fa
:04035c00e0020000bb
:020000040000fa
:04036000e0020000b7
:020000040000fa
:04036400e0020000b3
:020000040000fa
:04036800e0020000af
:020000040000fa
:04036c00e0020000ab
:020000040000fa
:04037000e0020000a7
:020000040000fa
:04037400e0020000a3
:020000040000fa
:04037800e00200009f
:020000040000fa
:04037c00e00200009b
:020000040000fa
:04038000e002000097
:020000040000fa
:04038400e002000093
:020000040000fa
:04038800e00200008f
:020000040000fa
:04038c00e00200008b
:020000040000fa
:04039000e002000087
:020000040000fa
:04039400e002000083
:020000040000fa
:04039800e00200007f
:020000040000fa
:04039c00e00200007b
:020000040000fa
:100400002f5621000e7f24000e01880000000000fe
:10041000000020000000e000020032000001200087
:100420002002880014000700c10007000000e0005f
:1004300003003a00003f23000100200002003700c3
:100440000000200001002000810f70000100320038
:1004500014000700000020000000e000020032004d
:10046000000002000000000038460200000000000a
:100470000040da000000fe004440a900400a2000cd
:100480000000e0000300320000002000a00188000e
:100490004440a800000006008a1f78008b1f7800e7
:1004a0000000060091018800800478000000eb0045
:1004b0001a003700e284440032a0b4009905ba0063
:1004c000e284440032a0b4009906ba00e2844400f9
:1004d00032a0b4000006eb00476fde00fd07b2005b
:1004e000636ce10003003a00ebff07000000eb0043
:1004f0000a003700606ce10004003a00005deb0088
:100500008b05e900fdff3e00040037006168e10053
:10051000010032000086eb000b00070019c7ba008b
:100520001905ba000e04e00003003a000a00e000da
:10053000e0ff3a0000000600fe07b2009e018800be
:100540008a047800f5ff3700395dba008b05e900b1
:100550000c003200295dba008b05e900080032006a
:100560000c00e00003003a00e284440032a0b40032
:10057000f5ff370019ddba008b05e900faff3a00f4
:100580008904e800e184440032a0b40000000600c1
:100590000000fa008020a900ffff37000000fa00e9
:1005a0008060a900ffff37000000fa008040a9002a
:1005b000ffff37000000fa008080a900ffff37002e
:1005c0000000fa00ffff3700000178001001e20090
:1005d000030035001061a800000028001021b700ba
:1005e00030088000410880000200e0000100320075
:1005f0000089be00000006000a00fa00e20f500069
:100600001f003e00f0aa8000e10f500006003200fb
:1006100080232000452320002323200004232000e2
:100620000000e00004003a00802220004522200063
:1006300023222000042220000600280094036300e7
:1006400002003a0007087800140a730013a8a300f8
:1006500001003a0013a0a000020078000500370056
:100660001388a300feff32003102fb00840a7800e9
:100670000000e9000000e000f9ff3a000800370040
:1006800033002000b3bf9f00c0bf9f00d1bf9f00b9
:10069000e2bf9f006a805700500607006fb99700bd
:1006a000020078000080fa0000000600889fbe006b
:1006b0008004780000ab80000000e00004003a00f5
:1006c0000e0007000084eb000000e0000800350089
:1006d00008ab80000900e00005003200090044007a
:1006e000060007000000e00001003d000084eb0070
:1006f000080078004f04be0000000600800078006b
:100700000100e00003003a000000200000ab880078
:10071000000005000080eb0002002000828f5000e6
:1007200002003e0001ab88000000eb000000060064
:100730000000050003f0a200889fbe008a9fbe0053
:100740008c1f7800170107001e0133006450e10080
:100750004f0032006420e1005200320003826c003e
:1007600007003b000905d0000306d000820f5400ab
:100770000c065d0002003900020032008901780099
:10078000030678008582550004003d000003fd004b
:100790008103fd008502ea008b854200840f720010
:1007a00002003b0060001000e08018006011b800fb
:1007b0000005eb007a28e1000a0039000600780005
:1007c000c75ddd00f707b200878075002d00370098
:1007d000828171000a017800610560008180d1008a
:1007e0000080d3008502e900f9ff3b0006044000c9
:1007f0008784480002003b0060041400e0841c0071
:100800000988a300070032008a817100828171008b
:10081000610164008904d1000884d3008b05e800dd
:10082000170037000978a30013003a000b00e0001e
:10083000130034008b05e9000804440089844c004f
:100840000a4474000978a3000d003a000b00e00090
:10085000070034008b05e9000804440089844c003b
:1008600001003a000b0020000978a300f7ff3200d6
:100870000001eb0002003700828171000a0178005c
:100880008d0007000cf0a70001f0a000d600370093
:100890006420e10002003a00838f6c00d600330030
:1008a0000801be000200be00cf003700889fbe00d6
:1008b0008a9fbe008c1f7800ba000700c100330079
:1008c00003866c006450e1002e0032006420e100d9
:1008d000330032006150e1002f0032006120e1005e
:1008e0003100320085855500eb07b000090020007b
:1008f00008042000050037000804440089844c00e7
:100900000a0031000603430087834b0000015300b7
:1009100081815b00f8ff33000203be000800a000e5
:100920000804440089844c00f6ff3900c639dd0014
:100930008301730001003200130020008904d100fc
:100940000884d3000998a300050032000800a7001e
:100950000300a0008904d1000884d3008b05e800bf
:100960008904d1000884d3000001eb000281d20089
:100970005100070001f0a1000cf0a70001f0a00059
:10098000990037006420e1009b0032000801be009e
:100990000200be00f7ff37006120e1009600320040
:1009a0006000b800f3ff37000000200001f82700c6
:1009b000f0ff37000001be00650007000470a700cb
:1009c00003f0a1006509b100160032000d003500ea
:1009d0006828e10006003500f0ff2f00f1ff270036
:1009e0000300e00013003b000100280000000500a8
:1009f00000004000818048008502e900fcff3a00c9
:100a000008003700f88f420002003c008000eb0035
:100a1000000005008100d1000080d3008502e800bd
:100a2000fcff3a000300e00002003b006000100001
:100a3000e0801800000006000001be00440007002e
:100a40000470a70003f0a10003f8a30013003a000c
:100a50006509b10010003200090035006928e10085
:100a600002003500010028000000050000004000e1
:100a7000818048008502e900fcff3a000000060082
:100a8000f88f4200050035008100d1000080d300be
:100a90008502e800fcff3a00000006008000eb0041
:100aa000000005004f89de00820178009c003700bd
:100ab0006011b800aa003700810020006180550055
:100ac0000b003d000b00200061fe2f000100e10043
:100ad0001d00340082817100610164008904d1002d
:100ae0000884d3000000e800faff3a0071002000fb
:100af0006100640003007000020060000900320021
:100b000061044400e0844c000988a500050032001f
:100b10008b05e8006808e10002003a008904d10072
:100b20000884d300f20f20000258e10005003d00c8
:100b3000c75ddd00f907b200898075000800780004
:100b4000000006000bf827008b007800000005006d
:100b5000c70ade00f107b200f50fb200080032004c
:100b6000e1cf4200020032000170a0002400050025
:100b7000810f7000010032000408050044000500e8
:100b8000810f700002003a00140005008502e900a0
:100b90000000400081c04800fcff3b000170a00045
:100ba000240005000004be00e9ff07000003be00aa
:100bb0000405be000200be00e5ff0700844f75007b
:100bc000000006000200be006450e100050036008f
:100bd0006420e100020036000968a30001003a0029
:100be0000800be000160a0004f0678004f05be005f
:100bf0004f04be0000000600f0ff2f00f1ff2700a9
:100c0000f9ff3700889fbe008a9fbe008c1f7800c6
:100c1000e4ff0700ebff330003866c006450e10043
:100c2000240032006420e100270032006150e1001e
:100c3000220032006120e100210032008b85420059
:100c4000eb07b1000134b800003ab80008044200d4
:100c500089844a00013ab8000030b800888040001a
:100c600009014a0004003300000040008180480070
:100c7000020149008b05e900c909dd00830170000c
:100c80000100320013002000c814de004814dd000b
:100c90004709de001200b200c808de0008847000b8
:100ca00085ff070001f0a1000cf0a70001f0a000f3
:100cb000cdff37006120e100cfff32000801be0008
:100cc0000200be00f7ff37006150e100fcff3a0070
:100cd000c9ff37006022b800060220000000d000e3
:100ce0008180d2000482d2008582d2000000a00060
:100cf0000202520083825a000300310002024200c5
:100d000083824a000000a1000603e900f3ff3a00d5
:100d100000000600efff07000400be000000060010
:100d2000881f7800030478000300e00007003d00fe
:100d300060001000e080180060011900e0811900d7
:100d400002003b0001f02d00030037000400070003
:100d500008f0a70001f0a0004f0478000000060092
:100d6000889fbe008a9fbe0000827000040271004e
:100d700004827100260032000004be000200be00a2
:100d80006011b8006b092000950220000182cf009d
:100d90000a0039000541b1000082cf000700390088
:100da0000541b1000982cf00040039000541b100be
:100db0000882cf00010039000541b1000542520010
:100dc000120032000a003b00828171006101640060
:100dd0008100d1000080d3008984d3000884d3002f
:100de0008b05e8000442e800f7ff3a0007003700ef
:100df0000804440089844c000000480081804800b9
:100e00008b05e9000442e900f9ff3a002aff0700d8
:100e10004f05be004f04be0000000600889fbe00c4
:100e20008a9fbe008c9fbe00a1532100d2a98000e2
:100e30000200e0000b003a0064814000d2a9880063
:100e400022aa8800a100980011aa880021419000e0
:100e50000204a000a2409800614190000204a0009a
:100e6000e2409800670440004244de004244dd0056
:100e700014aa800001002000090020008184540091
:100e80002d002000110009008d04d8008006780094
:100e90000886e8000c0646008001eb0002003700df
:100ea000130020000b027800a44090000108a3006a
:100eb000020032000a003700120a7800140178009c
:100ec000a24090000108a300fbff3200880042000e
:100ed000810f5100020039000800e00042003d008f
:100ee000940578000b00a100848f5500edff3e00b3
:100ef000e18f5100eaff3a008d0f540002003600e6
:100f0000890f5400140039006141b8006148b900ec
:100f1000b4ff2f00050020000000520081805a001d
:100f2000800f5100818f5900020035006405440094
:100f30000a003700000020003a002000000555009c
:100f400008054500110009000985d8000980b9008d
:100f500000057800010037000c0578000a007800d1
:100f6000d2fd0700e10f400005003a00640544008f
:100f70000a007800cdfd0700e10f40002b00320091
:100f800021aa80008008780021aa8000e481400026
:100f900021419000830f5000020032000204a000a3
:100fa000010037000204a100a2409800640555002a
:100fb0000a0540000a0878002aaa8800a1532100e7
:100fc000010d780022aa8000a24090000104a00038
:100fd00021419800a04090000104a1002140980008
:100fe0008001eb00afff370011aa8800810f51008c
:100ff000070036001101be0032aa880043aa88000b
:10100000940878000041eb0011aa8000a2409800eb
:1010100013aa8000030a7800a44090000104a000f5
:101020002142980064004200010037000000eb00fc
:101030004f06be004f05be004f04be000000060074
:101040000000e000080032006400500011aa800097
:10105000810f50000100310010aa8800a0409000cc
:101060000104a1002140980000000600889fbe00f6
:101070008a9fbe000004be000900e00007003a009d
:101080000000eb000800e0003600320008007800a5
:10109000ebff07000000eb00320037000800e00023
:1010a00003003a00090078005cff07002d003700bc
:1010b000640054009005780068f897000008a300c9
:1010c0000200320008007800ddff07000900780008
:1010d00052ff0700800478000000eb000900e000e8
:1010e00020003200888f54001b00320069bd970039
:1010f0000905550042d5de0088855500c2ddde00b9
:101100000a0178008b0f5500010036000b017800b2
:101110004211dd0088007800090078001400070003
:10112000888f54000e0031004255dd000a854400ce
:10113000880f55000a0036000804550042c4de003e
:101140004244dd000884440030aa800041aa8000a7
:10115000008cbe0002003700080078000100370054
:10116000090078004f05be004f04be0000000600d5
:101170008001780002003700b15978000201e900cf
:101180000200e000fcff3a00000006008001780049
:1011900002003700815978000201e9000200e000f6
:1011a000fcff3a0000000600800078003104e000f7
:1011b000feff3a000080ea000080400000000600c8
:1011c000889fbe000004be0008007800f6ff0700fc
:1011d0000000440090cf140005003200880f50003a
:1011e000020032000000e900faff37000000eb00c7
:1011f0004f04be0000000600889fbe000004be0031
:101200000b00370009007800e7ff070000017800b5
:101210000800be00230307000000e00009003200c0
:101220000800e8009900fb000900070000047800ae
:101230000800e000030032001804e000f1ff3a006b
:101240000004eb00080078004f04be000000060018
:101250000001eb006103b8006112b8008601420092
:1012600066427a00814f5200040032000201e80019
:101270000404e000f7ff3a008001eb00030078006f
:10128000000006000c00fa00889fbe0000047800f1
:10129000f0ff2700d0bf9f008004eb0099bf9f00a4
:1012a00088bf9f00a8bf9f00200c2000b0bf9f00f8
:1012b00078815700cfb0970070805700100007006a
:1012c0000fb89700094878008fb897000880500041
:1012d0004f04be000080fa0000000600d00190001c
:1012e000028151004240a90003003400100178003f
:1012f000014978000208e8000100780000000600bb
:10130000f6874700889fbe008a9fbe008c9fbe0064
:101310008e1f780000057800a1b79f0002077800b3
:101320008004eb0090023700afb097008100e80026
:10133000a1b79f0051c2b300814f500003003a0093
:10134000afb097000004eb0011003700ba00900026
:101350000000fb000168a3000700320009017800cb
:10136000800078000a007800dcff07000000e00041
:1013700005003a007c0237008a00780086020700e8
:10138000e10f4000780232008904e800760237005d
:101390000100780031417800d3c2b300834f51007f
:1013a0000c00320007003c00edc15100834f51009a
:1013b0000a003200ebc14100834f51000d003a009a
:1013c0000800370003c3b300834f510009003a00ff
:1013d000060037000830a000edff37000800a0002d
:1013e000ebff37000810a000e9ff37000820a0003d
:1013f000e7ff37000818a300010032000800a10031
:101400000838a300010032000820a1008200fb0080
:101410000103b100e98f50000c003e00000178008c
:101420008000eb006a08b900b201fb000303b100c1
:1014300080804100020078009201fb000303b100ac
:10144000e98f5100f7ff3600060037008000eb00ff
:10145000a3c2b300834f510002003a00ce007800cf
:101460000000e8008005eb00e2c2b300904f1100dd
:1014700009003a0008e0a00064415100d04f11007b
:1014800003003200000178000102780006003700f6
:10149000ce0578000000e800000178000900370060
:1014a0006a58b9008085410002007800b201fb0053
:1014b0000303b100e98f5100f9ff36008400780082
:1014c000f5ff370032407800a2b79f00c3c6b300d3
:1014d000834f5000250032000f003c0032c6b3009d
:1014e000824f50008800320004003c000004e000fd
:1014f000220232006b4151000f00370042c6b30098
:10150000824f50001700320065414100824f500069
:1015100094003a001300370032c7b300824f5000e6
:101520001b00320007003c0064415100824f500014
:10153000100032000241e800824f500089003a005a
:101540000f00370052c7b300824f50008a003200ac
:1015500063414100824f500082003a00e0df9f006b
:1015600009003700e0df9f00850037000840a00039
:10157000d4ff3700e0df9f000860a0008000370044
:10158000e0df9f000850a0000870a0007c0037003a
:10159000e0df9f004e007800000678000000e000c9
:1015a00001003a004c4621000c0178000000eb00dd
:1015b000010037000000e800e24178000304e00089
:1015c000fcff3a00800678000b00e00003003200c8
:1015d0008d8f5500010031008b0678008005eb00ef
:1015e0008d8f5000010036008d8550006804640026
:1015f0002a003a00110037003a0090000068a3006a
:101600000700320009017800010220000a0078007a
:1016100032ff07000000e00006003a000600370035
:101620008a00780000022000db010700e10f400083
:10163000010032008904e8008b05e9000b00e0009e
:10164000edff3a008085eb00140037003a0090006f
:101650000068a300090032000c007800b000fb0015
:1016600000067800090178000a0078001bff0700d7
:101670000000e00008003a00080037008c00780005
:101680003100fb00010678008a007800c2010700e3
:10169000e10f4000010032008904e8000d007800ed
:1016a0008006e9000000e000e8ff3a000800e000e2
:1016b000ad013200110037003a0090000068a3002d
:1016c0000700320009017800010220000a007800ba
:1016d00002ff07000000e00006003a0006003700a5
:1016e0008a00780000022000ab010700e10f4000f3
:1016f000010032008904e8008b05e9000b00e000de
:10170000edff3a00980137004e017800cf91de00de
:10171000c81ade004818dd004812de00040270001e
:10172000e4df9f000848a300080032000404e00042
:1017300006003200e14f420004003200f4df9f0057
:1017400082e79f002d00200002003700f2df9f009b
:101750001d002000e2fd2f000f0141000206e800fd
:1017600099ff3700e0df9f00ecfd2f000f064600d9
:101770001d00200094ff3700e0df9f00080cb3003d
:1017800008017800020cb200700064000200e00062
:101790000d003a000000e000020032004e06be00dc
:1017a000020037004e067800cfe6de00e00f56005c
:1017b000e08f5e000a003d003800b30060061600ae
:1017c000e0861e00060037000000e0000200320044
:1017d0004e06be00020037004e0678008006eb0081
:1017e0000b00e00005003a008c8576000bf0a700a6
:1017f0008b05ea008b05e900cf5dde0088017800eb
:10180000030cb200e3b79f0000042000808f51005a
:101810002300320003003c000300e0000800320017
:101820002d003700000820006fb29700800f520093
:101830000d003200000c2000800f520026003a00fc
:10184000c246210010c0b30064014100b20f56002f
:10185000a28f5e001f0039000040e800ea4f5000f0
:10186000f9ff3a001b00370010c0b300020120004e
:1018700003002000820f5600838f5e0015003900a0
:10188000441add00cc11de00830172004411dd003a
:101890000040e800e84f5000f6ff3a000d00370026
:1018a00010c0b3008200200003002000820f560009
:1018b000838f5e0007003900431add00cd11de0082
:1018c000830172004311dd000040e800eb4f50003f
:1018d000f6ff3a00e0df9f006fd997000200fb009f
:1018e0008b0f500002003d00ebdf9f00030037002c
:1018f000808f550001003d00800578000100e00068
:101900000300320063006400010032008100e9003e
:1019100008e8a300050032008b8f5000020034005d
:101920008b805000010037008000eb00efd997005a
:101930000300fb000002eb00d4b79f00808f500033
:101940000200340000805000d0b79f000828a30098
:1019500040003200610164000818a3000f0032004b
:101960003a0090000068a30006003200b102200097
:101970000200e000010032008180e80009017800e7
:101980000d003700b00220000200e000010032002c
:101990000080e8008a0078000e0037000200e000b6
:1019a000100032003a0090000068a30007003200e7
:1019b00009017800010220000a00780047fe0700b4
:1019c0000000e00006003a00060037008a007800b8
:1019d00000022000f0000700e10f4000010032008b
:1019e0008904e8005fb097000000e0005a00320070
:1019f000bcb79f00cdb79f00800678003a009000ea
:101a00000068a300070032000901780001032000ec
:101a10000a00780031fe07000000e00006003a00ee
:101a2000060037008a00780000032000da00070073
:101a3000e10f4000010032008904e8008d06e90052
:101a4000eeff3a00ddb79f003fb69700cfb6970094
:101a500041003700dfb197000300e0001a003200b8
:101a60000838a30018003a00bcb79f00cdb79f000c
:101a7000830678003a0090000068a3000700320057
:101a800009017800010220000a00780013fe070017
:101a90000000e00006003a00060037008a007800e7
:101aa00000022000bc000700e10f400001003200ee
:101ab0008904e8008d06e900eeff3a00ddb79f00db
:101ac0003fb69700cfb69700610164000818a300e5
:101ad0000f0032003a0090000068a30006003200b8
:101ae000b10220000200e000010032008180e80025
:101af000090178000d003700b00220000200e0006c
:101b0000010032000080e8008a0078000e003700f3
:101b10000200e000100032003a0090000068a300cc
:101b20000700320009017800010220000a00780055
:101b3000eafd07000000e00006003a00060037005a
:101b40008a0078000002200093000700e10f4000a7
:101b5000010032008904e8000b03e9006330b9009a
:101b600000017800b2b79f004233dd00c04621007b
:101b7000000343008e01780093b79f0008077800a8
:101b8000060478005c0037008b05e90000042000a3
:101b90006fb29700800f52003800320003003c0003
:101ba0000400e000080032003e003700000820007a
:101bb000efb09700808f500020003200000c200012
:101bc000808f500037003a000e48a300100032000a
:101bd0001802be000401be000c00be00f4b79f0056
:101be00085bf9f003bfc0700e0df9f000000fb007b
:101bf000cf80de007fb297008fba97000401be004d
:101c0000f80007000006560081865e0007003700d6
:101c100018017800110009000286d800a2002000f7
:101c2000110009000280d800e1df9f006fd9970002
:101c30000243b000e2df9f001a0037003045210068
:101c40000e58a3000100320020442100c1462100ab
:101c5000810054000c01be008100e9000300330044
:101c60008301d1000281d300fbff3700ef00610048
:101c7000e0c07800e1df9f000a0037000c00be00e2
:101c8000bfb197008301e900030033008100d10058
:101c90000080d300fbff3700674060000043b000c6
:101ca000e0df9f00ba0090006fda97000400fb00ad
:101cb0000168a30007003200090178008000780065
:101cc0000a00780085fd07000000e00005003a00ea
:101cd000050037008a0078002f000700e10f400060
:101ce000010032008904e8003fb097006300500013
:101cf000b0b79f00640454000b00e000a2ff3a005c
:101d00000e0478001fb797000838a30016003200b1
:101d1000dfb097000100e0001300340001047800f8
:101d20003a0090000068a300070032000901780023
:101d3000010220000a00780068fd07000000e000b2
:101d400006003a00060037008a00780000022000f2
:101d500011000700e10f4000010032008904e80093
:101d60000804e900eeff3a002fb197001240780016
:101d7000e0df9f000004e0006bfd3a0009007800fe
:101d80004f0778004f06be004f05be004f04be004f
:101d90006f01b10000000600889fbe0001047800ba
:101da000b80090008084eb000118a3003a003200d4
:101db000180190000198a30002003a000200e00020
:101dc00035003a000190a0003104980080047800aa
:101dd000f90fb2000200e00002003a002800900073
:101de000000c7800ea8f540005003a000178a30047
:101df00003003a0088007800d0002000e6ff0700ca
:101e000018009000d8009000810f50000b003200a5
:101e10000000e800100498001800780009487800d5
:101e2000000ce80011c0b300a05421000148780064
:101e3000ea8f540018003a00050037008800780047
:101e4000094078002600070080047800120037005f
:101e5000380090000088a3000f00320018019000a5
:101e6000a800900048009000e3f907009800900057
:101e7000810f500004003200380090000003b300ce
:101e8000300498008084eb000000eb001004980000
:101e900028009000000c7800090078004f04be0074
:101ea000000006000a003700b04178000304e0009b
:101eb000030032000201e900b1cf510004003200fa
:101ec0008381fb001480fb000080510000000600ad
:101ed000010278000200e000f3ff3a000000050074
:101ee0000200fa00889fbe00a0ff9f000104780056
:101ef000380090000068a30033003a00e200600060
:101f000005003a000003b300300498001104980063
:101f10000080eb002e003700d80490000900e0009c
:101f200006003a0012002000e680570048009000aa
:101f3000b1f907001904980023003700a8009000a9
:101f40000100e00008003a00d1542100210498006b
:101f5000010c780021002000510498001104980021
:101f60000030a0003004980018019000a8009000f4
:101f700048009000a0f90700280090008080eb0046
:101f800011049800aff8970001487800000ce800b1
:101f90002ff89700ea4f50000b003a0038009000ed
:101fa0000088a3000800320018019000a8009000eb
:101fb0004800900090f907000000eb001004980022
:101fc000a8009000010c7800aff897000100fb001a
:101fd0004f04be000080fa000000060000c0da00d6
:101fe00000000600020ab900001bb9000200b80098
:0c1ff00081004200810043000000060058
:020000040000fa
:101ffc0005000000d00700000400000003000000f2
:10200c000200000047550000040000005052000080
:10201c00313100003100000052520000313100001b
:10202c003100000006520000313100003150000038
:10203c0050330000333300000052000050330000d6
:10204c0033330000005000004334000030310000f6
:10205c00005000004334000030330000000000004a
:10206c0007000000030000000b0000002700000028
:10207c0025730000256900002e74000078740000a0
:10208c00004400006174000061300000303000003a
:10209c00302e0000747800007400000025730000de
:1020ac00253000003369000025300000366900003f
:1020bc0025730000003000002d3400003533000083
:1020cc003232000031000000534d0000530000007c
:1020dc0010000000110000000200000003000000ce
:1020ec0004000000050000000600000007000000ce
:1020fc0008000000090000000a0000000b000000ae
:10210c000c0000000d0000000e0000000f0000008d
:10211c001000000066e600009919000033f300007f
:10212c00cc0c000024470000504700004741000041
:08213c00000000000400000097
:020000040000fa
:102144000000fa00e18a20009140780000c0eb0012
:1021540000c068000080fb000000e9004f00de00c2
:10216400004078000080fa00000006000000fa0039
:10217400e18a20009140780000c0eb0000c06800b4
:102184000080fb000000e9004f00de000040780002
:102194000080fa00000006000000fa00d18a200046
:1021a4009140780000c0eb0000c068000080fb0094
:1021b4000000e9004f00de00004078000080fa00d3
:1021c400000006000000fa00f18a20009140780027
:1021d40000c0eb0000c068000080fb000000e900c4
:1021e4004f00de00004078000080fa000000060086
:1021f4000000fa0010c0b3000080fa0000000600de
:102204000600fa001007980021079800a2c8bf0032
:102214000004e000fdff3a000000eb00000f78002e
:1022240011003700214580003045800000804000c7
:102234001e004000800078000080840000017800c7
:10224400110009008280d8008000fd009e00780003
:102254001e0190008100410011417800418d200051
:10226400827078001e0fe8009e0078002e00900017
:10227400808f5000ebff39003045800080007800eb
:102284002e00900000804000304588001e00900021
:102294006afb07000080fa00000006001000fa0044
:1022a400889fbe0040079800510798006207980075
:1022b400730798000f0478000f00780080047800fa
:1022c400f07f8400800078007e0090000080400051
:1022d400100798001e0090008000e9002107980074
:1022e4000000e8000000e8000000d1008000400089
:1022f4000f007800818747000000e8000000d1004b
:1023040000004000300798004e0090003915070087
:10231400be009000804878005e0090004800de0017
:10232400804078003e009000114098005e009000cc
:10233400804078003e009000214098007e0090008c
:102344004800de00804078003e0090003140980054
:102354007e009000804078003e009000414098004c
:102364000000eb00000f780009003700f07f8400c4
:102374001e0040009e0078006e0190008100410024
:1023840011417800be009000827078001e0fe800b2
:102394009e0078007e009000808f5000f3ff39008b
:1023a400f07f8400800078007e00900080804000f0
:1023b4003e00900092ff07001e0078008907780015
:1023c400880778004f04be000080fa000000060071
:1023d4000200fa00a2c8bf000004a2000004e0004a
:1023e40029003200304580000000e000260034005f
:1023f40030150700000f78001e0078000000e00090
:102404001900320051458000c0818400808f500043
:1024140015003d0076ff07000004e00012003200c2
:1024240084c8bf000004a2000004e00004003200dd
:10243400504580000000e800504588001200370035
:1024440084c8bf000004e0000e0032003045800064
:102454001e01780080007800408d2000b500070040
:10246400aa28ef0008003700304580000001eb0087
:1024740080007800408d2000ae000700aa28ef00fd
:1024840001003700000000000080fa000000060090
:102494000400fa00004f7800110798001e00900015
:1024a400e10f500008003200e10f50000300390032
:1024b400e40f500007003200090037001e40780086
:1024c400fc180700060037001e4078003419070086
:1024d400030037001e4078008f1907000000000039
:1024e4000080fa00000006000400fa0010079800bb
:1024f4001e009000e10f500012003200e10f500066
:1025040005003900e30f500019003200e40f5000b9
:10251400190032001a003700a868ef00c418070039
:10252400004f7800a8c8bf000004a2000004e00027
:10253400020032001e407800120037000040eb0019
:1025440010003700ac68ef00f4180700104798003b
:10255400acc8bf000004a2000004e0000200320086
:102564001e409000070037000040eb0005003700d4
:10257400b40f0700030037005819070001003700a3
:1025840000c0eb000080fa00000006000400fa001e
:10259400100798000000eb00000f78000a003700d5
:1025a4001e0078009e0090000080400010407800db
:1025b4008000eb00b6ff0700a0002000010020000f
:1025c4008e1307001e0fe800108084009e00780020
:1025d400808f5000f2ff35000080fa0000000600f2
:1025e4000a00fa003007980041079800d18184005e
:1025f4003080840000805000100798009e009000f6
:102604004e009000008040004800de0040479800e3
:102614001e009000804078004e009000004078003a
:1026240000c04000504798000000eb00000f780005
:102634003a0037001e007800e20f50001a00320002
:10264400e20f500005003c000000e0000a003200e8
:10265400e10f50000e00320023003700e40f500059
:1026640019003200e40f500013003500e50f50004c
:10267400190032001c003700800029001e004000b1
:10268400104078001100200081ff0700220037006d
:10269400800029001e004000104078001100200036
:1026a4007bff07001c003700110020000040eb00f6
:1026b40077ff070018003700110020000040eb00ee
:1026c40073ff070014003700110020004e409000f3
:1026d4006fff070010003700110020005e409000db
:1026e4006bff07000c0037009e007800600020009c
:1026f40000017800110009008200d8008000fd006c
:10270400be009000008040001040780011002000be
:102714005fff0700000000001e0fe800d081840066
:102724009e007800808f5000c2ff35000080fa00c0
:10273400000006001200fa00500798006107980094
:10274400720798000040eb00004f780010c0b300ff
:10275400a2e8b7008c00370020458000de0090001e
:102764000080400090407800414798002045800058
:102774000000e800800078000080840000017800f8
:10278400110009008280d8008000fd00de00900066
:102794000080400090417800534798002045800015
:1027a4000080e80080007800008084000001780048
:1027b400110009008280d8008000fd00de00900036
:1027c40000804000904178006347980020458000d5
:1027d40063004000800078000080840000017800dd
:1027e400110009008280d8008000fd00de00900006
:1027f40000804000104078000080fb004800dd00ad
:10280400000f98002045800064004000000178001b
:102814000080840080017800110009000381d80041
:102824008000fd005e01900000004100104078002f
:102834000080fb008e0890000100700010079800d3
:10284400008084009e009000808f50000d003600b0
:1028540010c0b300004f7800008084000001eb003a
:1028640080007800408d20001c130700a428ef008e
:10287400a628ef000000eb00600798000000eb00c2
:1028840010079800ce4090005e40900000c04000c9
:10289400704798006e419000024f98001e407800e7
:1028a4000004a2000004e00037003200ec0107003d
:1028b4000004a2000004e000330032007e00900017
:1028c400e10f50000b003200e10f5000030039000b
:1028d400e20f50000d0032001b0037009e019000f3
:1028e4000e499000fe4090005e0090002c0007000e
:1028f400150037009e0190000e499000fe409000a4
:102904005e009000a50007000f0037009e019000b4
:102914000e499000fe4090005e0090009f0007006a
:102924000004a2000004e000060032009e019000b2
:102934000e499000fe4090005e00900018000700d1
:102944000100370000000000f07f8400ee009000da
:1029540000805000800078001e009000808f50009e
:1029640007003200f07f8400ee00900000805000e9
:10297400800078001e0090000080500001003700a5
:102984000000eb00600798006e0090000000e0007b
:1029940071ff3c00a268ef000080fa00000006000e
:1029a4000c00fa0030079800014f9800124f98006d
:1029b4005307980021458000f07f840001017800ce
:1029c40080007800408d2000c4120700214580005b
:1029d400f07f840000804000800078000080840044
:1029e40000017800110009008280d8008000fd00f9
:1029f4002045880031458000f07f8400008050002d
:102a04000000e00001003d000000eb0030458800bc
:102a14000000eb00000f78005a00370000000000af
:102a24008f0107000004e000fdff3a004049210047
:102a3400d6fe07008000eb000e48900094fe0700cd
:102a44008000eb001e48900091fe07000000eb00a0
:102a54008e1307000080fb000080e9002007980027
:102a64000000eb00100798001b0037009e00900048
:102a74001e0078005e01900000005100808f50001d
:102a8400040039008000eb000040eb0080fe0700ea
:102a94000e003700214580001e0090000080400099
:102aa4008000780000808400000178001100090093
:102ab4008280d8008000fd00be00900000804000ad
:102ac400104078008000eb0071fe07001e009000ab
:102ad4000000e800100798009e0090002e0090006f
:102ae400808f5000e1ff39000000eb000001070077
:102af4000004e00023003200224580001e0078001c
:102b0400de00900000805000ae009000810f500065
:102b1400010036000100780080007800408d20001c
:102b24006e1207001e007800de0090000080500046
:102b34009e009000810f50000100360001007800d3
:102b4400214580008100400000808400000178005d
:102b5400110009008280d8008000fd002045880013
:102b6400314580001e009000008050000000e0000d
:102b740001003d000000eb00304588001e0090007d
:102b84001e0f40009e0078005e009000808f500071
:102b9400a2ff39000080fa00000006002a04fa00af
:102ba4004442200004024700000a780060422000ea
:102bb40000004700014878007042200000004700f0
:102bc4000248780080422000000047000308780093
:102bd40000000000220107000004e000fdff3a00ad
:102be4008000eb00d00129007dfe070010002000ca
:102bf400bf0007000004e000ba0032008e00780035
:102c0400c103b000f30109008018eb006a0147001a
:102c1400180009000019eb00804220000000470062
:102c24009000780065804000300798003e019000d5
:102c3400604220008000470000cfb3009140600054
:102c44006a00470011010700be0090000100400027
:102c54006b004000100798001e00900061006000a7
:102c6400004078000004e000030032001e009000e1
:102c74000000e800100798000000eb00200798000f
:102c8400c10320008e8040002e0090000080400090
:102c94008040eb00014878002e0090000000e8001e
:102ca40020079800c10320008e8040002e00900071
:102cb400008040008040eb00014878002e00900026
:102cc4000000e800200798001e0090004800de0085
:102cd40080407800c20320000e0141002e009000c5
:102ce40000004100014878002e0090000000e80038
:102cf400200798001e00900080407800c203200046
:102d04000e0141002e0090000000410001487800af
:102d14002e0090000000e8002007980030022900ef
:102d2400c10320008e80400054002000ae019000ba
:102d34000001eb0032120700ae009000008040005a
:102d4400200798006a00470016f907000001780080
:102d54006a004700c10320008e8040000202780010
:102d6400ae0190000001eb0025120700ae009000b8
:102d7400008040002007980021458000c003200007
:102d84000e00400042422000820247003e029000b2
:102d9400ae019000010178008000780015007800f1
:102da40017120700ae009000008040002007980032
:102db4002e00900061006000004078000004e000f4
:102dc40009003200c10320008e8040002e009000d4
:102dd400008040008040eb00014878002e00900005
:102de4000000e80020079800c00320000e00400007
:102df4000001eb00ae009000451607004007980064
:102e0400800029001040780011002000a0fd070078
:102e14009000290010407800110020009cfd07005c
:102e24000000eb00000f780007003700c00320000b
:102e34000e0040001e0040001040780011002000e9
:102e440093fd07001e0fe8002e0090009e007800fe
:102e5400808f5000f5ff35004e0090004800de00e2
:102e6400004078001100200089fd07004e0090000a
:102e7400004078001100200085fd070010002000ac
:102e84001b0007000004e00016003200204580000b
:102e940000017800be009000408d20008f110700d3
:102ea400214580003e0090000080400080007800b2
:102eb4000080840000017800110009008280d8009d
:102ec4008000fd0020458800314580003e009000d0
:102ed400008050000000e00001003d000000eb0015
:102ee4003045880010c0b3000080fa0000000600de
:102ef4000600fa002007980010c0b300204798008d
:102f04002e0090000000e00008003200e10f5000a5
:102f1400220032004f003700a8c8bf000004e000c0
:102f24000300320010c0b3004b0037000000000063
:102f34002e0090006cfd0700a1cab300814f500021
:102f4400f5ff3a0005003700a8c8bf000004e00000
:102f54000200320010c0b3003f0037002e00900082
:102f640061fd0700e54f5000f7ff3a002e00900086
:102f74005dfd07000080fb000000e9004f00de005b
:102f84002047980033003700acc8bf000004e000bd
:102f9400030032000040eb002f0037000000000067
:102fa4002e00900050fd070071c4b300814f500003
:102fb400f5ff3a0005003700acc8bf000004e0008c
:102fc400020032000040eb00230037002e00900086
:102fd40045fd070051c5b300814f5000f6ff3a008c
:102fe4000000eb00000f78000f0037001e0078008f
:102ff400e40f500008003a002e0090003afd07004c
:1030040060c0b2000080fb000000e9004f00de0059
:1030140020479800030037002e00900032fd07007f
:10302400000000001e0fe800d1818400308084007d
:10303400008050009e0f5000ecff3c00acc8bf0065
:103044000004e000020032000040eb000200370000
:10305400000000002e4090000080fa0000000600ee
:103064000000fa00d01680004a00de0061406000d3
:103074008080fb0010c0b3000100e00001003c00b0
:103084000040eb000080fa00000006002400fa0073
:10309400700f980001679800121798001006290015
:1030a400e100470008000900b05878009000b10022
:1030b400ea004700090009008018eb000e60900048
:1030c4000080fb0001022000810f50001a00320032
:1030d40001022000810f500003003c00f00f50005b
:1030e400080032003b00370001032000810f50002c
:1030f4001e00320001042000810f5000280032001d
:103104003400370090458000800078000000e8001b
:10311400904588006a004700811f7800814921009a
:10312400811f7800e1032900811f780054f807000b
:10313400e68757002c003700a04580008000780007
:103144000000e800a04588006a004700811f78005d
:10315400014a2100811f7800e1032900811f7800c2
:1031640047f80700e68757001f003700b045800086
:10317400800078000000e800b04588006a0047003d
:10318400811f7800814a2100811f7800e103290012
:10319400811f78003af80700e687570012003700cd
:1031a400c0458000800078000000e800c045880029
:1031b4006a004700811f7800014b2100811f7800bd
:1031c400e1032900811f78002df80700e6875700e6
:1031d400050037006a004700d2002000710429006e
:1031e400e2f70700000000006a004700edf707005f
:1031f400004f78001e80fb00ea004700811f780022
:103204009e109000811f7800801f78000e00e80057
:10321400801f780040052900801f78007e089000f8
:1032240017f80700ea8757000080fa00000006003c
:103234000600fa008000eb00f0022900e8fc070019
:10324400100020002aff07000004e00022003200e2
:10325400f0002000200798000000eb00000f780029
:10326400120037001e007800ee0f500003003200f9
:10327400ef0f500005003200080037001000200056
:1032840099fc070020479800070037001000200031
:1032940095fc070030479800030037001000200019
:1032a40091fc0700000000001e0fe8002e009000b3
:1032b4009e007800808f5000eaff35002e40900079
:1032c4000080fb00c800dd003e4090000080fb0051
:1032d40001007000010037000080eb000080fa005c
:1032e400000006001800fa00c1fb07000004e0001b
:1032f4007a0032008000eb0090022900b8fc07003d
:1033040010002000fafe07000004e0007300320001
:1033140003003700acc8bf000004e0006c003a00b2
:103324001000200070fc070071c4b300814f5000ee
:10333400f8ff3a0003003700acc8bf000004e00007
:1033440065003a001000200067fc070051c5b30077
:10335400814f5000f8ff3a00d00020001007980079
:103364000000eb00000f78002d0037001e007800ed
:10337400eb0f500011003200eb0f500003003c0033
:10338400ea0f50000600320021003700ec0f500015
:1033940011003200ed0f5000160032001c003700ff
:1033a4001000200050fc07000080fb008000eb00b0
:1033b40040079800510798001800370010002000bb
:1033c40049fc07000080fb008000eb0060079800c8
:1033d40071079800110037001000200042fc07001c
:1033e4000080fb008000eb00000f9800110f980094
:1033f4000a003700100020003bfc07000080fb009f
:103404008000eb00200f9800310f98000300370074
:103414001000200034fc0700000000001e0fe8002c
:103424001e0090009e007800808f5000cfff350072
:103434002e089000be089000c801dd0002002000a4
:103444000e0890009e089000c000dd0000002000df
:1034540000017100818171006e029000fe029000f3
:103464004828dd00c820de00810070004820dd000f
:1034740000017100818171004e009000de00900017
:1034840000007100818071002007980031079800c6
:103494002e009000be00900084f50700020020007a
:1034a4000304240000f50700020020001356240042
:1034b400d3f5070002002000031c2400d0f5070008
:1034c4005cf50700e0438800f143880003003700ff
:1034d4000000000001003700000000000080fa0036
:1034e400000006000c00fa00a0062900e7004700cf
:1034f40003000900b05878004000b1000040eb0020
:10350400204798003afb07000004e000ec0032007a
:10351400a2c8bf000004a2000004e000ea003200d8
:103524008000eb00c00029002dfc070010002000e3
:103534006ffe07000004e000e500320003003700de
:10354400acc8bf000004e000e3003a001000200013
:10355400e5fb070071c4b300814f5000f8ff3a0047
:1035640003003700acc8bf000004e000dc003a00f0
:1035740010002000dcfb070051c5b300814f500050
:10358400f8ff3a0003003700acc8bf000004e000b5
:10359400d5003a0010002000d3fb07000004e0002f
:1035a400f9ff3a0003003700acc8bf000004e00094
:1035b400cf003a0010002000cbfb07000004e0001d
:1035c400f9ff3a0003003700acc8bf000004e00074
:1035d400c9003a0010002000c3fb07000004e0000b
:1035e400f9ff3a0010002000bffb07000080fb0039
:1035f4000003b1002007980003003700acc8bf00e7
:103604000004e000be003a0010002000b6fb0700f2
:103614008080fb0020012900104078000000fb009e
:10362400808f5000f5ff3a0003003700acc8bf009c
:103634000004e000b4003a0010002000aafb0700d8
:103644008080fb0030012900104078000000fb005e
:10365400808f5000f5ff3a0003003700acc8bf006c
:103664000004e000aa003a00100020009efb0700be
:103674008080fb0040012900104078000000fb001e
:10368400808f5000f5ff3a0003003700acc8bf003c
:103694000004e000a0003a001000200092fb0700a4
:1036a4008080fb0050012900104078000000fb00de
:1036b400808f5000f5ff3a0003003700acc8bf000c
:1036c4000004e00096003a001000200086fb07008a
:1036d4008080fb0060012900104078000000fb009e
:1036e400808f5000f5ff3a000000eb00000f7800d7
:1036f40003003700100020007bfb07001e0fe800ca
:103704001e007800f00f5000faff34000300370069
:10371400acc8bf000004e00083003a0010002000a1
:1037240071fb07008080fb007e4090000000fb00de
:10373400808f5000f6ff3a0003003700acc8bf008a
:103744000004e0007a003a001000200066fb070045
:103754008080fb000e4890000000fb00808f50002a
:10376400f6ff3a0003003700acc8bf000004e000d5
:1037740071003a00100020005bfb07008080fb0012
:103784001e4890000000fb00808f5000f6ff3a00b6
:103794000000eb00000f7800030037001000200049
:1037a40051fb07001e0fe8001e007800ed0f5000cb
:1037b400faff3400100020004bfb070051c5b30092
:1037c400814f50000200320010c0b300204798001f
:1037d4001000200044fb0700e1c4b300814f5000f7
:1037e4000200320010c0b3002047980010002000ef
:1037f4003dfb070091c4b300814f5000020032002a
:1038040010c0b300204798001000200036fb0700ca
:1038140041c5b300814f50000200320010c0b30014
:1038240020479800100020002ffb070051c4b3006c
:10383400814f50000200320010c0b30020479800ae
:103844000001eb00ae009000400a2100380f070091
:103854000000eb00000f7800090037001000200082
:1038640021fb0700604798006e409000ef40600025
:10387400400a21001e004000014878001e0fe800a5
:103884002e0090009e007800808f5000f3ff3500da
:103894008000eb008001290051fb07002e409000be
:1038a4000004a2000004e000250032002e00900075
:1038b40080007800400a2100db0407002100370063
:1038c400000000001f003700000000001d0037004a
:1038d400000000001b003700000000001900370042
:1038e400000000001700370000000000150037003a
:1038f4000000000013003700000000001100370032
:10390400000000000f003700000000000d00370029
:10391400000000000b003700000000000900370021
:103924000000000007003700000000000500370019
:103934000000000003003700000000000100370011
:10394400000000000080fa00000006000c00fa00ed
:1039540000000000c2fd07000004e000fdff3a0083
:10396400a2c8bf000004a2000004e0002f0032003f
:10397400804b210005fb0700a48b20001442780033
:10398400d38a200093417800e28a20001241780013
:10399400f18a200091407800b0c8bf0015c0b30080
:1039a400254798003447980024c0b3004447980042
:1039b4005347980033c0b300634798007247980098
:1039c40042c0b300024f9800114f980051c0b30099
:1039d400214f9800304f98000000eb00000f780052
:1039e4000d0037001e007800e90f500006003c006f
:1039f4000e80e8001e004000104078008000eb00bc
:103a0400a3fa0700030037008000eb000040eb003e
:103a14009ffa07001e0fe800200220009e00780095
:103a2400808f5000efff3400020007000080fa008e
:103a3400000006000200fa00000000000000eb0095
:103a4400a9fa070001c5b300814f500005003200f8
:103a5400a8c8bf000004a2000004e000f7ff3a0079
:103a640001003700000000000000eb009efa070090
:103a740001c5b300814f500005003200a8c8bf0043
:103a84000004a2000004e000f7ff3a000100370040
:103a9400000000000000eb0093fa070001c5b3002a
:103aa400814f500005003200a8c8bf000004a200e6
:103ab4000004e000f7ff3a000100370000000000b6
:103ac4000000eb0088fa0700eb4f500004003200be
:103ad400a8c8bf000004a2000004e000f8ff3a00f8
:103ae4000000eb005efd07000004a2000004e000fb
:103af400540032000000eb00000f78004d00370046
:103b04001e0078006101b900d0ff2f00f1ff2f00e3
:103b1400020040008380480032022000030020009d
:103b2400820f5000838f58003d003e00006001006a
:103b3400230037003a0037002500370038003700eb
:103b440027003700360037002900370037003700d8
:103b540036003700350037003400370033003700b3
:103b64003200370031003700300037002f003700b3
:103b74002e0037002d0037002c0037002b003700b3
:103b84002a003700290037002800370027003700b3
:103b940026003700250037002400370023003700b3
:103ba4002200370021003700200037001f003700b3
:103bb4001e0037001d0037001c00370010003700be
:103bc4000000eb0048fa0700ade8b7001800370022
:103bd4000000eb0044fa0700aee8b7001400370019
:103be4000000eb0040fa0700afe8b7001000370010
:103bf4000000eb003cfa0700b0e8b7000c00370007
:103c04000000eb0038fa07000080fb000000ea0027
:103c14004f00de000040780084e8b700040037005d
:103c24000000eb0030fa070001003700000000003c
:103c34001e0fe800e08184009e007800808f500011
:103c4400afff35000080fa00000006000200fa0011
:103c5400004f78001e4078000004e00003003200aa
:103c640000c0eb00aee8b7000200370000c0eb0074
:103c7400aee8b7000080fa00000006000200fa0077
:103c8400004f78001e407800f0ff07000080fa0023
:103c9400000006000200fa00004f78001e40780081
:103ca4000004e0000300320000c0eb00ade8b70000
:103cb4000200370000c0eb00ade8b7000080fa0056
:103cc400000006000200fa00004f78001e40780051
:103cd4000004e0000300320000c0eb00afe8b700ce
:103ce40001003700af68ef000080fa000000060012
:103cf4000000fa0010c0b3002ee8b7000080fa00fc
:103d0400000006000000fa0010c0b30031e8b7005c
:103d1400210107000080fa00000006000000fa00fc
:103d2400620107000080fa00000006000000fa00ab
:103d3400120220008000eb00b02b210012f50700d6
:103d44009560a8000080fa00000006000000fa0058
:103d5400889fbe002428ef002628ef002e68ef007d
:103d64006668ef00c21220008000eb00e01421001e
:103d740005f507000828ef001028ef001228ef00cf
:103d840011002000200020000d0707000004be00e1
:103d940020382100590e07006509b9000201780096
:103da4006002b9008401780003014100530020003f
:103db4000300b80001014100820078000001be0048
:103dc4000800be00c2f30700000478002038210078
:103dd400690e07000000780000004400f0428800eb
:103de4004f04be000080fa00000006000000fa0044
:103df400881f7800401107002828ef002a28ef00c8
:103e04003068ef00084380000044800011448000c3
:103e1400e7f207000000780088017800a22721005b
:103e240080007800400020001cf9070012022000e6
:103e34008000eb00a0272100d3f407000a28ef003c
:103e44001428ef001628ef004f0478000080fa00d1
:103e5400000006000000fa00881f78001843800064
:103e64000044800011448000d1f207000000780073
:103e740088017800b22921008000780030002000f9
:103e840006f90700020220008000eb00b02921009f
:103e9400bdf407000c28ef001828ef001a28ef00e3
:103ea4004f0478000080fa00000006000000fa00c9
:103eb400881f78009560a900c02d21009e0207008c
:103ec40070408000f40f50000d003400284380003f
:103ed4000044800011448000b5f20700000078001f
:103ee40088017800b22b2100800078007000200047
:103ef400eaf8070010c0b3005ce8b700010037001f
:103f04005c68ef00120220008000eb00b02b21005f
:103f14009df407000e28ef001c28ef001e28ef0078
:103f24000228ef004f0478000080fa000000060029
:103f34000000fa00889fbe002ec8bf000004e00005
:103f44002c0032002f68ef007710070066c8bf000e
:103f54000004e00002003200808484000100370085
:103f6400908484009041880066c8bf000004a200c9
:103f74000080fb000040780066e8b70020000700de
:103f8400204180003141800061004000e080480011
:103f94002041880031418800284180003941800057
:103fa40020382100f40d07008100d1000080d300e7
:103fb400800f5400818f5c0005003a0010c0b300ec
:103fc4002fe8b700b0848400904188004e100700a9
:103fd40020382100e80d07000001be0020418000c8
:103fe40031418000800f5100818f590001003e0053
:103ff40056ff07004f04be000080fa0000000600d0
:104004000400fa00889fbe008a9fbe00708484006a
:104014000001eb0080007800e00e2100440d070051
:10402400f322a90090418000c10b0700f322a800ed
:1040340051438000404380000101780080007800f3
:10404400e00e2100540e070030002000000f78001d
:10405400404080001e027800800178000001eb00df
:10406400e1142100e00e2100480d070040408000cb
:104074001e004000404088002fc8bf000004e0003c
:1040840041003200a08484004200dd006104b800d5
:104094001100200020002000490607000005be0092
:1040a40020382100950d07000001be000a00be0063
:1040b40007f30700520020000300200004f3070068
:1040c4000001be000800be0001f3070000007800f4
:1040d4000000e8001007980067c8bf008080fb005c
:1040e40090418000008040000000e00002003200a7
:1040f4001e009000020037001e0090000000ea003d
:10410400a1848400810f50000b003e0067c8bf00eb
:104114008080fb0090418000008040000000e000af
:1041240003003a001e0090000000ea00010037007e
:104134001e00900001003700a0848400b184840034
:10414400810f500001003100010078009041880087
:104154009041800080007800a0848400808f50000b
:1041640002003a006768ef000700370090418000c2
:1041740080007800b0848400808f500002003a00f0
:1041840010c0b30067e8b7004f05be004f04be007f
:104194000080fa00000006000400fa007084840025
:1041a4000001eb0080007800e0102100e00c070023
:1041b4007143800060438000010178008000780032
:1041c400e0102100f40d07000000eb00000f780060
:1041d400120037001e00780080004000e01021002b
:1041e400008040001000780081df2f0080804000b4
:1041f4002000200000017800110009008200d8008e
:10420400800078001e00780000014000e0102100ca
:1042140000004100010878001e0fe800708484004b
:104224009e007800808f5000eaff350030002000a7
:1042340010079800504080001e0290008001780012
:104244000001eb00a1272100e0102100cf0c0700a2
:10425400514080001e0090000080400050408800c3
:10426400504080008000780000438000808f500020
:104274000c003900ddfe07006141800010c0b3006e
:10428400e98f500001003c000040eb008100e80091
:10429400614188000004e000020032003168ef0050
:1042a4002c28ef000080fa00000006000400fa0049
:1042b400708484000001eb0080007800e01221008b
:1042c4009b0c07009143800080438000010178002b
:1042d40080007800e0122100af0d07000000eb0021
:1042e400000f7800100037001e00780080004000a6
:1042f400e01221000080400090007800400020007f
:1043040000017800110009008200d80080007800c4
:104314001e00780000014000e0122100000041006e
:10432400010878001e0fe800708484009e00780065
:10433400808f5000ecff35008000200010079800ab
:10434400604080001e029000800178000001eb00b4
:10435400b1292100e01221008c0c0700614080008b
:104364001e00900000804000604088006040800093
:104374008000780010438000808f500001003900d5
:10438400b4fe07000080fa00000006000600fa00f0
:1043940010079800210798000000eb00000f780038
:1043a4000f003700704080001e004000800078003d
:1043b40020438000808f500008003100704080004e
:1043c4001e0040009e0078001e0190008100410004
:1043d40011417800b12b2100827078001e0fe80093
:1043e4002e0090009e007800808f5000edff350075
:1043f400704080001e004000704088000080fa0079
:10440400000006000400fa001007980030002000a5
:1044140035f80700004f78001e009000e10f4000bf
:104424000f003a0040c2b3009e40780080cf500095
:1044340024003a001e0090000000e80010079800d5
:10444400c12d21001e009000008040001e4878000d
:104454001e0090000000e8001007980019003700c3
:1044640040c2b3009e40780080cf500003003a0061
:104474000000eb00100798000b0037001e40780086
:10448400ea4f5000040032009e009000a004200077
:10449400808f500004003a00e0ff2f0010079800be
:1044a4000068ef0081fe0700c12d21001e0090006e
:1044b400008040001e4878001e0090000000e800c4
:1044c400100798001e0090000080fa00000006000b
:1044d4000c00fa0020079800310798004207980062
:1044e400234f98000000eb00000f78000000eb0061
:1044f400100798004e009000610060000000e0008a
:104504009c003a002a0037001e0078006100600019
:104514000000e0000f003a00be0090001e00900072
:1045240000804000ae00900000804000be0090007b
:104534009e8040002e01900081004100914078004f
:104544008100fb00c408dd00814078000148780048
:10455400160037001e009000be009000810040004d
:104564002e019000810041003e01900002004000b5
:104574002e019000000041001040780000417800b6
:104584003e0090001e004000ae01900000804100fb
:10459400104078006f40600000404100804878007f
:1045a4001e0090000000e800100798001e0fe800ad
:1045b4004e0090009e007800808f5000d2ff35009e
:1045c4001e009000700037002e4890000004e000a8
:1045d4002a0032001e007800610060000000e00044
:1045e4000f003a00be0090001e00900000804000c2
:1045f400ae00900000804000be0090009e8040000d
:104604002e01900081004100914078008100fb0060
:10461400c408dd0081407800014878005400370068
:104624001e009000be009000810040002e0190000a
:10463400810041003e019000020040002e019000e4
:104644000000410010407800004178003e009000d6
:104654001e004000ae019000008041001040780030
:104664006f40600000404100804878001e009000c8
:104674000000e800100798003d0037001e00780095
:104684000000e00010003a001e009000be00900000
:10469400810040002e019000810041003e01900005
:1046a400020040002e0190000000410010407800fc
:1046b4006f406000804878001e0090000000e80011
:1046c400100798002a0037009e007800618060007f
:1046d400004078000004e0000f003200be009000ab
:1046e4001e00900000804000ae009000008040005a
:1046f400be0090009e8040002e0190008100410089
:10470400914078008100fb00c408dd0081407800fe
:1047140001487800160037001e009000be0090008b
:10472400810040002e019000810041003e01900074
:10473400020040002e01900000004100104078006b
:10474400004178003e0090001e004000ae01900041
:1047540000804100104078006f406000004041003c
:10476400804878001e0090000000e80010079800c0
:104774001e0fe8004e0090009e007800808f5000cd
:1047840091ff35001e0090000080fa000000060032
:104794002200fa00600f9800710f98000217980029
:1047a400e8004700090009008018eb000040eb0016
:1047b400004f78000000eb00100798000000eb00a9
:1047c400200798000000eb0030079800270037000e
:1047d400fe0890001e00900000804000ee0890004b
:1047e4000080400090407800e0c2b30080cf5000c9
:1047f4000a003a00680047009e4178001e019000bc
:10480400be00900032ff070030079800be00900001
:104814002107980010c0b300004f78001e407800b4
:104824000004e000050032002e009000ae0090006d
:104834008100e80021079800010037001e00900065
:104844007e0990009e009000810041006e09900056
:104854008100410091407800000047000148980021
:104864001e0090000000e80010079800fe08900069
:104874001e00900000804000ee0890000080400080
:1048840090407800c0c2b30080cf5000d0ff3a00ff
:10489400ae0090003e009000008150003e00900069
:1048a4008000e800680047009e41780008ff070088
:1048b400be00900001004000200798000e109000f8
:1048c400e10f5000060032002e0090000000e800c6
:1048d4002007980068004700ae009000abfe070078
:1048e4000e109000e10f500003003200e90f500059
:1048f400080032000b0037002e0090000000e80092
:104904002007980068004700ae009000a805070043
:104914000400370068004700ae009000f10507006e
:10492400000000001e009000004078000040e900f4
:104934000080fa00000006000e00fa0060079800ec
:10494400c0c2b3004047980080092900e500470031
:1049540006000900b05878007000b1000000eb00b8
:10496400000f7800840037001e007800ee009000ed
:104974000080400090407800c0c2b30080cf500057
:1049840004003a00104080000000e8001040880055
:104994007800370010408000e30f500036003200ea
:1049a400e30f500005003e00e10f50001f003200ed
:1049b400e10f500025003e0009003700e50f5000cc
:1049c40048003200e50f500039003900e90f50006b
:1049d40052003200ea0f50005d00320065003700db
:1049e40065004700800078006e00900001f2070027
:1049f400100798001e0090000000e00003003a0039
:104a0400a0042000000f78005a003700650047001a
:104a1400e4f10700800078001e0078000080400068
:104a24000000e900000f78005200370010408000b9
:104a3400000178009e0078006e00900054ff07008b
:104a44000080fb001e0f40004a0037001040800029
:104a5400000178009e0078006e0090004cff070073
:104a64000080fb001e0f400064004700110020007e
:104a740046fe07003f0037001e007800ee0090005d
:104a840000804000104078004047980064004700d0
:104a9400110020003dfe0700c0c2b300404798004b
:104aa400640047001100200038fe07003100370081
:104ab40010408000000178009e0078006e00900095
:104ac40033ff07000080fb001e0f4000c0c2b3008c
:104ad4004047980064004700110020002bfe0700a7
:104ae400240037001e007800ee0090000080400093
:104af40010407800404798006400470011002000ef
:104b040022fe0700c0c2b30040479800640047007b
:104b1400110020001dfe0700160037001040800021
:104b2400000178009e0078006e00900018ff0700d6
:104b34000080fb001e0f4000c0c2b3004047980035
:104b4400640047001100200010fe07000900370030
:104b54001e007800ee0090000080400010407800b5
:104b640040479800640047001100200007fe07003a
:104b7400000000001e0fe800900420009e00780052
:104b8400808f500078ff34000080fa000000060097
:104b94000000fa00f4e2a900f00f2000e408070086
:104ba40000f02f00e2080700f4e2a8000080fa00f9
:104bb400000006000200fa00c1438000b0438000f8
:104bc400010178008000780020362100720b070074
:104bd4000000eb00000f78000d0037001e00780085
:104be40080004000203621000080400090007800c2
:104bf4004000200000017800110009008200d80064
:104c0400004078004100200021f607001e0fe80054
:104c1400c04380009e007800808f5000efff350075
:104c24000080fa00000006000800fa00200798003f
:104c3400310798000000eb00000f780043003700b4
:104c4400310020002e009000d60207000004e0008e
:104c54003c0032009e007800638f40000a00370059
:104c640070448000800078000000e80070448800f0
:104c74001e0078002e0190000000410010407800d2
:104c84001e0fe8003e000700a0c8bf000004a200f9
:104c94000004e000040032009e0078003e00900012
:104ca400808f5000eeff3900804480000000e00057
:104cb4002600320000552100104078008080fb005f
:104cc400803e20000088b9000001780010552100c2
:104cd400104078008080fb00400620000088b90066
:104ce40000007800000141002055210010407800a8
:104cf4000080fb006a00b9000000780080004100d9
:104d040030552100104078000080fb0000804000f6
:104d1400100798001e0090008000eb00b344800050
:104d2400a244800097448000864480000002be00b4
:104d3400870078000600780048000700a068ef00ac
:104d440002003700be009000010f78009e0078003a
:104d54003e009000808f5000b9ff39000080fa00b7
:104d6400000006000000fa008e28ef009e28ef00e5
:104d740010c0b300a0e8b7000080fa0000000600ed
:104d84000400fa00004f7800110798001e009000fc
:104d9400e20f500018003200e20f500005003e0000
:104da4000000e0000a003200e10f50000f00320062
:104db40023003700e40f500015003200e40f5000c8
:104dc40010003900e50f5000170032001c003700b6
:104dd4001e80fb0080448800804480000000e000c6
:104de4001b003a00dfff07001a0037001e80fb009b
:104df40090448800170037001e80fb00a044880000
:104e0400140037001e80fb00b044880011003700f6
:104e14001e80fb000000ea004f00de000040780026
:104e240098e8b7000b0037001e80fb000000ea0082
:104e34004f00de000040780099e8b7000500370015
:104e44001e407800b0020700000000000100370097
:104e5400000000000080fa00000006002a00fa00aa
:104e6400889fbe00700f98000117980012179800d1
:104e74002317980034179800451798000040eb005a
:104e8400004f78000040eb00204f98007e0890000f
:104e9400e50f50002a003200e50f50000c003e00e0
:104ea400e20f500012003200e20f500003003e00f7
:104eb400e10f50000900320022003700e30f5000d8
:104ec40010003200e40f5000130032001d003700c0
:104ed400e70f5000150032001a003700c08b200085
:104ee4006007980010c0b300204f980015003700e9
:104ef400203821001007980010c0b300004f78003c
:104f040010003700203b21001007980010c0b300a8
:104f1400004f78000b003700203e21001007980056
:104f240010c0b300004f7800060037002041210074
:104f34001007980010c0b300004f7800010037003c
:104f4400000000000e109000e20f50001800320024
:104f5400e20f500003003e00e10f50000600320053
:104f640050003700e30f50001f003200e40f5000e0
:104f74002b0032004b0037001e4078000004e00094
:104f8400040032001e0090006c00400020079800ce
:104f9400440037002e4890000004e0003a0032003c
:104fa4006e0090000080e800700798003d00370014
:104fb4001e4078000004e000040032001e0090004f
:104fc4007800400020079800360037002e489000f3
:104fd4000004e0002e0032006e00900064004000e7
:104fe400700798002f0037001e4078000004e0008e
:104ff400040032001e0090004002b0002007980018
:10500400280037002e4890000004e00022003200ff
:105014006e00900066004000700798002100370081
:105024001e4078000004e0000a0032001e009000d8
:105034006c004000200798001e009000780040009b
:10504400300798001e0090004002b000400798000e
:10505400140037002e4890000004e00010003200d5
:105064006e0090000080e800700798006e009000c9
:1050740064004000000f98006e009000660040003d
:10508400100f9800070037000000000005003700eb
:10509400000000000300370000000000010037009a
:1050a400000000001000200001002000200f9800e4
:1050b400310f98001e109000e30f50003b013200a6
:1050c400e30f500005003e00e10f50000a003200db
:1050d400e20f50007b003200af013700e50f5000b3
:1050e40099013200e50f50008d013900e60f5000a0
:1050f4009f013200a801370098c8bf000004e000f7
:1051040031003200310020002e1090002c020700e4
:105114003e1190000191b90002017800ce11900077
:10512400009ab9008401780003014100be11900087
:105134000018b80001014100820078002e0190009f
:105144000089be00310020002e1090001c020700d0
:105154003e1190000191b90002017800ce11900037
:10516400009ab9008401780003014100be11900047
:105174000018b80001014100820078003e0190004f
:105184000089be00310020002e1090000c020700a0
:105194003e1190000191b90002017800ce119000f7
:1051a400009ab9008401780003014100be11900007
:1051b4000018b80001014100820078004e019000ff
:1051c4000089be00740137002e0090001000be005c
:1051d40000047800310020002e109000f801070030
:1051e400800078003e1090000088b900000078002c
:1051f40000005400400f98007e089000e30f500018
:105204001c003200e30f500003003e00e20f500088
:105214000600320029003700e40f50000c00320071
:10522400e70f50001c003200240037004e089000a5
:105234006101b9008040800091408000020040007c
:105244008380480080408800914088001c0037001b
:105254004e0890006101b900a0408000b140800078
:105264000200400083804800a0408800b1408800cc
:10527400130037004e0890006101b900c04080005f
:10528400d14080000200400083804800c040880074
:10529400d14088000a0037004e0890006101b9002f
:1052a400e0408000f140800002004000838048001c
:1052b400e0408800f1408800010037000000000051
:1052c400350137007e089000e20f500003003200e1
:1052d400e40f500033003200650037001100200055
:1052e4002e109000b6010700520020000300200099
:1052f40077ee0700200f9800310f98002e009000e1
:1053040040049000d00490001100200020002000f0
:10531400ab01070000c9b90002017800088ab9008e
:1053240084017800030141000042b80005014100f6
:10533400820278002e089000be0890003e11900072
:105344000191b90002017800ce119000009bb900d0
:105354008601780003014100be1190000018b800d6
:1053640001014100820078006509b900020178005a
:105374006003b90086017800030141005300200056
:105384000300b80001014100820078000001be0062
:105394000400be004eee070000007800f0428800d2
:1053a40033003700110020002e1090008401070004
:1053b400420620000300200045ee0700200f98005d
:1053c400310f98002e00900040049000d00490000b
:1053d40011002000200020007901070000c9b90055
:1053e40002017800088ab9008401780003014100b1
:1053f4000042b80005014100820278002e089000a6
:10540400be0890003e1190000191b900020178009d
:10541400ce119000009bb900860178000301410081
:10542400be1190000018b80001014100820078000c
:10543400420620000289b900020178006003b90025
:105444008601780003014100430620000300b800f0
